{
  "contractName": "PandAIEarn",
  "abi": [
    {
      "inputs": [
        {
          "internalType": "address",
          "name": "usdtTokenAddress",
          "type": "address"
        },
        {
          "internalType": "address",
          "name": "pandaiTokenAddress",
          "type": "address"
        }
      ],
      "stateMutability": "nonpayable",
      "type": "constructor"
    },
    {
      "anonymous": false,
      "inputs": [
        {
          "indexed": true,
          "internalType": "address",
          "name": "userAddress",
          "type": "address"
        },
        {
          "indexed": false,
          "internalType": "enum PandAIEarn.ApprovalLevel",
          "name": "previousApprovalLevel",
          "type": "uint8"
        },
        {
          "indexed": false,
          "internalType": "enum PandAIEarn.ApprovalLevel",
          "name": "newApprovalLevel",
          "type": "uint8"
        }
      ],
      "name": "ApprovalLevelChanged",
      "type": "event"
    },
    {
      "anonymous": false,
      "inputs": [
        {
          "indexed": true,
          "internalType": "address",
          "name": "previousLp",
          "type": "address"
        },
        {
          "indexed": true,
          "internalType": "address",
          "name": "newLp",
          "type": "address"
        }
      ],
      "name": "LpAddressChanged",
      "type": "event"
    },
    {
      "anonymous": false,
      "inputs": [
        {
          "indexed": true,
          "internalType": "address",
          "name": "userAddress",
          "type": "address"
        },
        {
          "indexed": false,
          "internalType": "uint256",
          "name": "pandaiAmount",
          "type": "uint256"
        }
      ],
      "name": "PandaiBurnedForReferralRewardClaim",
      "type": "event"
    },
    {
      "anonymous": false,
      "inputs": [
        {
          "indexed": true,
          "internalType": "address",
          "name": "userAddress",
          "type": "address"
        },
        {
          "indexed": false,
          "internalType": "uint256",
          "name": "pandaiAmount",
          "type": "uint256"
        }
      ],
      "name": "PandaiBurnedForUserRewardClaim",
      "type": "event"
    },
    {
      "anonymous": false,
      "inputs": [
        {
          "indexed": true,
          "internalType": "address",
          "name": "userAddress",
          "type": "address"
        },
        {
          "indexed": false,
          "internalType": "uint256",
          "name": "pandaiAmount",
          "type": "uint256"
        }
      ],
      "name": "PandaiBurnedForWithdrawFee",
      "type": "event"
    },
    {
      "anonymous": false,
      "inputs": [
        {
          "indexed": false,
          "internalType": "address",
          "name": "account",
          "type": "address"
        }
      ],
      "name": "Paused",
      "type": "event"
    },
    {
      "anonymous": false,
      "inputs": [
        {
          "indexed": true,
          "internalType": "address",
          "name": "userAddress",
          "type": "address"
        },
        {
          "indexed": false,
          "internalType": "uint256",
          "name": "usdtAmount",
          "type": "uint256"
        }
      ],
      "name": "ReferralRewardClaimed",
      "type": "event"
    },
    {
      "anonymous": false,
      "inputs": [
        {
          "indexed": true,
          "internalType": "bytes32",
          "name": "role",
          "type": "bytes32"
        },
        {
          "indexed": true,
          "internalType": "bytes32",
          "name": "previousAdminRole",
          "type": "bytes32"
        },
        {
          "indexed": true,
          "internalType": "bytes32",
          "name": "newAdminRole",
          "type": "bytes32"
        }
      ],
      "name": "RoleAdminChanged",
      "type": "event"
    },
    {
      "anonymous": false,
      "inputs": [
        {
          "indexed": true,
          "internalType": "bytes32",
          "name": "role",
          "type": "bytes32"
        },
        {
          "indexed": true,
          "internalType": "address",
          "name": "account",
          "type": "address"
        },
        {
          "indexed": true,
          "internalType": "address",
          "name": "sender",
          "type": "address"
        }
      ],
      "name": "RoleGranted",
      "type": "event"
    },
    {
      "anonymous": false,
      "inputs": [
        {
          "indexed": true,
          "internalType": "bytes32",
          "name": "role",
          "type": "bytes32"
        },
        {
          "indexed": true,
          "internalType": "address",
          "name": "account",
          "type": "address"
        },
        {
          "indexed": true,
          "internalType": "address",
          "name": "sender",
          "type": "address"
        }
      ],
      "name": "RoleRevoked",
      "type": "event"
    },
    {
      "anonymous": false,
      "inputs": [
        {
          "indexed": false,
          "internalType": "uint256",
          "name": "usdtAmount",
          "type": "uint256"
        }
      ],
      "name": "TreasuryDeposit",
      "type": "event"
    },
    {
      "anonymous": false,
      "inputs": [
        {
          "indexed": false,
          "internalType": "uint256",
          "name": "usdtAmount",
          "type": "uint256"
        }
      ],
      "name": "TreasuryWithdraw",
      "type": "event"
    },
    {
      "anonymous": false,
      "inputs": [
        {
          "indexed": false,
          "internalType": "address",
          "name": "account",
          "type": "address"
        }
      ],
      "name": "Unpaused",
      "type": "event"
    },
    {
      "anonymous": false,
      "inputs": [
        {
          "indexed": true,
          "internalType": "address",
          "name": "userAddress",
          "type": "address"
        },
        {
          "indexed": false,
          "internalType": "uint256",
          "name": "usdtAmount",
          "type": "uint256"
        }
      ],
      "name": "UserDeposited",
      "type": "event"
    },
    {
      "anonymous": false,
      "inputs": [
        {
          "indexed": true,
          "internalType": "address",
          "name": "userAddress",
          "type": "address"
        },
        {
          "indexed": false,
          "internalType": "uint256",
          "name": "usdtAmount",
          "type": "uint256"
        }
      ],
      "name": "UserRequestedWithdraw",
      "type": "event"
    },
    {
      "anonymous": false,
      "inputs": [
        {
          "indexed": true,
          "internalType": "address",
          "name": "userAddress",
          "type": "address"
        },
        {
          "indexed": false,
          "internalType": "uint256",
          "name": "usdtAmount",
          "type": "uint256"
        }
      ],
      "name": "UserRewardClaimed",
      "type": "event"
    },
    {
      "anonymous": false,
      "inputs": [
        {
          "indexed": true,
          "internalType": "address",
          "name": "userAddress",
          "type": "address"
        },
        {
          "indexed": false,
          "internalType": "uint256",
          "name": "usdtAmount",
          "type": "uint256"
        }
      ],
      "name": "UserWithdrew",
      "type": "event"
    },
    {
      "inputs": [],
      "name": "DEFAULT_ADMIN_ROLE",
      "outputs": [
        {
          "internalType": "bytes32",
          "name": "",
          "type": "bytes32"
        }
      ],
      "stateMutability": "view",
      "type": "function"
    },
    {
      "inputs": [],
      "name": "UPDATER_ROLE",
      "outputs": [
        {
          "internalType": "bytes32",
          "name": "",
          "type": "bytes32"
        }
      ],
      "stateMutability": "view",
      "type": "function"
    },
    {
      "inputs": [
        {
          "internalType": "bytes32",
          "name": "role",
          "type": "bytes32"
        }
      ],
      "name": "getRoleAdmin",
      "outputs": [
        {
          "internalType": "bytes32",
          "name": "",
          "type": "bytes32"
        }
      ],
      "stateMutability": "view",
      "type": "function"
    },
    {
      "inputs": [
        {
          "internalType": "bytes32",
          "name": "role",
          "type": "bytes32"
        },
        {
          "internalType": "address",
          "name": "account",
          "type": "address"
        }
      ],
      "name": "grantRole",
      "outputs": [],
      "stateMutability": "nonpayable",
      "type": "function"
    },
    {
      "inputs": [
        {
          "internalType": "bytes32",
          "name": "role",
          "type": "bytes32"
        },
        {
          "internalType": "address",
          "name": "account",
          "type": "address"
        }
      ],
      "name": "hasRole",
      "outputs": [
        {
          "internalType": "bool",
          "name": "",
          "type": "bool"
        }
      ],
      "stateMutability": "view",
      "type": "function"
    },
    {
      "inputs": [],
      "name": "paused",
      "outputs": [
        {
          "internalType": "bool",
          "name": "",
          "type": "bool"
        }
      ],
      "stateMutability": "view",
      "type": "function"
    },
    {
      "inputs": [
        {
          "internalType": "bytes32",
          "name": "role",
          "type": "bytes32"
        },
        {
          "internalType": "address",
          "name": "account",
          "type": "address"
        }
      ],
      "name": "renounceRole",
      "outputs": [],
      "stateMutability": "nonpayable",
      "type": "function"
    },
    {
      "inputs": [
        {
          "internalType": "bytes32",
          "name": "role",
          "type": "bytes32"
        },
        {
          "internalType": "address",
          "name": "account",
          "type": "address"
        }
      ],
      "name": "revokeRole",
      "outputs": [],
      "stateMutability": "nonpayable",
      "type": "function"
    },
    {
      "inputs": [
        {
          "internalType": "bytes4",
          "name": "interfaceId",
          "type": "bytes4"
        }
      ],
      "name": "supportsInterface",
      "outputs": [
        {
          "internalType": "bool",
          "name": "",
          "type": "bool"
        }
      ],
      "stateMutability": "view",
      "type": "function"
    },
    {
      "inputs": [
        {
          "internalType": "address",
          "name": "userAddress",
          "type": "address"
        }
      ],
      "name": "getUser",
      "outputs": [
        {
          "components": [
            {
              "internalType": "address",
              "name": "referral",
              "type": "address"
            },
            {
              "internalType": "uint8",
              "name": "approvalLevel",
              "type": "uint8"
            },
            {
              "internalType": "uint256",
              "name": "deposit",
              "type": "uint256"
            },
            {
              "internalType": "uint256",
              "name": "lastDepositTimestamp",
              "type": "uint256"
            },
            {
              "internalType": "uint256",
              "name": "withdrawRequestAmount",
              "type": "uint256"
            },
            {
              "internalType": "uint256",
              "name": "withdrawPossibleTimestamp",
              "type": "uint256"
            },
            {
              "internalType": "uint256",
              "name": "dailyClaim",
              "type": "uint256"
            },
            {
              "internalType": "uint256",
              "name": "totalClaim",
              "type": "uint256"
            },
            {
              "internalType": "uint256",
              "name": "lastClaimTimestamp",
              "type": "uint256"
            },
            {
              "internalType": "uint256",
              "name": "referralDeposit",
              "type": "uint256"
            },
            {
              "internalType": "uint256",
              "name": "referralPendingReward",
              "type": "uint256"
            },
            {
              "internalType": "uint256",
              "name": "referralLastUpdateTimestamp",
              "type": "uint256"
            }
          ],
          "internalType": "struct PandAIEarn.User",
          "name": "stored",
          "type": "tuple"
        },
        {
          "components": [
            {
              "internalType": "uint8",
              "name": "tier",
              "type": "uint8"
            },
            {
              "internalType": "uint256",
              "name": "userPendingReward",
              "type": "uint256"
            },
            {
              "internalType": "uint256",
              "name": "userPendingPandaiBurn",
              "type": "uint256"
            },
            {
              "internalType": "uint256",
              "name": "referralPendingReward",
              "type": "uint256"
            },
            {
              "internalType": "uint256",
              "name": "referralPendingPandaiBurn",
              "type": "uint256"
            },
            {
              "internalType": "uint256",
              "name": "depositUnlockTimestamp",
              "type": "uint256"
            }
          ],
          "internalType": "struct PandAIEarn.UserCalculated",
          "name": "calculated",
          "type": "tuple"
        }
      ],
      "stateMutability": "view",
      "type": "function"
    },
    {
      "inputs": [
        {
          "internalType": "uint8",
          "name": "tier",
          "type": "uint8"
        }
      ],
      "name": "getTier",
      "outputs": [
        {
          "components": [
            {
              "internalType": "uint256",
              "name": "minDeposit",
              "type": "uint256"
            },
            {
              "internalType": "bool",
              "name": "compoundInterest",
              "type": "bool"
            },
            {
              "internalType": "uint256",
              "name": "monthlyGainBps",
              "type": "uint256"
            },
            {
              "internalType": "uint256",
              "name": "claimFeeBps",
              "type": "uint256"
            },
            {
              "internalType": "uint256",
              "name": "lockupSeconds",
              "type": "uint256"
            },
            {
              "internalType": "uint256",
              "name": "lockupBreachFeeBps",
              "type": "uint256"
            }
          ],
          "internalType": "struct PandAIEarn.Tier",
          "name": "",
          "type": "tuple"
        }
      ],
      "stateMutability": "view",
      "type": "function"
    },
    {
      "inputs": [],
      "name": "getLpAddress",
      "outputs": [
        {
          "internalType": "address",
          "name": "",
          "type": "address"
        }
      ],
      "stateMutability": "view",
      "type": "function"
    },
    {
      "inputs": [],
      "name": "pause",
      "outputs": [],
      "stateMutability": "nonpayable",
      "type": "function"
    },
    {
      "inputs": [],
      "name": "unpause",
      "outputs": [],
      "stateMutability": "nonpayable",
      "type": "function"
    },
    {
      "inputs": [
        {
          "internalType": "address",
          "name": "newLpAddress",
          "type": "address"
        }
      ],
      "name": "setLpAddress",
      "outputs": [],
      "stateMutability": "nonpayable",
      "type": "function"
    },
    {
      "inputs": [
        {
          "internalType": "uint256",
          "name": "usdtAmount",
          "type": "uint256"
        }
      ],
      "name": "withdrawTreasury",
      "outputs": [],
      "stateMutability": "nonpayable",
      "type": "function"
    },
    {
      "inputs": [
        {
          "internalType": "uint256",
          "name": "usdtAmount",
          "type": "uint256"
        }
      ],
      "name": "depositTreasury",
      "outputs": [],
      "stateMutability": "nonpayable",
      "type": "function"
    },
    {
      "inputs": [
        {
          "internalType": "address",
          "name": "userAddress",
          "type": "address"
        },
        {
          "internalType": "enum PandAIEarn.ApprovalLevel",
          "name": "newApprovalLevel",
          "type": "uint8"
        }
      ],
      "name": "setUserApprovalLevel",
      "outputs": [],
      "stateMutability": "nonpayable",
      "type": "function"
    },
    {
      "inputs": [
        {
          "internalType": "uint256",
          "name": "usdtDepositAmount",
          "type": "uint256"
        }
      ],
      "name": "deposit",
      "outputs": [],
      "stateMutability": "nonpayable",
      "type": "function"
    },
    {
      "inputs": [
        {
          "internalType": "uint256",
          "name": "usdtDepositAmount",
          "type": "uint256"
        },
        {
          "internalType": "address",
          "name": "referralAddress",
          "type": "address"
        }
      ],
      "name": "depositWithReferral",
      "outputs": [],
      "stateMutability": "nonpayable",
      "type": "function"
    },
    {
      "inputs": [
        {
          "internalType": "uint256",
          "name": "usdtWithdrawAmount",
          "type": "uint256"
        }
      ],
      "name": "requestWithdraw",
      "outputs": [],
      "stateMutability": "nonpayable",
      "type": "function"
    },
    {
      "inputs": [],
      "name": "withdraw",
      "outputs": [],
      "stateMutability": "nonpayable",
      "type": "function"
    },
    {
      "inputs": [],
      "name": "claim",
      "outputs": [],
      "stateMutability": "nonpayable",
      "type": "function"
    }
  ],
  "bytecode": "0x60806040523480156200001157600080fd5b5060405162005c3838038062005c38833981810160405281019062000037919062000640565b6000600160006101000a81548160ff021916908315150217905550816001806101000a81548173ffffffffffffffffffffffffffffffffffffffff021916908373ffffffffffffffffffffffffffffffffffffffff16021790555080600260006101000a81548173ffffffffffffffffffffffffffffffffffffffff021916908373ffffffffffffffffffffffffffffffffffffffff1602179055506040518060c0016040528060648152602001600015158152602001606481526020016103e881526020016201518060076200010f9190620006c0565b8152602001610fa081525060046000600160ff1681526020019081526020016000206000820151816000015560208201518160010160006101000a81548160ff02191690831515021790555060408201518160020155606082015181600301556080820151816004015560a082015181600501559050506040518060c001604052806101f48152602001600015158152602001607d8152602001610384815260200162015180601e620001c39190620006c0565b8152602001610dac81525060046000600260ff1681526020019081526020016000206000820151816000015560208201518160010160006101000a81548160ff02191690831515021790555060408201518160020155606082015181600301556080820151816004015560a082015181600501559050506040518060c001604052806103e8815260200160001515815260200160968152602001610320815260200162015180603c620002779190620006c0565b8152602001610bb881525060046000600360ff1681526020019081526020016000206000820151816000015560208201518160010160006101000a81548160ff02191690831515021790555060408201518160020155606082015181600301556080820151816004015560a082015181600501559050506040518060c00160405280611388815260200160011515815260200160b4815260200161028a815260200162015180605a6200032b9190620006c0565b81526020016109c481525060046000600460ff1681526020019081526020016000206000820151816000015560208201518160010160006101000a81548160ff02191690831515021790555060408201518160020155606082015181600301556080820151816004015560a082015181600501559050506040518060c00160405280612710815260200160011515815260200160dc81526020016101f481526020016201518060b4620003df9190620006c0565b81526020016107d081525060046000600560ff1681526020019081526020016000206000820151816000015560208201518160010160006101000a81548160ff02191690831515021790555060408201518160020155606082015181600301556080820151816004015560a082015181600501559050506200046b6000801b336200047360201b60201c565b50506200070b565b6200048582826200056460201b60201c565b6200056057600160008084815260200190815260200160002060000160008373ffffffffffffffffffffffffffffffffffffffff1673ffffffffffffffffffffffffffffffffffffffff16815260200190815260200160002060006101000a81548160ff02191690831515021790555062000505620005ce60201b60201c565b73ffffffffffffffffffffffffffffffffffffffff168173ffffffffffffffffffffffffffffffffffffffff16837f2f8788117e7eff1d82e926ec794901d17c78024a50270940304540a733656f0d60405160405180910390a45b5050565b600080600084815260200190815260200160002060000160008373ffffffffffffffffffffffffffffffffffffffff1673ffffffffffffffffffffffffffffffffffffffff16815260200190815260200160002060009054906101000a900460ff16905092915050565b600033905090565b600080fd5b600073ffffffffffffffffffffffffffffffffffffffff82169050919050565b60006200060882620005db565b9050919050565b6200061a81620005fb565b81146200062657600080fd5b50565b6000815190506200063a816200060f565b92915050565b600080604083850312156200065a5762000659620005d6565b5b60006200066a8582860162000629565b92505060206200067d8582860162000629565b9150509250929050565b6000819050919050565b7f4e487b7100000000000000000000000000000000000000000000000000000000600052601160045260246000fd5b6000620006cd8262000687565b9150620006da8362000687565b9250828202620006ea8162000687565b9150828204841483151762000704576200070362000691565b5b5092915050565b61551d806200071b6000396000f3fe608060405234801561001057600080fd5b506004361061014d5760003560e01c80636e131aea116100c3578063a217fddf1161007c578063a217fddf1461033b578063b6b55f2514610359578063bd12240a14610375578063ca63605414610391578063d1e9a5fd146103c1578063d547741f146103df5761014d565b80636e131aea1461027c5780636f5e0212146102985780636f77926b146102b4578063745400c9146102e55780638456cb591461030157806391d148541461030b5761014d565b806336568abe1161011557806336568abe146102065780633ccfd60b146102225780633f4ba83a1461022c57806347e63380146102365780634e71d92d146102545780635c975abb1461025e5761014d565b806301ffc9a71461015257806311f1fc991461018257806316770c791461019e578063248a9ca3146101ba5780632f2ff15d146101ea575b600080fd5b61016c60048036038101906101679190613f39565b6103fb565b6040516101799190613f81565b60405180910390f35b61019c60048036038101906101979190613fd2565b610475565b005b6101b860048036038101906101b3919061405d565b61059a565b005b6101d460048036038101906101cf91906140d3565b610d40565b6040516101e1919061410f565b60405180910390f35b61020460048036038101906101ff919061412a565b610d5f565b005b610220600480360381019061021b919061412a565b610d80565b005b61022a610e03565b005b610234611112565b005b61023e61112a565b60405161024b919061410f565b60405180910390f35b61025c61114e565b005b61026661196f565b6040516102739190613f81565b60405180910390f35b6102966004803603810190610291919061418f565b611986565b005b6102b260048036038101906102ad91906141cf565b611adc565b005b6102ce60048036038101906102c991906141cf565b611db7565b6040516102dc9291906143a7565b60405180910390f35b6102ff60048036038101906102fa9190613fd2565b612026565b005b610309612ae0565b005b6103256004803603810190610320919061412a565b612af8565b6040516103329190613f81565b60405180910390f35b610343612b62565b604051610350919061410f565b60405180910390f35b610373600480360381019061036e9190613fd2565b612b69565b005b61038f600480360381019061038a9190613fd2565b612b8a565b005b6103ab60048036038101906103a691906143fe565b612cb1565b6040516103b891906144b5565b60405180910390f35b6103c9612d88565b6040516103d691906144df565b60405180910390f35b6103f960048036038101906103f4919061412a565b612db2565b005b60007f7965db0b000000000000000000000000000000000000000000000000000000007bffffffffffffffffffffffffffffffffffffffffffffffffffffffff1916827bffffffffffffffffffffffffffffffffffffffffffffffffffffffff1916148061046e575061046d82612dd3565b5b9050919050565b6000801b61048281612e3d565b60018054906101000a900473ffffffffffffffffffffffffffffffffffffffff1673ffffffffffffffffffffffffffffffffffffffff1663a9059cbb33846040518363ffffffff1660e01b81526004016104dd929190614509565b6020604051808303816000875af11580156104fc573d6000803e3d6000fd5b505050506040513d601f19601f82011682018060405250810190610520919061455e565b61055f576040517f08c379a0000000000000000000000000000000000000000000000000000000008152600401610556906145e8565b60405180910390fd5b7ff1b96db22d7f3eb7ef19d9ddbc4d63be139f5d014216d4e42107e10cfd4ff16c8260405161058e9190614608565b60405180910390a15050565b6105a2612e51565b60018054906101000a900473ffffffffffffffffffffffffffffffffffffffff1673ffffffffffffffffffffffffffffffffffffffff1663313ce5676040518163ffffffff1660e01b8152600401602060405180830381865afa15801561060d573d6000803e3d6000fd5b505050506040513d601f19601f820116820180604052508101906106319190614638565b600a61063d91906147c7565b60046000600160ff168152602001908152602001600020600001546106629190614812565b8210156106a4576040517f08c379a000000000000000000000000000000000000000000000000000000000815260040161069b906148a0565b60405180910390fd5b600073ffffffffffffffffffffffffffffffffffffffff168173ffffffffffffffffffffffffffffffffffffffff1603610713576040517f08c379a000000000000000000000000000000000000000000000000000000000815260040161070a9061490c565b60405180910390fd5b3373ffffffffffffffffffffffffffffffffffffffff168173ffffffffffffffffffffffffffffffffffffffff1603610781576040517f08c379a00000000000000000000000000000000000000000000000000000000081526004016107789061490c565b60405180910390fd5b600073ffffffffffffffffffffffffffffffffffffffff16600560003373ffffffffffffffffffffffffffffffffffffffff1673ffffffffffffffffffffffffffffffffffffffff16815260200190815260200160002060000160009054906101000a900473ffffffffffffffffffffffffffffffffffffffff1673ffffffffffffffffffffffffffffffffffffffff16036108995780600560003373ffffffffffffffffffffffffffffffffffffffff1673ffffffffffffffffffffffffffffffffffffffff16815260200190815260200160002060000160006101000a81548173ffffffffffffffffffffffffffffffffffffffff021916908373ffffffffffffffffffffffffffffffffffffffff1602179055505b81600560003373ffffffffffffffffffffffffffffffffffffffff1673ffffffffffffffffffffffffffffffffffffffff16815260200190815260200160002060010160008282546108eb919061492c565b9250508190555042600560003373ffffffffffffffffffffffffffffffffffffffff1673ffffffffffffffffffffffffffffffffffffffff1681526020019081526020016000206002018190555042600560003373ffffffffffffffffffffffffffffffffffffffff1673ffffffffffffffffffffffffffffffffffffffff1681526020019081526020016000206007018190555060006109ed600560003373ffffffffffffffffffffffffffffffffffffffff1673ffffffffffffffffffffffffffffffffffffffff16815260200190815260200160002060000160009054906101000a900473ffffffffffffffffffffffffffffffffffffffff16612e9b565b90508260056000600560003373ffffffffffffffffffffffffffffffffffffffff1673ffffffffffffffffffffffffffffffffffffffff16815260200190815260200160002060000160009054906101000a900473ffffffffffffffffffffffffffffffffffffffff1673ffffffffffffffffffffffffffffffffffffffff1673ffffffffffffffffffffffffffffffffffffffff1681526020019081526020016000206008016000828254610aa3919061492c565b925050819055508060056000600560003373ffffffffffffffffffffffffffffffffffffffff1673ffffffffffffffffffffffffffffffffffffffff16815260200190815260200160002060000160009054906101000a900473ffffffffffffffffffffffffffffffffffffffff1673ffffffffffffffffffffffffffffffffffffffff1673ffffffffffffffffffffffffffffffffffffffff1681526020019081526020016000206009016000828254610b5e919061492c565b925050819055504260056000600560003373ffffffffffffffffffffffffffffffffffffffff1673ffffffffffffffffffffffffffffffffffffffff16815260200190815260200160002060000160009054906101000a900473ffffffffffffffffffffffffffffffffffffffff1673ffffffffffffffffffffffffffffffffffffffff1673ffffffffffffffffffffffffffffffffffffffff168152602001908152602001600020600a018190555060018054906101000a900473ffffffffffffffffffffffffffffffffffffffff1673ffffffffffffffffffffffffffffffffffffffff166323b872dd3330866040518463ffffffff1660e01b8152600401610c6b93929190614960565b6020604051808303816000875af1158015610c8a573d6000803e3d6000fd5b505050506040513d601f19601f82011682018060405250810190610cae919061455e565b610ced576040517f08c379a0000000000000000000000000000000000000000000000000000000008152600401610ce4906145e8565b60405180910390fd5b3373ffffffffffffffffffffffffffffffffffffffff167f951fdc61d6a98f96098a17ea6ac287a6fd38aea6bef73083c93b274cb830107d84604051610d339190614608565b60405180910390a2505050565b6000806000838152602001908152602001600020600101549050919050565b610d6882610d40565b610d7181612e3d565b610d7b8383612f77565b505050565b610d88613057565b73ffffffffffffffffffffffffffffffffffffffff168173ffffffffffffffffffffffffffffffffffffffff1614610df5576040517f08c379a0000000000000000000000000000000000000000000000000000000008152600401610dec90614a09565b60405180910390fd5b610dff828261305f565b5050565b6000600560003373ffffffffffffffffffffffffffffffffffffffff1673ffffffffffffffffffffffffffffffffffffffff1681526020019081526020016000206003015411610e88576040517f08c379a0000000000000000000000000000000000000000000000000000000008152600401610e7f90614a75565b60405180910390fd5b42600560003373ffffffffffffffffffffffffffffffffffffffff1673ffffffffffffffffffffffffffffffffffffffff168152602001908152602001600020600401541115610f0d576040517f08c379a0000000000000000000000000000000000000000000000000000000008152600401610f0490614ae1565b60405180910390fd5b6000600560003373ffffffffffffffffffffffffffffffffffffffff1673ffffffffffffffffffffffffffffffffffffffff1681526020019081526020016000206003015490506000600560003373ffffffffffffffffffffffffffffffffffffffff1673ffffffffffffffffffffffffffffffffffffffff168152602001908152602001600020600301819055506000600560003373ffffffffffffffffffffffffffffffffffffffff1673ffffffffffffffffffffffffffffffffffffffff1681526020019081526020016000206004018190555060018054906101000a900473ffffffffffffffffffffffffffffffffffffffff1673ffffffffffffffffffffffffffffffffffffffff1663a9059cbb33836040518363ffffffff1660e01b815260040161103f929190614509565b6020604051808303816000875af115801561105e573d6000803e3d6000fd5b505050506040513d601f19601f82011682018060405250810190611082919061455e565b6110c1576040517f08c379a00000000000000000000000000000000000000000000000000000000081526004016110b8906145e8565b60405180910390fd5b3373ffffffffffffffffffffffffffffffffffffffff167f60940a45682dd211584724a922396732f11d82de250ddce40f7cdc3dc5805865826040516111079190614608565b60405180910390a250565b6000801b61111f81612e3d565b611127613140565b50565b7f73e573f9566d61418a34d5de3ff49360f9c51fec37f7486551670290f6285dab81565b6000611159336131a3565b9050600061116733836132ee565b9050600061117433612e9b565b600560003373ffffffffffffffffffffffffffffffffffffffff1673ffffffffffffffffffffffffffffffffffffffff168152602001908152602001600020600901546111c1919061492c565b9050600081836111d1919061492c565b11611211576040517f08c379a000000000000000000000000000000000000000000000000000000000815260040161120890614b4d565b60405180910390fd5b611226338284611221919061492c565b6134f4565b611265576040517f08c379a000000000000000000000000000000000000000000000000000000000815260040161125c90614bb9565b60405180910390fd5b6000611271838561371e565b9050600061127e83613779565b9050808261128c919061492c565b600260009054906101000a900473ffffffffffffffffffffffffffffffffffffffff1673ffffffffffffffffffffffffffffffffffffffff166370a08231336040518263ffffffff1660e01b81526004016112e791906144df565b602060405180830381865afa158015611304573d6000803e3d6000fd5b505050506040513d601f19601f820116820180604052508101906113289190614bee565b1015611369576040517f08c379a000000000000000000000000000000000000000000000000000000000815260040161136090614c67565b60405180910390fd5b8082611375919061492c565b600260009054906101000a900473ffffffffffffffffffffffffffffffffffffffff1673ffffffffffffffffffffffffffffffffffffffff1663dd62ed3e33306040518363ffffffff1660e01b81526004016113d2929190614c87565b602060405180830381865afa1580156113ef573d6000803e3d6000fd5b505050506040513d601f19601f820116820180604052508101906114139190614bee565b1015611454576040517f08c379a000000000000000000000000000000000000000000000000000000000815260040161144b90614cfc565b60405180910390fd5b61149f600560003373ffffffffffffffffffffffffffffffffffffffff1673ffffffffffffffffffffffffffffffffffffffff168152602001908152602001600020600701546137a5565b1561150d5782846114b0919061492c565b600560003373ffffffffffffffffffffffffffffffffffffffff1673ffffffffffffffffffffffffffffffffffffffff1681526020019081526020016000206005016000828254611501919061492c565b92505081905550611560565b8284611519919061492c565b600560003373ffffffffffffffffffffffffffffffffffffffff1673ffffffffffffffffffffffffffffffffffffffff168152602001908152602001600020600501819055505b828461156c919061492c565b600560003373ffffffffffffffffffffffffffffffffffffffff1673ffffffffffffffffffffffffffffffffffffffff16815260200190815260200160002060060160008282546115bd919061492c565b9250508190555042600560003373ffffffffffffffffffffffffffffffffffffffff1673ffffffffffffffffffffffffffffffffffffffff168152602001908152602001600020600701819055506000600560003373ffffffffffffffffffffffffffffffffffffffff1673ffffffffffffffffffffffffffffffffffffffff1681526020019081526020016000206009018190555042600560003373ffffffffffffffffffffffffffffffffffffffff1673ffffffffffffffffffffffffffffffffffffffff168152602001908152602001600020600a018190555060018054906101000a900473ffffffffffffffffffffffffffffffffffffffff1673ffffffffffffffffffffffffffffffffffffffff1663a9059cbb3385876116e3919061492c565b6040518363ffffffff1660e01b8152600401611700929190614509565b6020604051808303816000875af115801561171f573d6000803e3d6000fd5b505050506040513d601f19601f82011682018060405250810190611743919061455e565b611782576040517f08c379a0000000000000000000000000000000000000000000000000000000008152600401611779906145e8565b60405180910390fd5b600260009054906101000a900473ffffffffffffffffffffffffffffffffffffffff1673ffffffffffffffffffffffffffffffffffffffff166379cc67903383856117cd919061492c565b6040518363ffffffff1660e01b81526004016117ea929190614509565b600060405180830381600087803b15801561180457600080fd5b505af1158015611818573d6000803e3d6000fd5b5050505060008411156118c2573373ffffffffffffffffffffffffffffffffffffffff167ffe9e35ab94545fd82755f641bb9fb45e0d9dfafca472b2bce233d7dff2962f3c8560405161186b9190614608565b60405180910390a23373ffffffffffffffffffffffffffffffffffffffff167f5154ba3ad6f942a7219ac1d545fe2eb12a47b1804c8240ab9da1fa1a126f742b836040516118b99190614608565b60405180910390a25b6000831115611968573373ffffffffffffffffffffffffffffffffffffffff167f5be4d22009fea85381595ed91090bc5c0bc92a93fe07ed7472c5888eb1993f83846040516119119190614608565b60405180910390a23373ffffffffffffffffffffffffffffffffffffffff167f0b8bf41669e0983dcaf8ea2cbb6f14db91d87b23dc199f9c873e41e2c6ae77948260405161195f9190614608565b60405180910390a25b5050505050565b6000600160009054906101000a900460ff16905090565b7f73e573f9566d61418a34d5de3ff49360f9c51fec37f7486551670290f6285dab6119b081612e3d565b6000600560008573ffffffffffffffffffffffffffffffffffffffff1673ffffffffffffffffffffffffffffffffffffffff16815260200190815260200160002060000160149054906101000a900460ff1660ff166002811115611a1757611a16614d1c565b5b9050826002811115611a2c57611a2b614d1c565b5b600560008673ffffffffffffffffffffffffffffffffffffffff1673ffffffffffffffffffffffffffffffffffffffff16815260200190815260200160002060000160146101000a81548160ff021916908360ff1602179055508373ffffffffffffffffffffffffffffffffffffffff167f97a9663cc868dbb1c96d7a109c230519a0b6d87f567743f5963889ba988942d78285604051611ace929190614d93565b60405180910390a250505050565b6000801b611ae981612e3d565b600073ffffffffffffffffffffffffffffffffffffffff168273ffffffffffffffffffffffffffffffffffffffff1603611b58576040517f08c379a0000000000000000000000000000000000000000000000000000000008152600401611b4f90614e08565b60405180910390fd5b600060018054906101000a900473ffffffffffffffffffffffffffffffffffffffff1673ffffffffffffffffffffffffffffffffffffffff166370a08231846040518263ffffffff1660e01b8152600401611bb391906144df565b602060405180830381865afa158015611bd0573d6000803e3d6000fd5b505050506040513d601f19601f82011682018060405250810190611bf49190614bee565b11611c34576040517f08c379a0000000000000000000000000000000000000000000000000000000008152600401611c2b90614e74565b60405180910390fd5b6000600260009054906101000a900473ffffffffffffffffffffffffffffffffffffffff1673ffffffffffffffffffffffffffffffffffffffff166370a08231846040518263ffffffff1660e01b8152600401611c9191906144df565b602060405180830381865afa158015611cae573d6000803e3d6000fd5b505050506040513d601f19601f82011682018060405250810190611cd29190614bee565b11611d12576040517f08c379a0000000000000000000000000000000000000000000000000000000008152600401611d0990614ee0565b60405180910390fd5b600082905082600360006101000a81548173ffffffffffffffffffffffffffffffffffffffff021916908373ffffffffffffffffffffffffffffffffffffffff1602179055508273ffffffffffffffffffffffffffffffffffffffff168173ffffffffffffffffffffffffffffffffffffffff167fb540d9b4914fdc07330a18551512f4d172c9f361d5aa3225aee17276e3411cec60405160405180910390a3505050565b611dbf613df1565b611dc7613e6b565b600073ffffffffffffffffffffffffffffffffffffffff168373ffffffffffffffffffffffffffffffffffffffff1603611e36576040517f08c379a0000000000000000000000000000000000000000000000000000000008152600401611e2d90614e08565b60405180910390fd5b6000611e41846131a3565b90506000611e4f85836132ee565b90506000611e5c86612e9b565b600560008873ffffffffffffffffffffffffffffffffffffffff1673ffffffffffffffffffffffffffffffffffffffff16815260200190815260200160002060090154611ea9919061492c565b9050600560008773ffffffffffffffffffffffffffffffffffffffff1673ffffffffffffffffffffffffffffffffffffffff1681526020019081526020016000206040518060c001604052808560ff168152602001848152602001611f0e858761371e565b8152602001838152602001611f2284613779565b8152602001611f3189876137cd565b81525081604051806101800160405290816000820160009054906101000a900473ffffffffffffffffffffffffffffffffffffffff1673ffffffffffffffffffffffffffffffffffffffff1673ffffffffffffffffffffffffffffffffffffffff1681526020016000820160149054906101000a900460ff1660ff1660ff168152602001600182015481526020016002820154815260200160038201548152602001600482015481526020016005820154815260200160068201548152602001600782015481526020016008820154815260200160098201548152602001600a82015481525050915094509450505050915091565b600560003373ffffffffffffffffffffffffffffffffffffffff1673ffffffffffffffffffffffffffffffffffffffff168152602001908152602001600020600101548111156120ab576040517f08c379a00000000000000000000000000000000000000000000000000000000081526004016120a290614f4c565b60405180910390fd5b600560003373ffffffffffffffffffffffffffffffffffffffff1673ffffffffffffffffffffffffffffffffffffffff168152602001908152602001600020600101548110156122455760018054906101000a900473ffffffffffffffffffffffffffffffffffffffff1673ffffffffffffffffffffffffffffffffffffffff1663313ce5676040518163ffffffff1660e01b8152600401602060405180830381865afa158015612160573d6000803e3d6000fd5b505050506040513d601f19601f820116820180604052508101906121849190614638565b600a61219091906147c7565b60046000600160ff168152602001908152602001600020600001546121b59190614812565b81600560003373ffffffffffffffffffffffffffffffffffffffff1673ffffffffffffffffffffffffffffffffffffffff168152602001908152602001600020600101546122039190614f6c565b1015612244576040517f08c379a000000000000000000000000000000000000000000000000000000000815260040161223b90614fec565b60405180910390fd5b5b6000612250336131a3565b905060008160ff1611612298576040517f08c379a000000000000000000000000000000000000000000000000000000000815260040161228f90615058565b60405180910390fd5b6000426122a533846137cd565b11156124a9576122e8612710600460008560ff1660ff16815260200190815260200160002060050154856122d99190614812565b6122e391906150a7565b613855565b905080600260009054906101000a900473ffffffffffffffffffffffffffffffffffffffff1673ffffffffffffffffffffffffffffffffffffffff166370a08231336040518263ffffffff1660e01b815260040161234691906144df565b602060405180830381865afa158015612363573d6000803e3d6000fd5b505050506040513d601f19601f820116820180604052508101906123879190614bee565b10156123c8576040517f08c379a00000000000000000000000000000000000000000000000000000000081526004016123bf90614c67565b60405180910390fd5b80600260009054906101000a900473ffffffffffffffffffffffffffffffffffffffff1673ffffffffffffffffffffffffffffffffffffffff1663dd62ed3e33306040518363ffffffff1660e01b8152600401612426929190614c87565b602060405180830381865afa158015612443573d6000803e3d6000fd5b505050506040513d601f19601f820116820180604052508101906124679190614bee565b10156124a8576040517f08c379a000000000000000000000000000000000000000000000000000000000815260040161249f90614cfc565b60405180910390fd5b5b82600560003373ffffffffffffffffffffffffffffffffffffffff1673ffffffffffffffffffffffffffffffffffffffff16815260200190815260200160002060010160008282546124fb9190614f6c565b9250508190555082600560003373ffffffffffffffffffffffffffffffffffffffff1673ffffffffffffffffffffffffffffffffffffffff1681526020019081526020016000206003016000828254612554919061492c565b9250508190555062015180600e61256b9190614812565b42612576919061492c565b600560003373ffffffffffffffffffffffffffffffffffffffff1673ffffffffffffffffffffffffffffffffffffffff168152602001908152602001600020600401819055506000612629600560003373ffffffffffffffffffffffffffffffffffffffff1673ffffffffffffffffffffffffffffffffffffffff16815260200190815260200160002060000160009054906101000a900473ffffffffffffffffffffffffffffffffffffffff16612e9b565b90508360056000600560003373ffffffffffffffffffffffffffffffffffffffff1673ffffffffffffffffffffffffffffffffffffffff16815260200190815260200160002060000160009054906101000a900473ffffffffffffffffffffffffffffffffffffffff1673ffffffffffffffffffffffffffffffffffffffff1673ffffffffffffffffffffffffffffffffffffffff1681526020019081526020016000206008015410612796578360056000600560003373ffffffffffffffffffffffffffffffffffffffff1673ffffffffffffffffffffffffffffffffffffffff16815260200190815260200160002060000160009054906101000a900473ffffffffffffffffffffffffffffffffffffffff1673ffffffffffffffffffffffffffffffffffffffff1673ffffffffffffffffffffffffffffffffffffffff168152602001908152602001600020600801600082825461278a9190614f6c565b92505081905550612841565b600060056000600560003373ffffffffffffffffffffffffffffffffffffffff1673ffffffffffffffffffffffffffffffffffffffff16815260200190815260200160002060000160009054906101000a900473ffffffffffffffffffffffffffffffffffffffff1673ffffffffffffffffffffffffffffffffffffffff1673ffffffffffffffffffffffffffffffffffffffff168152602001908152602001600020600801819055505b8060056000600560003373ffffffffffffffffffffffffffffffffffffffff1673ffffffffffffffffffffffffffffffffffffffff16815260200190815260200160002060000160009054906101000a900473ffffffffffffffffffffffffffffffffffffffff1673ffffffffffffffffffffffffffffffffffffffff1673ffffffffffffffffffffffffffffffffffffffff16815260200190815260200160002060090160008282546128f5919061492c565b925050819055504260056000600560003373ffffffffffffffffffffffffffffffffffffffff1673ffffffffffffffffffffffffffffffffffffffff16815260200190815260200160002060000160009054906101000a900473ffffffffffffffffffffffffffffffffffffffff1673ffffffffffffffffffffffffffffffffffffffff1673ffffffffffffffffffffffffffffffffffffffff168152602001908152602001600020600a01819055506000821115612a8c57600260009054906101000a900473ffffffffffffffffffffffffffffffffffffffff1673ffffffffffffffffffffffffffffffffffffffff166379cc679033846040518363ffffffff1660e01b8152600401612a0b929190614509565b600060405180830381600087803b158015612a2557600080fd5b505af1158015612a39573d6000803e3d6000fd5b505050503373ffffffffffffffffffffffffffffffffffffffff167f67e0a76c8ca65f789ba0c0b9ac467471fd0905ab2e83ee2ab59b6064f29813fa83604051612a839190614608565b60405180910390a25b3373ffffffffffffffffffffffffffffffffffffffff167fa933b33bc35fbbc42120b3234fd8abdb6ab035bbc8c9199479693f0abede25d185604051612ad29190614608565b60405180910390a250505050565b6000801b612aed81612e3d565b612af5613a58565b50565b600080600084815260200190815260200160002060000160008373ffffffffffffffffffffffffffffffffffffffff1673ffffffffffffffffffffffffffffffffffffffff16815260200190815260200160002060009054906101000a900460ff16905092915050565b6000801b81565b612b878173ee9aa828ff4cbf294063168e78beb7bcf441fea161059a565b50565b6000801b612b9781612e3d565b60018054906101000a900473ffffffffffffffffffffffffffffffffffffffff1673ffffffffffffffffffffffffffffffffffffffff166323b872dd3330856040518463ffffffff1660e01b8152600401612bf493929190614960565b6020604051808303816000875af1158015612c13573d6000803e3d6000fd5b505050506040513d601f19601f82011682018060405250810190612c37919061455e565b612c76576040517f08c379a0000000000000000000000000000000000000000000000000000000008152600401612c6d906145e8565b60405180910390fd5b7f90388e3e271a8f007dd351d51ccac1674db355c1ce23fe0005d0721fc8e9b2c682604051612ca59190614608565b60405180910390a15050565b612cb9613ea4565b60018260ff1610158015612cd1575060058260ff1611155b612d10576040517f08c379a0000000000000000000000000000000000000000000000000000000008152600401612d0790615058565b60405180910390fd5b600460008360ff1660ff1681526020019081526020016000206040518060c0016040529081600082015481526020016001820160009054906101000a900460ff161515151581526020016002820154815260200160038201548152602001600482015481526020016005820154815250509050919050565b6000600360009054906101000a900473ffffffffffffffffffffffffffffffffffffffff16905090565b612dbb82610d40565b612dc481612e3d565b612dce838361305f565b505050565b60007f01ffc9a7000000000000000000000000000000000000000000000000000000007bffffffffffffffffffffffffffffffffffffffffffffffffffffffff1916827bffffffffffffffffffffffffffffffffffffffffffffffffffffffff1916149050919050565b612e4e81612e49613057565b613aba565b50565b612e5961196f565b15612e99576040517f08c379a0000000000000000000000000000000000000000000000000000000008152600401612e9090615124565b60405180910390fd5b565b600080600560008473ffffffffffffffffffffffffffffffffffffffff1673ffffffffffffffffffffffffffffffffffffffff168152602001908152602001600020600a015442612eec9190614f6c565b905062015180601e612efe9190614812565b612710826014600560008873ffffffffffffffffffffffffffffffffffffffff1673ffffffffffffffffffffffffffffffffffffffff16815260200190815260200160002060080154612f519190614812565b612f5b9190614812565b612f6591906150a7565b612f6f91906150a7565b915050919050565b612f818282612af8565b61305357600160008084815260200190815260200160002060000160008373ffffffffffffffffffffffffffffffffffffffff1673ffffffffffffffffffffffffffffffffffffffff16815260200190815260200160002060006101000a81548160ff021916908315150217905550612ff8613057565b73ffffffffffffffffffffffffffffffffffffffff168173ffffffffffffffffffffffffffffffffffffffff16837f2f8788117e7eff1d82e926ec794901d17c78024a50270940304540a733656f0d60405160405180910390a45b5050565b600033905090565b6130698282612af8565b1561313c57600080600084815260200190815260200160002060000160008373ffffffffffffffffffffffffffffffffffffffff1673ffffffffffffffffffffffffffffffffffffffff16815260200190815260200160002060006101000a81548160ff0219169083151502179055506130e1613057565b73ffffffffffffffffffffffffffffffffffffffff168173ffffffffffffffffffffffffffffffffffffffff16837ff6391f5c32d9c69d2a47ea670b442974b53935d1edc7fd64eb21e047a839171b60405160405180910390a45b5050565b613148613b3f565b6000600160006101000a81548160ff0219169083151502179055507f5db9ee0a495bf2e6ff9c91a7834c1ba4fdd244a5e8aa4e537bd38aeae4b073aa61318c613057565b60405161319991906144df565b60405180910390a1565b60008060018054906101000a900473ffffffffffffffffffffffffffffffffffffffff1673ffffffffffffffffffffffffffffffffffffffff1663313ce5676040518163ffffffff1660e01b8152600401602060405180830381865afa158015613211573d6000803e3d6000fd5b505050506040513d601f19601f820116820180604052508101906132359190614638565b600a61324191906147c7565b600560008573ffffffffffffffffffffffffffffffffffffffff1673ffffffffffffffffffffffffffffffffffffffff1681526020019081526020016000206001015461328e91906150a7565b90506000600590505b60018160ff16106132e257600460008260ff1660ff1681526020019081526020016000206000015482106132cf5780925050506132e9565b80806132da90615144565b915050613297565b5060009150505b919050565b6000808260ff160361330357600090506134ee565b6000600460008460ff1660ff1681526020019081526020016000206002015490506000600560008673ffffffffffffffffffffffffffffffffffffffff1673ffffffffffffffffffffffffffffffffffffffff16815260200190815260200160002060070154426133749190614f6c565b9050600062015180601e6133889190614812565b6127108385600560008b73ffffffffffffffffffffffffffffffffffffffff1673ffffffffffffffffffffffffffffffffffffffff168152602001908152602001600020600101546133da9190614812565b6133e49190614812565b6133ee91906150a7565b6133f891906150a7565b9050600460008660ff1660ff16815260200190815260200160002060010160009054906101000a900460ff16613433578093505050506134ee565b6000600262015180601e6134479190614812565b6127108587866134579190614812565b6134619190614812565b61346b91906150a7565b61347591906150a7565b61347f91906150a7565b90506000600362015180601e6134959190614812565b6127108688866134a59190614812565b6134af9190614812565b6134b991906150a7565b6134c391906150a7565b6134cd91906150a7565b90508082846134dc919061492c565b6134e6919061492c565b955050505050505b92915050565b600080600560008573ffffffffffffffffffffffffffffffffffffffff1673ffffffffffffffffffffffffffffffffffffffff16815260200190815260200160002060000160149054906101000a900460ff1660ff16600281111561355c5761355b614d1c565b5b90506001600281111561357257613571614d1c565b5b81600281111561358557613584614d1c565b5b03613594576001915050613718565b6002808111156135a7576135a6614d1c565b5b8160028111156135ba576135b9614d1c565b5b036135c9576000915050613718565b613614600560008673ffffffffffffffffffffffffffffffffffffffff1673ffffffffffffffffffffffffffffffffffffffff168152602001908152602001600020600701546137a5565b1561366a57600560008573ffffffffffffffffffffffffffffffffffffffff1673ffffffffffffffffffffffffffffffffffffffff1681526020019081526020016000206005015483613667919061492c565b92505b6103e860018054906101000a900473ffffffffffffffffffffffffffffffffffffffff1673ffffffffffffffffffffffffffffffffffffffff1663313ce5676040518163ffffffff1660e01b8152600401602060405180830381865afa1580156136d8573d6000803e3d6000fd5b505050506040513d601f19601f820116820180604052508101906136fc9190614638565b600a61370891906147c7565b8461371391906150a7565b109150505b92915050565b6000808260ff16036137335760009050613773565b613770612710600460008560ff1660ff16815260200190815260200160002060030154856137619190614812565b61376b91906150a7565b613855565b90505b92915050565b600061379e6127106103e88461378f9190614812565b61379991906150a7565b613855565b9050919050565b600062015180826137b691906150a7565b62015180426137c591906150a7565b149050919050565b6000808260ff16036137e2576000905061384f565b600460008360ff1660ff16815260200190815260200160002060040154600560008573ffffffffffffffffffffffffffffffffffffffff1673ffffffffffffffffffffffffffffffffffffffff1681526020019081526020016000206002015461384c919061492c565b90505b92915050565b60008082036138675760009050613a53565b600060018054906101000a900473ffffffffffffffffffffffffffffffffffffffff1673ffffffffffffffffffffffffffffffffffffffff166370a08231600360009054906101000a900473ffffffffffffffffffffffffffffffffffffffff166040518263ffffffff1660e01b81526004016138e491906144df565b602060405180830381865afa158015613901573d6000803e3d6000fd5b505050506040513d601f19601f820116820180604052508101906139259190614bee565b90506000600260009054906101000a900473ffffffffffffffffffffffffffffffffffffffff1673ffffffffffffffffffffffffffffffffffffffff166370a08231600360009054906101000a900473ffffffffffffffffffffffffffffffffffffffff166040518263ffffffff1660e01b81526004016139a691906144df565b602060405180830381865afa1580156139c3573d6000803e3d6000fd5b505050506040513d601f19601f820116820180604052508101906139e79190614bee565b9050600081836139f79190614812565b11613a37576040517f08c379a0000000000000000000000000000000000000000000000000000000008152600401613a2e906151b9565b60405180910390fd5b818185613a449190614812565b613a4e91906150a7565b925050505b919050565b613a60612e51565b60018060006101000a81548160ff0219169083151502179055507f62e78cea01bee320cd4e420270b5ea74000d11b0c9f74754ebdbfc544b05a258613aa3613057565b604051613ab091906144df565b60405180910390a1565b613ac48282612af8565b613b3b57613ad181613b88565b613adf8360001c6020613bb5565b604051602001613af09291906152e2565b6040516020818303038152906040526040517f08c379a0000000000000000000000000000000000000000000000000000000008152600401613b329190615366565b60405180910390fd5b5050565b613b4761196f565b613b86576040517f08c379a0000000000000000000000000000000000000000000000000000000008152600401613b7d906153d4565b60405180910390fd5b565b6060613bae8273ffffffffffffffffffffffffffffffffffffffff16601460ff16613bb5565b9050919050565b606060006002836002613bc89190614812565b613bd2919061492c565b67ffffffffffffffff811115613beb57613bea6153f4565b5b6040519080825280601f01601f191660200182016040528015613c1d5781602001600182028036833780820191505090505b5090507f300000000000000000000000000000000000000000000000000000000000000081600081518110613c5557613c54615423565b5b60200101907effffffffffffffffffffffffffffffffffffffffffffffffffffffffffffff1916908160001a9053507f780000000000000000000000000000000000000000000000000000000000000081600181518110613cb957613cb8615423565b5b60200101907effffffffffffffffffffffffffffffffffffffffffffffffffffffffffffff1916908160001a90535060006001846002613cf99190614812565b613d03919061492c565b90505b6001811115613da3577f3031323334353637383961626364656600000000000000000000000000000000600f861660108110613d4557613d44615423565b5b1a60f81b828281518110613d5c57613d5b615423565b5b60200101907effffffffffffffffffffffffffffffffffffffffffffffffffffffffffffff1916908160001a905350600485901c945080613d9c90615452565b9050613d06565b5060008414613de7576040517f08c379a0000000000000000000000000000000000000000000000000000000008152600401613dde906154c7565b60405180910390fd5b8091505092915050565b604051806101800160405280600073ffffffffffffffffffffffffffffffffffffffff168152602001600060ff168152602001600081526020016000815260200160008152602001600081526020016000815260200160008152602001600081526020016000815260200160008152602001600081525090565b6040518060c00160405280600060ff16815260200160008152602001600081526020016000815260200160008152602001600081525090565b6040518060c0016040528060008152602001600015158152602001600081526020016000815260200160008152602001600081525090565b600080fd5b60007fffffffff0000000000000000000000000000000000000000000000000000000082169050919050565b613f1681613ee1565b8114613f2157600080fd5b50565b600081359050613f3381613f0d565b92915050565b600060208284031215613f4f57613f4e613edc565b5b6000613f5d84828501613f24565b91505092915050565b60008115159050919050565b613f7b81613f66565b82525050565b6000602082019050613f966000830184613f72565b92915050565b6000819050919050565b613faf81613f9c565b8114613fba57600080fd5b50565b600081359050613fcc81613fa6565b92915050565b600060208284031215613fe857613fe7613edc565b5b6000613ff684828501613fbd565b91505092915050565b600073ffffffffffffffffffffffffffffffffffffffff82169050919050565b600061402a82613fff565b9050919050565b61403a8161401f565b811461404557600080fd5b50565b60008135905061405781614031565b92915050565b6000806040838503121561407457614073613edc565b5b600061408285828601613fbd565b925050602061409385828601614048565b9150509250929050565b6000819050919050565b6140b08161409d565b81146140bb57600080fd5b50565b6000813590506140cd816140a7565b92915050565b6000602082840312156140e9576140e8613edc565b5b60006140f7848285016140be565b91505092915050565b6141098161409d565b82525050565b60006020820190506141246000830184614100565b92915050565b6000806040838503121561414157614140613edc565b5b600061414f858286016140be565b925050602061416085828601614048565b9150509250929050565b6003811061417757600080fd5b50565b6000813590506141898161416a565b92915050565b600080604083850312156141a6576141a5613edc565b5b60006141b485828601614048565b92505060206141c58582860161417a565b9150509250929050565b6000602082840312156141e5576141e4613edc565b5b60006141f384828501614048565b91505092915050565b6142058161401f565b82525050565b600060ff82169050919050565b6142218161420b565b82525050565b61423081613f9c565b82525050565b6101808201600082015161424d60008501826141fc565b5060208201516142606020850182614218565b5060408201516142736040850182614227565b5060608201516142866060850182614227565b5060808201516142996080850182614227565b5060a08201516142ac60a0850182614227565b5060c08201516142bf60c0850182614227565b5060e08201516142d260e0850182614227565b506101008201516142e7610100850182614227565b506101208201516142fc610120850182614227565b50610140820151614311610140850182614227565b50610160820151614326610160850182614227565b50505050565b60c0820160008201516143426000850182614218565b5060208201516143556020850182614227565b5060408201516143686040850182614227565b50606082015161437b6060850182614227565b50608082015161438e6080850182614227565b5060a08201516143a160a0850182614227565b50505050565b6000610240820190506143bd6000830185614236565b6143cb61018083018461432c565b9392505050565b6143db8161420b565b81146143e657600080fd5b50565b6000813590506143f8816143d2565b92915050565b60006020828403121561441457614413613edc565b5b6000614422848285016143e9565b91505092915050565b61443481613f66565b82525050565b60c0820160008201516144506000850182614227565b506020820151614463602085018261442b565b5060408201516144766040850182614227565b5060608201516144896060850182614227565b50608082015161449c6080850182614227565b5060a08201516144af60a0850182614227565b50505050565b600060c0820190506144ca600083018461443a565b92915050565b6144d98161401f565b82525050565b60006020820190506144f460008301846144d0565b92915050565b61450381613f9c565b82525050565b600060408201905061451e60008301856144d0565b61452b60208301846144fa565b9392505050565b61453b81613f66565b811461454657600080fd5b50565b60008151905061455881614532565b92915050565b60006020828403121561457457614573613edc565b5b600061458284828501614549565b91505092915050565b600082825260208201905092915050565b7f75736474207472616e7366657200000000000000000000000000000000000000600082015250565b60006145d2600d8361458b565b91506145dd8261459c565b602082019050919050565b60006020820190508181036000830152614601816145c5565b9050919050565b600060208201905061461d60008301846144fa565b92915050565b600081519050614632816143d2565b92915050565b60006020828403121561464e5761464d613edc565b5b600061465c84828501614623565b91505092915050565b7f4e487b7100000000000000000000000000000000000000000000000000000000600052601160045260246000fd5b60008160011c9050919050565b6000808291508390505b60018511156146eb578086048111156146c7576146c6614665565b5b60018516156146d65780820291505b80810290506146e485614694565b94506146ab565b94509492505050565b60008261470457600190506147c0565b8161471257600090506147c0565b8160018114614728576002811461473257614761565b60019150506147c0565b60ff84111561474457614743614665565b5b8360020a91508482111561475b5761475a614665565b5b506147c0565b5060208310610133831016604e8410600b84101617156147965782820a90508381111561479157614790614665565b5b6147c0565b6147a384848460016146a1565b925090508184048111156147ba576147b9614665565b5b81810290505b9392505050565b60006147d282613f9c565b91506147dd8361420b565b925061480a7fffffffffffffffffffffffffffffffffffffffffffffffffffffffffffffffff84846146f4565b905092915050565b600061481d82613f9c565b915061482883613f9c565b925082820261483681613f9c565b9150828204841483151761484d5761484c614665565b5b5092915050565b7f736d616c6c206465706f73697400000000000000000000000000000000000000600082015250565b600061488a600d8361458b565b915061489582614854565b602082019050919050565b600060208201905081810360008301526148b98161487d565b9050919050565b7f696e76616c696420726566657272616c00000000000000000000000000000000600082015250565b60006148f660108361458b565b9150614901826148c0565b602082019050919050565b60006020820190508181036000830152614925816148e9565b9050919050565b600061493782613f9c565b915061494283613f9c565b925082820190508082111561495a57614959614665565b5b92915050565b600060608201905061497560008301866144d0565b61498260208301856144d0565b61498f60408301846144fa565b949350505050565b7f416363657373436f6e74726f6c3a2063616e206f6e6c792072656e6f756e636560008201527f20726f6c657320666f722073656c660000000000000000000000000000000000602082015250565b60006149f3602f8361458b565b91506149fe82614997565b604082019050919050565b60006020820190508181036000830152614a22816149e6565b9050919050565b7f6e6f207769746864726177207265717565737465640000000000000000000000600082015250565b6000614a5f60158361458b565b9150614a6a82614a29565b602082019050919050565b60006020820190508181036000830152614a8e81614a52565b9050919050565b7f7769746864726177206e6f7420706f737369626c652079657400000000000000600082015250565b6000614acb60198361458b565b9150614ad682614a95565b602082019050919050565b60006020820190508181036000830152614afa81614abe565b9050919050565b7f656d70747920636c61696d000000000000000000000000000000000000000000600082015250565b6000614b37600b8361458b565b9150614b4282614b01565b602082019050919050565b60006020820190508181036000830152614b6681614b2a565b9050919050565b7f757365722063616e6e6f7420636c61696d000000000000000000000000000000600082015250565b6000614ba360118361458b565b9150614bae82614b6d565b602082019050919050565b60006020820190508181036000830152614bd281614b96565b9050919050565b600081519050614be881613fa6565b92915050565b600060208284031215614c0457614c03613edc565b5b6000614c1284828501614bd9565b91505092915050565b7f70616e6461692062616c616e6365000000000000000000000000000000000000600082015250565b6000614c51600e8361458b565b9150614c5c82614c1b565b602082019050919050565b60006020820190508181036000830152614c8081614c44565b9050919050565b6000604082019050614c9c60008301856144d0565b614ca960208301846144d0565b9392505050565b7f70616e64616920616c6c6f77616e636500000000000000000000000000000000600082015250565b6000614ce660108361458b565b9150614cf182614cb0565b602082019050919050565b60006020820190508181036000830152614d1581614cd9565b9050919050565b7f4e487b7100000000000000000000000000000000000000000000000000000000600052602160045260246000fd5b60038110614d5c57614d5b614d1c565b5b50565b6000819050614d6d82614d4b565b919050565b6000614d7d82614d5f565b9050919050565b614d8d81614d72565b82525050565b6000604082019050614da86000830185614d84565b614db56020830184614d84565b9392505050565b7f656d707479206164647265737300000000000000000000000000000000000000600082015250565b6000614df2600d8361458b565b9150614dfd82614dbc565b602082019050919050565b60006020820190508181036000830152614e2181614de5565b9050919050565b7f6e6f207573647420696e206c7000000000000000000000000000000000000000600082015250565b6000614e5e600d8361458b565b9150614e6982614e28565b602082019050919050565b60006020820190508181036000830152614e8d81614e51565b9050919050565b7f6e6f2070616e64616920696e206c700000000000000000000000000000000000600082015250565b6000614eca600f8361458b565b9150614ed582614e94565b602082019050919050565b60006020820190508181036000830152614ef981614ebd565b9050919050565b7f776974686472617720626967676572207468616e206465706f73697400000000600082015250565b6000614f36601c8361458b565b9150614f4182614f00565b602082019050919050565b60006020820190508181036000830152614f6581614f29565b9050919050565b6000614f7782613f9c565b9150614f8283613f9c565b9250828203905081811115614f9a57614f99614665565b5b92915050565b7f736d616c6c206465706f7369742072656d61696e696e67000000000000000000600082015250565b6000614fd660178361458b565b9150614fe182614fa0565b602082019050919050565b6000602082019050818103600083015261500581614fc9565b9050919050565b7f696e76616c696420746965720000000000000000000000000000000000000000600082015250565b6000615042600c8361458b565b915061504d8261500c565b602082019050919050565b6000602082019050818103600083015261507181615035565b9050919050565b7f4e487b7100000000000000000000000000000000000000000000000000000000600052601260045260246000fd5b60006150b282613f9c565b91506150bd83613f9c565b9250826150cd576150cc615078565b5b828204905092915050565b7f5061757361626c653a2070617573656400000000000000000000000000000000600082015250565b600061510e60108361458b565b9150615119826150d8565b602082019050919050565b6000602082019050818103600083015261513d81615101565b9050919050565b600061514f8261420b565b91506000820361516257615161614665565b5b600182039050919050565b7f656d707479206c70000000000000000000000000000000000000000000000000600082015250565b60006151a360088361458b565b91506151ae8261516d565b602082019050919050565b600060208201905081810360008301526151d281615196565b9050919050565b600081905092915050565b7f416363657373436f6e74726f6c3a206163636f756e7420000000000000000000600082015250565b600061521a6017836151d9565b9150615225826151e4565b601782019050919050565b600081519050919050565b60005b8381101561525957808201518184015260208101905061523e565b60008484015250505050565b600061527082615230565b61527a81856151d9565b935061528a81856020860161523b565b80840191505092915050565b7f206973206d697373696e6720726f6c6520000000000000000000000000000000600082015250565b60006152cc6011836151d9565b91506152d782615296565b601182019050919050565b60006152ed8261520d565b91506152f98285615265565b9150615304826152bf565b91506153108284615265565b91508190509392505050565b6000601f19601f8301169050919050565b600061533882615230565b615342818561458b565b935061535281856020860161523b565b61535b8161531c565b840191505092915050565b60006020820190508181036000830152615380818461532d565b905092915050565b7f5061757361626c653a206e6f7420706175736564000000000000000000000000600082015250565b60006153be60148361458b565b91506153c982615388565b602082019050919050565b600060208201905081810360008301526153ed816153b1565b9050919050565b7f4e487b7100000000000000000000000000000000000000000000000000000000600052604160045260246000fd5b7f4e487b7100000000000000000000000000000000000000000000000000000000600052603260045260246000fd5b600061545d82613f9c565b9150600082036154705761546f614665565b5b600182039050919050565b7f537472696e67733a20686578206c656e67746820696e73756666696369656e74600082015250565b60006154b160208361458b565b91506154bc8261547b565b602082019050919050565b600060208201905081810360008301526154e0816154a4565b905091905056fea264697066735822122058a8058f3841d1a5ef40d4e820c85e17d7ffd6950e91db1c7410b20c276ce31064736f6c63430008130033",
  "immutableReferences": {},
  "source": "// SPDX-License-Identifier: MIT\npragma solidity ^0.8.9;\n\nimport \"@openzeppelin/contracts/token/ERC20/IERC20.sol\";\nimport \"@openzeppelin/contracts/access/AccessControl.sol\";\nimport \"@openzeppelin/contracts/security/Pausable.sol\"; \n\ninterface IERC20Extended is IERC20 {\n  function decimals() external view returns (uint8);\n}\n\ninterface IERC20Burnable is IERC20Extended {\n  function burnFrom(address account, uint amount) external;\n}\n\ncontract PandAIEarn is AccessControl, Pausable {\n\n  IERC20Extended private usdtToken;\n  IERC20Burnable private pandaiToken;\n  \n  address private lpAddress;\n\n  bytes32 public constant UPDATER_ROLE = keccak256(\"UPDATER_ROLE\");\n  address private constant DEFAULT_REFERRAL = 0xEe9Aa828fF4cBF294063168E78BEB7BcF441fEa1;\n\n  uint private constant BASE_PERIOD = 1 days;                        // base period for time (mainnet: 1 day, devnet: minutes)\n  uint private constant WITHDRAW_PROCESSING_TIME = 14 * BASE_PERIOD; // user requests withdrawal -> 14 days waiting -> withdrawal can be executed\n  uint private constant INTEREST_PERIOD = 30 * BASE_PERIOD;          // period for Tier.monthlyGainBps\n  uint private constant DAILY_CLAIM_LIMIT = 1000;                    // daily claim limit of USDT for NotApproved users\n  uint private constant MIRIAD = 10000;                              // helper for divisor\n  uint private constant REFERRAL_MONTHLY_GAIN_BPS = 20;              // 0.2% reward for referrals\n  uint private constant REFERRAL_CLAIM_FEE_BPS = 1000;               // 10% referral claim fee\n  \n  /**\n    0: NotApproved (daily claim limit of $1000)\n    1: Approved (no daily limit)\n    2: Forbidden (claim forbidden)\n  */\n  enum ApprovalLevel{ NotApproved, Approved, Forbidden }\n\n  mapping(uint8 => Tier) private tierMap;\n  struct Tier {\n    uint minDeposit;\n    bool compoundInterest;     \n    \n    uint monthlyGainBps;\n    uint claimFeeBps;\n\n    uint lockupSeconds;\n    uint lockupBreachFeeBps;\n  }\n\n  mapping(address => User) private userMap;\n  struct User {\n    address referral;                  // referral address for this account\n    uint8 approvalLevel;               // approval level of this user (from ApprovalLevel enum)\n    \n    uint deposit;                      // usdt deposit of given user\n    uint lastDepositTimestamp;         // last time of usdt deposit\n    \n    uint withdrawRequestAmount;        // usdt user request to withdraw\n    uint withdrawPossibleTimestamp;    // time when the withdraw of requested amount can be done\n    \n    uint dailyClaim;                   // usdt user claimed today\n    uint totalClaim;                   // usdt user claimed in total\n    uint lastClaimTimestamp;           // last time when user called claim\n\n    uint referralDeposit;              // sum of usdt deposits of users bellow this user (in referral program)\n    uint referralPendingReward;        // pending referral reward (calculated in referralLastUpdateTimestamp)\n    uint referralLastUpdateTimestamp;  // time when referalPendingReward was updated\n  }\n\n  struct UserCalculated {\n    uint8 tier;\n\n    uint userPendingReward;\n    uint userPendingPandaiBurn;\n\n    uint referralPendingReward;\n    uint referralPendingPandaiBurn;\n\n    uint depositUnlockTimestamp;\n  }\n\n  event TreasuryWithdraw(uint usdtAmount);\n  event TreasuryDeposit(uint usdtAmount);\n  event LpAddressChanged(address indexed previousLp, address indexed newLp);\n  event ApprovalLevelChanged(address indexed userAddress, ApprovalLevel previousApprovalLevel, ApprovalLevel newApprovalLevel);\n\n  event UserDeposited(address indexed userAddress, uint usdtAmount);\n  event UserRequestedWithdraw(address indexed userAddress, uint usdtAmount);\n  event UserWithdrew(address indexed userAddress, uint usdtAmount);\n\n  event PandaiBurnedForUserRewardClaim(address indexed userAddress, uint pandaiAmount);\n  event PandaiBurnedForReferralRewardClaim(address indexed userAddress, uint pandaiAmount);\n  event PandaiBurnedForWithdrawFee(address indexed userAddress, uint pandaiAmount);\n  \n  event UserRewardClaimed(address indexed userAddress, uint usdtAmount);\n  event ReferralRewardClaimed(address indexed userAddress, uint usdtAmount);\n\n  constructor(address usdtTokenAddress, address pandaiTokenAddress) {\n    usdtToken = IERC20Extended(usdtTokenAddress);\n    pandaiToken = IERC20Burnable(pandaiTokenAddress);\n\n    tierMap[1] = Tier(  100, false, 100, 1000,   7 * BASE_PERIOD, 4000);\n    tierMap[2] = Tier(  500, false, 125,  900,  30 * BASE_PERIOD, 3500);\n    tierMap[3] = Tier( 1000, false, 150,  800,  60 * BASE_PERIOD, 3000);\n    tierMap[4] = Tier( 5000,  true, 180,  650,  90 * BASE_PERIOD, 2500);\n    tierMap[5] = Tier(10000,  true, 220,  500, 180 * BASE_PERIOD, 2000);\n\n    _grantRole(DEFAULT_ADMIN_ROLE, msg.sender);\n  }\n \n  /**\n    returns info about given user. Returns stored values (stored in mapping) and calculated values (contract calculates them from stored values)\n  */\n  function getUser(address userAddress) external view returns (User memory stored, UserCalculated memory calculated) {    \n    require(userAddress != address(0), \"empty address\");    \n\n    uint8 tier = getUserTier(userAddress);\n    uint userReward = getUserReward(userAddress, tier);\n    uint referralReward = userMap[userAddress].referralPendingReward + getNewReferralReward(userAddress);\n    return (\n      userMap[userAddress],\n      UserCalculated(\n        tier,\n        userReward,\n        getUserRewardClaimFeePandai(userReward, tier),\n        referralReward,\n        getReferralRewardClaimFeePandai(referralReward),\n        getDepositUnlokTimestamp(userAddress, tier)\n      )\n    );\n  }\n\n  /**\n    returns info about given tier.\n  */\n  function getTier(uint8 tier) external view returns (Tier memory) {\n    require(tier >= 1 && tier <= 5, \"invalid tier\");\n    return tierMap[tier];\n  }\n\n  /**\n    returns address of liquidty pool that swaps USDT and PANDAI. Used to define PANDAI price in USDT.\n  */\n  function getLpAddress() external view returns (address) {\n    return lpAddress;\n  }\n\n  /**\n    paused contract prohibits deposits\n  */\n  function pause() external onlyRole(DEFAULT_ADMIN_ROLE) {\n    _pause();\n  }\n\n  /**\n    unpauses paused contract\n  */\n  function unpause() external onlyRole(DEFAULT_ADMIN_ROLE) {\n    _unpause();\n  }\n\n  /**\n    sets address for liquidity pool\n  */\n  function setLpAddress(address newLpAddress) external onlyRole(DEFAULT_ADMIN_ROLE) {\n    require(newLpAddress != address(0), \"empty address\");\n    require(usdtToken.balanceOf(newLpAddress) > 0, \"no usdt in lp\");\n    require(pandaiToken.balanceOf(newLpAddress) > 0, \"no pandai in lp\");\n    \n    address oldLpAddress = newLpAddress;\n    lpAddress = newLpAddress;\n    emit LpAddressChanged(oldLpAddress, newLpAddress);\n  }\n\n  /**\n    withdraws USDT from contract\n  */\n  function withdrawTreasury(uint usdtAmount) external onlyRole(DEFAULT_ADMIN_ROLE) {\n    require(usdtToken.transfer(msg.sender, usdtAmount), \"usdt transfer\");\n    emit TreasuryWithdraw(usdtAmount);\n  }\n\n  /**\n    deposits USDT from contract. USDT can be sent in ordinary transaction, this event is helpful to use as it produces event.\n  */\n  function depositTreasury(uint usdtAmount) external onlyRole(DEFAULT_ADMIN_ROLE) {\n    require(usdtToken.transferFrom(msg.sender, address(this), usdtAmount), \"usdt transfer\");\n    emit TreasuryDeposit(usdtAmount);\n  }\n\n  /**\n    sets ApprovalLevel of given address. \n  */\n  function setUserApprovalLevel(address userAddress, ApprovalLevel newApprovalLevel) external onlyRole(UPDATER_ROLE) {\n    ApprovalLevel oldApprovalLevel = ApprovalLevel(userMap[userAddress].approvalLevel);\n    userMap[userAddress].approvalLevel = uint8(newApprovalLevel);\n    emit ApprovalLevelChanged(userAddress, oldApprovalLevel, newApprovalLevel);\n  }\n\n  /**\n    deposits USDT, default referral is used\n  */\n  function deposit(uint usdtDepositAmount) external {\n    depositWithReferral(usdtDepositAmount, DEFAULT_REFERRAL);\n  }\n\n  /**\n    deposits USDT, referralAddress is used only if no referral is set for address making deposit (the first deposit of the address).\n    If there's a pending user reward, the reward is lost because this method restarts User.lastClaimTimestamp and makes no claim.\n    It's recommended to call claim() before this method.\n  */\n  function depositWithReferral(uint usdtDepositAmount, address referralAddress) public whenNotPaused {\n    require(usdtDepositAmount >= tierMap[1].minDeposit * (10 ** usdtToken.decimals()), \"small deposit\");\n    require(referralAddress != address(0), \"invalid referral\");\n    require(referralAddress != msg.sender, \"invalid referral\");\n\n    // assign referral\n    if (userMap[msg.sender].referral == address(0)) {\n      userMap[msg.sender].referral = referralAddress;\n    }\n\n    // update user\n    userMap[msg.sender].deposit += usdtDepositAmount;\n    userMap[msg.sender].lastDepositTimestamp = block.timestamp;\n    userMap[msg.sender].lastClaimTimestamp = block.timestamp;\n    \n    // update referral\n    uint newReferralReward = getNewReferralReward(userMap[msg.sender].referral);\n    userMap[userMap[msg.sender].referral].referralDeposit += usdtDepositAmount;\n    userMap[userMap[msg.sender].referral].referralPendingReward += newReferralReward;\n    userMap[userMap[msg.sender].referral].referralLastUpdateTimestamp = block.timestamp;\n    \n    // transfer USDT\n    require(usdtToken.transferFrom(msg.sender, address(this), usdtDepositAmount), \"usdt transfer\");\n    emit UserDeposited(msg.sender, usdtDepositAmount);\n  }\n\n  /**\n    requests USDT withdraw. USDTs will be available for withdraw (other method) after WITHDRAW_PROCESSING_TIME.\n    If there's a pending user reward, the reward will be partialy lost because this method decresese deposit and performs no claim.\n    It's recommended to call claim() before this method.\n    In case there's already a withdraw pending, it's increased by usdtWithdrawAmount and WITHDRAW_PROCESSING_TIME is reset.\n  */\n  function requestWithdraw(uint usdtWithdrawAmount) external {\n    require(usdtWithdrawAmount <= userMap[msg.sender].deposit, \"withdraw bigger than deposit\");\n    if (usdtWithdrawAmount < userMap[msg.sender].deposit) {\n      require(userMap[msg.sender].deposit - usdtWithdrawAmount >= tierMap[1].minDeposit * (10 ** usdtToken.decimals()), \"small deposit remaining\");\n    }\n\n    uint8 tier = getUserTier(msg.sender);\n    require(tier > 0, \"invalid tier\");\n\n    // if withdraw is called before lockup, there's a fee paid in PANDAI\n    uint withdrawFeePandai;\n    if (getDepositUnlokTimestamp(msg.sender, tier) > block.timestamp) {\n      withdrawFeePandai = getPandaiWorthOf(usdtWithdrawAmount * tierMap[tier].lockupBreachFeeBps / MIRIAD);\n\n      require(pandaiToken.balanceOf(msg.sender) >= withdrawFeePandai, \"pandai balance\");\n      require(pandaiToken.allowance(msg.sender, address(this)) >= withdrawFeePandai, \"pandai allowance\");\n    }\n\n    // update user\n    userMap[msg.sender].deposit -= usdtWithdrawAmount;\n    userMap[msg.sender].withdrawRequestAmount += usdtWithdrawAmount;\n    userMap[msg.sender].withdrawPossibleTimestamp = block.timestamp + WITHDRAW_PROCESSING_TIME;\n    \n    // update referral\n    uint newReferralReward = getNewReferralReward(userMap[msg.sender].referral);\n    if (userMap[userMap[msg.sender].referral].referralDeposit >= usdtWithdrawAmount) {\n      userMap[userMap[msg.sender].referral].referralDeposit -= usdtWithdrawAmount;\n    } else {\n      userMap[userMap[msg.sender].referral].referralDeposit = 0;\n    }\n    userMap[userMap[msg.sender].referral].referralPendingReward += newReferralReward;\n    userMap[userMap[msg.sender].referral].referralLastUpdateTimestamp = block.timestamp;\n\n    // if needed, burn PANDAI\n    if (withdrawFeePandai > 0) {\n      pandaiToken.burnFrom(msg.sender, withdrawFeePandai);\n      emit PandaiBurnedForWithdrawFee(msg.sender, withdrawFeePandai);\n    }\n    emit UserRequestedWithdraw(msg.sender, usdtWithdrawAmount);\n  }\n\n  /**\n    withdraws requested amount of USDT\n  */\n  function withdraw() external {\n    require(userMap[msg.sender].withdrawRequestAmount > 0, \"no withdraw requested\");\n    require(userMap[msg.sender].withdrawPossibleTimestamp <= block.timestamp, \"withdraw not possible yet\");\n\n    // update user\n    uint usdtWithdrawAmount = userMap[msg.sender].withdrawRequestAmount;\n    userMap[msg.sender].withdrawRequestAmount = 0;\n    userMap[msg.sender].withdrawPossibleTimestamp = 0;\n\n    // transfer USDT\n    require(usdtToken.transfer(msg.sender, usdtWithdrawAmount), \"usdt transfer\");\n    emit UserWithdrew(msg.sender, usdtWithdrawAmount);\n  }\n\n  /**\n    claims user reward (derived from it's own deposit) and\n    referral reward (derived from deposits of users with referral being the caller)\n  */\n  function claim() external {\n    uint8 tier = getUserTier(msg.sender);\n    uint userClaimUsdt = getUserReward(msg.sender, tier);\n    uint referralClaimUsdt = userMap[msg.sender].referralPendingReward + getNewReferralReward(msg.sender);\n    require(userClaimUsdt + referralClaimUsdt > 0, \"empty claim\");\n    require(canClaim(msg.sender, userClaimUsdt + referralClaimUsdt), \"user cannot claim\");\n    \n    uint userClaimFeePandai = getUserRewardClaimFeePandai(userClaimUsdt, tier);\n    uint referralClaimFeePandai = getReferralRewardClaimFeePandai(referralClaimUsdt);\n    require(pandaiToken.balanceOf(msg.sender) >= userClaimFeePandai + referralClaimFeePandai, \"pandai balance\");\n    require(pandaiToken.allowance(msg.sender, address(this)) >= userClaimFeePandai + referralClaimFeePandai, \"pandai allowance\");\n\n    // update user\n    if (isToday(userMap[msg.sender].lastClaimTimestamp)) {\n      userMap[msg.sender].dailyClaim += userClaimUsdt + referralClaimUsdt;\n    } else {\n      userMap[msg.sender].dailyClaim = userClaimUsdt + referralClaimUsdt;\n    }\n    userMap[msg.sender].totalClaim += userClaimUsdt + referralClaimUsdt;\n    userMap[msg.sender].lastClaimTimestamp = block.timestamp;\n\n    // update referral\n    userMap[msg.sender].referralPendingReward = 0;\n    userMap[msg.sender].referralLastUpdateTimestamp = block.timestamp;\n\n    // transfer USDT, burn PANDAI\n    require(usdtToken.transfer(msg.sender, userClaimUsdt + referralClaimUsdt), \"usdt transfer\");\n    pandaiToken.burnFrom(msg.sender, userClaimFeePandai + referralClaimFeePandai);\n    if (userClaimUsdt > 0) {\n      emit UserRewardClaimed(msg.sender, userClaimUsdt);\n      emit PandaiBurnedForUserRewardClaim(msg.sender, userClaimFeePandai);\n    }\n    if (referralClaimUsdt > 0) {\n      emit ReferralRewardClaimed(msg.sender, referralClaimUsdt);\n      emit PandaiBurnedForReferralRewardClaim(msg.sender, referralClaimFeePandai);\n    }\n  }\n\n  /**\n    checks whether given user is able claiming given amount of usdt. Depends on user approvalLevel and his dailyClaim\n  */\n  function canClaim(address userAddress, uint claimUsdt) private view returns (bool) {\n    ApprovalLevel approvalLevel = ApprovalLevel(userMap[userAddress].approvalLevel);\n    if (approvalLevel == ApprovalLevel.Approved) {\n      return true;\n    } else if (approvalLevel == ApprovalLevel.Forbidden) {\n      return false;\n    }\n    if (isToday(userMap[userAddress].lastClaimTimestamp)) {\n      claimUsdt += userMap[userAddress].dailyClaim;\n    }\n    return claimUsdt / (10 ** usdtToken.decimals()) < DAILY_CLAIM_LIMIT;\n  }\n\n  /**\n    simple check whether given timestamp falls into same day\n  */\n  function isToday(uint timestamp) private view returns (bool) {\n    return block.timestamp / BASE_PERIOD == timestamp / BASE_PERIOD;\n  }\n\n  /**\n    converts USDT into pandai according to current price in the liquity pool\n  */\n  function getPandaiWorthOf(uint usdtAmount) private view returns (uint) {\n    if (usdtAmount == 0) {\n      return 0;\n    }\n    uint usdtInLp = usdtToken.balanceOf(lpAddress);\n    uint pandaiInLp = pandaiToken.balanceOf(lpAddress);\n    require (usdtInLp * pandaiInLp > 0, \"empty lp\");\n\n    return usdtAmount * pandaiInLp / usdtInLp;\n  }\n\n  /**\n    gets user tier from his deposit\n  */\n  function getUserTier(address userAddress) private view returns (uint8) {\n    uint userDeposit = userMap[userAddress].deposit / (10 ** usdtToken.decimals());\n    for (uint8 i = 5; i >= 1; i--) {\n      if (userDeposit >= tierMap[i].minDeposit) {\n        return i;\n      }\n    }\n    return 0;\n  }\n\n  /**\n    claculates user reward that follows eiterh simple or compounc interest. \n    In case of compound iterest, the calculatio follows taylor series for exponential\n  */\n  function getUserReward(address userAddress, uint8 userTier) private view returns (uint) {\n    if (userTier == 0) {\n      return 0;\n    }\n    uint g = tierMap[userTier].monthlyGainBps;\n    uint t = block.timestamp - userMap[userAddress].lastClaimTimestamp;\n    uint f1 = userMap[userAddress].deposit * g * t / MIRIAD / INTEREST_PERIOD;\n    if (!tierMap[userTier].compoundInterest) {\n      return f1;\n    }\n    uint f2 = f1 * g * t / MIRIAD / INTEREST_PERIOD / 2;\n    uint f3 = f2 * g * t / MIRIAD / INTEREST_PERIOD / 3;\n    return f1 + f2 + f3;\n  }\n\n  /**\n    how much PANDAI user in given tier should burn when claiming given user reward\n  */\n  function getUserRewardClaimFeePandai(uint userRewardUsdt, uint8 userTier) private view returns (uint) {\n    if (userTier == 0) {\n      return 0;\n    }\n    return getPandaiWorthOf(userRewardUsdt * tierMap[userTier].claimFeeBps / MIRIAD);\n  }\n\n  /**\n    calculates referral reward from time when the reward has been updated the last\n  */\n  function getNewReferralReward(address userAddress) private view returns (uint) {\n    uint t = block.timestamp - userMap[userAddress].referralLastUpdateTimestamp;\n    return userMap[userAddress].referralDeposit * REFERRAL_MONTHLY_GAIN_BPS * t / MIRIAD / INTEREST_PERIOD;\n  }\n\n  /**\n    how much PANDAI user should burn when claiming given referral reward \n  */\n  function getReferralRewardClaimFeePandai(uint referralRewardUsdt) private view returns (uint) {\n    return getPandaiWorthOf(referralRewardUsdt * REFERRAL_CLAIM_FEE_BPS / MIRIAD);\n  }\n\n  /**\n    timestamp when it's no longer required to burn PANDAI when requesting withdraw\n  */\n  function getDepositUnlokTimestamp(address userAddress, uint8 userTier) private view returns (uint) {\n    if (userTier == 0) {\n      return 0;\n    }\n    return userMap[userAddress].lastDepositTimestamp + tierMap[userTier].lockupSeconds;\n  }\n\n}\n",
  "sourcePath": "/Users/jlochman/Documents/PandAI/Earn SC/contracts/PandAIEarn.sol",
  "compiler": {
    "name": "solc",
    "version": "0.8.19+commit.7dd6d404.Emscripten.clang"
  },
  "schemaVersion": "3.4.13",
  "updatedAt": "2023-04-12T13:07:17.790Z",
  "devdoc": {
    "events": {
      "Paused(address)": {
        "details": "Emitted when the pause is triggered by `account`."
      },
      "RoleAdminChanged(bytes32,bytes32,bytes32)": {
        "details": "Emitted when `newAdminRole` is set as ``role``'s admin role, replacing `previousAdminRole` `DEFAULT_ADMIN_ROLE` is the starting admin for all roles, despite {RoleAdminChanged} not being emitted signaling this. _Available since v3.1._"
      },
      "RoleGranted(bytes32,address,address)": {
        "details": "Emitted when `account` is granted `role`. `sender` is the account that originated the contract call, an admin role bearer except when using {AccessControl-_setupRole}."
      },
      "RoleRevoked(bytes32,address,address)": {
        "details": "Emitted when `account` is revoked `role`. `sender` is the account that originated the contract call:   - if using `revokeRole`, it is the admin role bearer   - if using `renounceRole`, it is the role bearer (i.e. `account`)"
      },
      "Unpaused(address)": {
        "details": "Emitted when the pause is lifted by `account`."
      }
    },
    "kind": "dev",
    "methods": {
      "getRoleAdmin(bytes32)": {
        "details": "Returns the admin role that controls `role`. See {grantRole} and {revokeRole}. To change a role's admin, use {_setRoleAdmin}."
      },
      "grantRole(bytes32,address)": {
        "details": "Grants `role` to `account`. If `account` had not been already granted `role`, emits a {RoleGranted} event. Requirements: - the caller must have ``role``'s admin role. May emit a {RoleGranted} event."
      },
      "hasRole(bytes32,address)": {
        "details": "Returns `true` if `account` has been granted `role`."
      },
      "paused()": {
        "details": "Returns true if the contract is paused, and false otherwise."
      },
      "renounceRole(bytes32,address)": {
        "details": "Revokes `role` from the calling account. Roles are often managed via {grantRole} and {revokeRole}: this function's purpose is to provide a mechanism for accounts to lose their privileges if they are compromised (such as when a trusted device is misplaced). If the calling account had been revoked `role`, emits a {RoleRevoked} event. Requirements: - the caller must be `account`. May emit a {RoleRevoked} event."
      },
      "revokeRole(bytes32,address)": {
        "details": "Revokes `role` from `account`. If `account` had been granted `role`, emits a {RoleRevoked} event. Requirements: - the caller must have ``role``'s admin role. May emit a {RoleRevoked} event."
      },
      "supportsInterface(bytes4)": {
        "details": "See {IERC165-supportsInterface}."
      }
    },
    "version": 1
  },
  "userdoc": {
    "kind": "user",
    "methods": {
      "claim()": {
        "notice": "claims user reward (derived from it's own deposit) and referral reward (derived from deposits of users with referral being the caller)"
      },
      "deposit(uint256)": {
        "notice": "deposits USDT, default referral is used"
      },
      "depositTreasury(uint256)": {
        "notice": "deposits USDT from contract. USDT can be sent in ordinary transaction, this event is helpful to use as it produces event."
      },
      "depositWithReferral(uint256,address)": {
        "notice": "deposits USDT, referralAddress is used only if no referral is set for address making deposit (the first deposit of the address). If there's a pending user reward, the reward is lost because this method restarts User.lastClaimTimestamp and makes no claim. It's recommended to call claim() before this method."
      },
      "getLpAddress()": {
        "notice": "returns address of liquidty pool that swaps USDT and PANDAI. Used to define PANDAI price in USDT."
      },
      "getTier(uint8)": {
        "notice": "returns info about given tier."
      },
      "getUser(address)": {
        "notice": "returns info about given user. Returns stored values (stored in mapping) and calculated values (contract calculates them from stored values)"
      },
      "pause()": {
        "notice": "paused contract prohibits deposits"
      },
      "requestWithdraw(uint256)": {
        "notice": "requests USDT withdraw. USDTs will be available for withdraw (other method) after WITHDRAW_PROCESSING_TIME. If there's a pending user reward, the reward will be partialy lost because this method decresese deposit and performs no claim. It's recommended to call claim() before this method. In case there's already a withdraw pending, it's increased by usdtWithdrawAmount and WITHDRAW_PROCESSING_TIME is reset."
      },
      "setLpAddress(address)": {
        "notice": "sets address for liquidity pool"
      },
      "setUserApprovalLevel(address,uint8)": {
        "notice": "sets ApprovalLevel of given address. "
      },
      "unpause()": {
        "notice": "unpauses paused contract"
      },
      "withdraw()": {
        "notice": "withdraws requested amount of USDT"
      },
      "withdrawTreasury(uint256)": {
        "notice": "withdraws USDT from contract"
      }
    },
    "version": 1
  }
}