{
  "contractName": "PandAIEarnV1",
  "abi": [
    {
      "inputs": [
        {
          "internalType": "address",
          "name": "usdtTokenAddress",
          "type": "address"
        },
        {
          "internalType": "address",
          "name": "pandaiTokenAddress",
          "type": "address"
        }
      ],
      "stateMutability": "nonpayable",
      "type": "constructor"
    },
    {
      "anonymous": false,
      "inputs": [
        {
          "indexed": true,
          "internalType": "address",
          "name": "userAddress",
          "type": "address"
        },
        {
          "indexed": false,
          "internalType": "enum PandAIEarnV1.ApprovalLevel",
          "name": "previousApprovalLevel",
          "type": "uint8"
        },
        {
          "indexed": false,
          "internalType": "enum PandAIEarnV1.ApprovalLevel",
          "name": "newApprovalLevel",
          "type": "uint8"
        }
      ],
      "name": "ApprovalLevelChanged",
      "type": "event"
    },
    {
      "anonymous": false,
      "inputs": [
        {
          "indexed": true,
          "internalType": "address",
          "name": "previousLp",
          "type": "address"
        },
        {
          "indexed": true,
          "internalType": "address",
          "name": "newLp",
          "type": "address"
        }
      ],
      "name": "LpAddressChanged",
      "type": "event"
    },
    {
      "anonymous": false,
      "inputs": [
        {
          "indexed": true,
          "internalType": "address",
          "name": "userAddress",
          "type": "address"
        },
        {
          "indexed": false,
          "internalType": "uint256",
          "name": "pandaiAmount",
          "type": "uint256"
        }
      ],
      "name": "PandaiBurnedForReferralRewardClaim",
      "type": "event"
    },
    {
      "anonymous": false,
      "inputs": [
        {
          "indexed": true,
          "internalType": "address",
          "name": "userAddress",
          "type": "address"
        },
        {
          "indexed": false,
          "internalType": "uint256",
          "name": "pandaiAmount",
          "type": "uint256"
        }
      ],
      "name": "PandaiBurnedForUserRewardClaim",
      "type": "event"
    },
    {
      "anonymous": false,
      "inputs": [
        {
          "indexed": true,
          "internalType": "address",
          "name": "userAddress",
          "type": "address"
        },
        {
          "indexed": false,
          "internalType": "uint256",
          "name": "pandaiAmount",
          "type": "uint256"
        }
      ],
      "name": "PandaiBurnedForWithdrawFee",
      "type": "event"
    },
    {
      "anonymous": false,
      "inputs": [
        {
          "indexed": false,
          "internalType": "address",
          "name": "account",
          "type": "address"
        }
      ],
      "name": "Paused",
      "type": "event"
    },
    {
      "anonymous": false,
      "inputs": [
        {
          "indexed": true,
          "internalType": "address",
          "name": "userAddress",
          "type": "address"
        },
        {
          "indexed": false,
          "internalType": "uint256",
          "name": "usdtAmount",
          "type": "uint256"
        }
      ],
      "name": "ReferralRewardClaimed",
      "type": "event"
    },
    {
      "anonymous": false,
      "inputs": [
        {
          "indexed": true,
          "internalType": "bytes32",
          "name": "role",
          "type": "bytes32"
        },
        {
          "indexed": true,
          "internalType": "bytes32",
          "name": "previousAdminRole",
          "type": "bytes32"
        },
        {
          "indexed": true,
          "internalType": "bytes32",
          "name": "newAdminRole",
          "type": "bytes32"
        }
      ],
      "name": "RoleAdminChanged",
      "type": "event"
    },
    {
      "anonymous": false,
      "inputs": [
        {
          "indexed": true,
          "internalType": "bytes32",
          "name": "role",
          "type": "bytes32"
        },
        {
          "indexed": true,
          "internalType": "address",
          "name": "account",
          "type": "address"
        },
        {
          "indexed": true,
          "internalType": "address",
          "name": "sender",
          "type": "address"
        }
      ],
      "name": "RoleGranted",
      "type": "event"
    },
    {
      "anonymous": false,
      "inputs": [
        {
          "indexed": true,
          "internalType": "bytes32",
          "name": "role",
          "type": "bytes32"
        },
        {
          "indexed": true,
          "internalType": "address",
          "name": "account",
          "type": "address"
        },
        {
          "indexed": true,
          "internalType": "address",
          "name": "sender",
          "type": "address"
        }
      ],
      "name": "RoleRevoked",
      "type": "event"
    },
    {
      "anonymous": false,
      "inputs": [
        {
          "indexed": false,
          "internalType": "uint256",
          "name": "usdtAmount",
          "type": "uint256"
        }
      ],
      "name": "TreasuryDeposit",
      "type": "event"
    },
    {
      "anonymous": false,
      "inputs": [
        {
          "indexed": false,
          "internalType": "uint256",
          "name": "usdtAmount",
          "type": "uint256"
        }
      ],
      "name": "TreasuryWithdraw",
      "type": "event"
    },
    {
      "anonymous": false,
      "inputs": [
        {
          "indexed": false,
          "internalType": "address",
          "name": "account",
          "type": "address"
        }
      ],
      "name": "Unpaused",
      "type": "event"
    },
    {
      "anonymous": false,
      "inputs": [
        {
          "indexed": true,
          "internalType": "address",
          "name": "userAddress",
          "type": "address"
        },
        {
          "indexed": false,
          "internalType": "uint256",
          "name": "usdtAmount",
          "type": "uint256"
        }
      ],
      "name": "UserDeposited",
      "type": "event"
    },
    {
      "anonymous": false,
      "inputs": [
        {
          "indexed": true,
          "internalType": "address",
          "name": "userAddress",
          "type": "address"
        },
        {
          "indexed": false,
          "internalType": "uint256",
          "name": "usdtAmount",
          "type": "uint256"
        }
      ],
      "name": "UserRequestedWithdraw",
      "type": "event"
    },
    {
      "anonymous": false,
      "inputs": [
        {
          "indexed": true,
          "internalType": "address",
          "name": "userAddress",
          "type": "address"
        },
        {
          "indexed": false,
          "internalType": "uint256",
          "name": "usdtAmount",
          "type": "uint256"
        }
      ],
      "name": "UserRewardClaimed",
      "type": "event"
    },
    {
      "anonymous": false,
      "inputs": [
        {
          "indexed": true,
          "internalType": "address",
          "name": "userAddress",
          "type": "address"
        },
        {
          "indexed": false,
          "internalType": "uint256",
          "name": "usdtAmount",
          "type": "uint256"
        }
      ],
      "name": "UserWithdrew",
      "type": "event"
    },
    {
      "inputs": [],
      "name": "DEFAULT_ADMIN_ROLE",
      "outputs": [
        {
          "internalType": "bytes32",
          "name": "",
          "type": "bytes32"
        }
      ],
      "stateMutability": "view",
      "type": "function"
    },
    {
      "inputs": [],
      "name": "UPDATER_ROLE",
      "outputs": [
        {
          "internalType": "bytes32",
          "name": "",
          "type": "bytes32"
        }
      ],
      "stateMutability": "view",
      "type": "function"
    },
    {
      "inputs": [
        {
          "internalType": "bytes32",
          "name": "role",
          "type": "bytes32"
        }
      ],
      "name": "getRoleAdmin",
      "outputs": [
        {
          "internalType": "bytes32",
          "name": "",
          "type": "bytes32"
        }
      ],
      "stateMutability": "view",
      "type": "function"
    },
    {
      "inputs": [
        {
          "internalType": "bytes32",
          "name": "role",
          "type": "bytes32"
        },
        {
          "internalType": "address",
          "name": "account",
          "type": "address"
        }
      ],
      "name": "grantRole",
      "outputs": [],
      "stateMutability": "nonpayable",
      "type": "function"
    },
    {
      "inputs": [
        {
          "internalType": "bytes32",
          "name": "role",
          "type": "bytes32"
        },
        {
          "internalType": "address",
          "name": "account",
          "type": "address"
        }
      ],
      "name": "hasRole",
      "outputs": [
        {
          "internalType": "bool",
          "name": "",
          "type": "bool"
        }
      ],
      "stateMutability": "view",
      "type": "function"
    },
    {
      "inputs": [],
      "name": "paused",
      "outputs": [
        {
          "internalType": "bool",
          "name": "",
          "type": "bool"
        }
      ],
      "stateMutability": "view",
      "type": "function"
    },
    {
      "inputs": [
        {
          "internalType": "bytes32",
          "name": "role",
          "type": "bytes32"
        },
        {
          "internalType": "address",
          "name": "account",
          "type": "address"
        }
      ],
      "name": "renounceRole",
      "outputs": [],
      "stateMutability": "nonpayable",
      "type": "function"
    },
    {
      "inputs": [
        {
          "internalType": "bytes32",
          "name": "role",
          "type": "bytes32"
        },
        {
          "internalType": "address",
          "name": "account",
          "type": "address"
        }
      ],
      "name": "revokeRole",
      "outputs": [],
      "stateMutability": "nonpayable",
      "type": "function"
    },
    {
      "inputs": [
        {
          "internalType": "bytes4",
          "name": "interfaceId",
          "type": "bytes4"
        }
      ],
      "name": "supportsInterface",
      "outputs": [
        {
          "internalType": "bool",
          "name": "",
          "type": "bool"
        }
      ],
      "stateMutability": "view",
      "type": "function"
    },
    {
      "inputs": [
        {
          "internalType": "address",
          "name": "userAddress",
          "type": "address"
        }
      ],
      "name": "getUser",
      "outputs": [
        {
          "components": [
            {
              "internalType": "address",
              "name": "referral",
              "type": "address"
            },
            {
              "internalType": "uint8",
              "name": "approvalLevel",
              "type": "uint8"
            },
            {
              "internalType": "uint256",
              "name": "deposit",
              "type": "uint256"
            },
            {
              "internalType": "uint256",
              "name": "lastDepositTimestamp",
              "type": "uint256"
            },
            {
              "internalType": "uint256",
              "name": "withdrawRequestAmount",
              "type": "uint256"
            },
            {
              "internalType": "uint256",
              "name": "withdrawPossibleTimestamp",
              "type": "uint256"
            },
            {
              "internalType": "uint256",
              "name": "dailyClaim",
              "type": "uint256"
            },
            {
              "internalType": "uint256",
              "name": "totalClaim",
              "type": "uint256"
            },
            {
              "internalType": "uint256",
              "name": "lastClaimTimestamp",
              "type": "uint256"
            },
            {
              "internalType": "uint256",
              "name": "userPendingReward",
              "type": "uint256"
            },
            {
              "internalType": "uint256",
              "name": "referralDeposit",
              "type": "uint256"
            },
            {
              "internalType": "uint256",
              "name": "referralPendingReward",
              "type": "uint256"
            },
            {
              "internalType": "uint256",
              "name": "referralLastUpdateTimestamp",
              "type": "uint256"
            }
          ],
          "internalType": "struct PandAIEarnV1.User",
          "name": "stored",
          "type": "tuple"
        },
        {
          "components": [
            {
              "internalType": "uint8",
              "name": "tier",
              "type": "uint8"
            },
            {
              "internalType": "uint256",
              "name": "userPendingReward",
              "type": "uint256"
            },
            {
              "internalType": "uint256",
              "name": "userPendingPandaiBurn",
              "type": "uint256"
            },
            {
              "internalType": "uint256",
              "name": "referralPendingReward",
              "type": "uint256"
            },
            {
              "internalType": "uint256",
              "name": "referralPendingPandaiBurn",
              "type": "uint256"
            },
            {
              "internalType": "uint256",
              "name": "depositUnlockTimestamp",
              "type": "uint256"
            }
          ],
          "internalType": "struct PandAIEarnV1.UserCalculated",
          "name": "calculated",
          "type": "tuple"
        }
      ],
      "stateMutability": "view",
      "type": "function"
    },
    {
      "inputs": [
        {
          "internalType": "uint8",
          "name": "tier",
          "type": "uint8"
        }
      ],
      "name": "getTier",
      "outputs": [
        {
          "components": [
            {
              "internalType": "uint16",
              "name": "minDeposit",
              "type": "uint16"
            },
            {
              "internalType": "bool",
              "name": "compoundInterest",
              "type": "bool"
            },
            {
              "internalType": "uint8",
              "name": "monthlyGainBps",
              "type": "uint8"
            },
            {
              "internalType": "uint16",
              "name": "claimFeeBps",
              "type": "uint16"
            },
            {
              "internalType": "uint256",
              "name": "lockupSeconds",
              "type": "uint256"
            },
            {
              "internalType": "uint16",
              "name": "lockupBreachFeeBps",
              "type": "uint16"
            }
          ],
          "internalType": "struct PandAIEarnV1.Tier",
          "name": "",
          "type": "tuple"
        }
      ],
      "stateMutability": "view",
      "type": "function"
    },
    {
      "inputs": [],
      "name": "getLpAddress",
      "outputs": [
        {
          "internalType": "address",
          "name": "",
          "type": "address"
        }
      ],
      "stateMutability": "view",
      "type": "function"
    },
    {
      "inputs": [],
      "name": "pause",
      "outputs": [],
      "stateMutability": "nonpayable",
      "type": "function"
    },
    {
      "inputs": [],
      "name": "unpause",
      "outputs": [],
      "stateMutability": "nonpayable",
      "type": "function"
    },
    {
      "inputs": [
        {
          "internalType": "address",
          "name": "newLpAddress",
          "type": "address"
        }
      ],
      "name": "setLpAddress",
      "outputs": [],
      "stateMutability": "nonpayable",
      "type": "function"
    },
    {
      "inputs": [
        {
          "internalType": "uint256",
          "name": "usdtAmount",
          "type": "uint256"
        }
      ],
      "name": "withdrawTreasury",
      "outputs": [],
      "stateMutability": "nonpayable",
      "type": "function"
    },
    {
      "inputs": [
        {
          "internalType": "uint256",
          "name": "usdtAmount",
          "type": "uint256"
        }
      ],
      "name": "depositTreasury",
      "outputs": [],
      "stateMutability": "nonpayable",
      "type": "function"
    },
    {
      "inputs": [
        {
          "internalType": "address",
          "name": "userAddress",
          "type": "address"
        },
        {
          "internalType": "enum PandAIEarnV1.ApprovalLevel",
          "name": "newApprovalLevel",
          "type": "uint8"
        }
      ],
      "name": "setUserApprovalLevel",
      "outputs": [],
      "stateMutability": "nonpayable",
      "type": "function"
    },
    {
      "inputs": [
        {
          "internalType": "uint256",
          "name": "usdtDepositAmount",
          "type": "uint256"
        }
      ],
      "name": "deposit",
      "outputs": [],
      "stateMutability": "nonpayable",
      "type": "function"
    },
    {
      "inputs": [
        {
          "internalType": "uint256",
          "name": "usdtDepositAmount",
          "type": "uint256"
        },
        {
          "internalType": "address",
          "name": "referralAddress",
          "type": "address"
        }
      ],
      "name": "depositWithReferral",
      "outputs": [],
      "stateMutability": "nonpayable",
      "type": "function"
    },
    {
      "inputs": [
        {
          "internalType": "uint256",
          "name": "usdtWithdrawAmount",
          "type": "uint256"
        }
      ],
      "name": "requestWithdraw",
      "outputs": [],
      "stateMutability": "nonpayable",
      "type": "function"
    },
    {
      "inputs": [],
      "name": "withdraw",
      "outputs": [],
      "stateMutability": "nonpayable",
      "type": "function"
    },
    {
      "inputs": [],
      "name": "claim",
      "outputs": [],
      "stateMutability": "nonpayable",
      "type": "function"
    }
  ],
  "bytecode": "0x60c06040523480156200001157600080fd5b50604051620063d9380380620063d983398181016040528101906200003791906200085c565b6000600160006101000a81548160ff0219169083151502179055508173ffffffffffffffffffffffffffffffffffffffff1660808173ffffffffffffffffffffffffffffffffffffffff16815250508073ffffffffffffffffffffffffffffffffffffffff1660a08173ffffffffffffffffffffffffffffffffffffffff16815250506040518060c00160405280606461ffff168152602001600015158152602001606460ff1681526020016103e861ffff168152602001620151806007620001019190620008dc565b8152602001610fa061ffff1681525060026000600160ff16815260200190815260200160002060008201518160000160006101000a81548161ffff021916908361ffff16021790555060208201518160000160026101000a81548160ff02191690831515021790555060408201518160000160036101000a81548160ff021916908360ff16021790555060608201518160000160046101000a81548161ffff021916908361ffff1602179055506080820151816001015560a08201518160020160006101000a81548161ffff021916908361ffff1602179055509050506040518060c001604052806101f461ffff168152602001600015158152602001607d60ff16815260200161038461ffff16815260200162015180601e620002269190620008dc565b8152602001610dac61ffff1681525060026000600260ff16815260200190815260200160002060008201518160000160006101000a81548161ffff021916908361ffff16021790555060208201518160000160026101000a81548160ff02191690831515021790555060408201518160000160036101000a81548160ff021916908360ff16021790555060608201518160000160046101000a81548161ffff021916908361ffff1602179055506080820151816001015560a08201518160020160006101000a81548161ffff021916908361ffff1602179055509050506040518060c001604052806103e861ffff168152602001600015158152602001609660ff16815260200161032061ffff16815260200162015180603c6200034b9190620008dc565b8152602001610bb861ffff1681525060026000600360ff16815260200190815260200160002060008201518160000160006101000a81548161ffff021916908361ffff16021790555060208201518160000160026101000a81548160ff02191690831515021790555060408201518160000160036101000a81548160ff021916908360ff16021790555060608201518160000160046101000a81548161ffff021916908361ffff1602179055506080820151816001015560a08201518160020160006101000a81548161ffff021916908361ffff1602179055509050506040518060c0016040528061138861ffff16815260200160011515815260200160b460ff16815260200161028a61ffff16815260200162015180605a620004709190620008dc565b81526020016109c461ffff1681525060026000600460ff16815260200190815260200160002060008201518160000160006101000a81548161ffff021916908361ffff16021790555060208201518160000160026101000a81548160ff02191690831515021790555060408201518160000160036101000a81548160ff021916908360ff16021790555060608201518160000160046101000a81548161ffff021916908361ffff1602179055506080820151816001015560a08201518160020160006101000a81548161ffff021916908361ffff1602179055509050506040518060c0016040528061271061ffff16815260200160011515815260200160dc60ff1681526020016101f461ffff1681526020016201518060b4620005959190620008dc565b81526020016107d061ffff1681525060026000600560ff16815260200190815260200160002060008201518160000160006101000a81548161ffff021916908361ffff16021790555060208201518160000160026101000a81548160ff02191690831515021790555060408201518160000160036101000a81548160ff021916908360ff16021790555060608201518160000160046101000a81548161ffff021916908361ffff1602179055506080820151816001015560a08201518160020160006101000a81548161ffff021916908361ffff160217905550905050620006876000801b336200068f60201b60201c565b505062000927565b620006a182826200078060201b60201c565b6200077c57600160008084815260200190815260200160002060000160008373ffffffffffffffffffffffffffffffffffffffff1673ffffffffffffffffffffffffffffffffffffffff16815260200190815260200160002060006101000a81548160ff02191690831515021790555062000721620007ea60201b60201c565b73ffffffffffffffffffffffffffffffffffffffff168173ffffffffffffffffffffffffffffffffffffffff16837f2f8788117e7eff1d82e926ec794901d17c78024a50270940304540a733656f0d60405160405180910390a45b5050565b600080600084815260200190815260200160002060000160008373ffffffffffffffffffffffffffffffffffffffff1673ffffffffffffffffffffffffffffffffffffffff16815260200190815260200160002060009054906101000a900460ff16905092915050565b600033905090565b600080fd5b600073ffffffffffffffffffffffffffffffffffffffff82169050919050565b60006200082482620007f7565b9050919050565b620008368162000817565b81146200084257600080fd5b50565b60008151905062000856816200082b565b92915050565b60008060408385031215620008765762000875620007f2565b5b6000620008868582860162000845565b9250506020620008998582860162000845565b9150509250929050565b6000819050919050565b7f4e487b7100000000000000000000000000000000000000000000000000000000600052601160045260246000fd5b6000620008e982620008a3565b9150620008f683620008a3565b92508282026200090681620008a3565b9150828204841483151762000920576200091f620008ad565b5b5092915050565b60805160a051615a15620009c4600039600081816115330152818161161a01528181611a6d01528181611f1f015281816126da015281816127b601528181612d7a0152613d730152600081816104840152818161061201528181610df1015281816111c80152818161198501528181611e43015281816124c001528181612f60015281816132ba01528181613ad30152613cb50152615a156000f3fe608060405234801561001057600080fd5b506004361061014d5760003560e01c80636e131aea116100c3578063a217fddf1161007c578063a217fddf1461033b578063b6b55f2514610359578063bd12240a14610375578063ca63605414610391578063d1e9a5fd146103c1578063d547741f146103df5761014d565b80636e131aea1461027c5780636f5e0212146102985780636f77926b146102b4578063745400c9146102e55780638456cb591461030157806391d148541461030b5761014d565b806336568abe1161011557806336568abe146102065780633ccfd60b146102225780633f4ba83a1461022c57806347e63380146102365780634e71d92d146102545780635c975abb1461025e5761014d565b806301ffc9a71461015257806311f1fc991461018257806316770c791461019e578063248a9ca3146101ba5780632f2ff15d146101ea575b600080fd5b61016c60048036038101906101679190614393565b6103fb565b60405161017991906143db565b60405180910390f35b61019c6004803603810190610197919061442c565b610475565b005b6101b860048036038101906101b391906144b7565b61059a565b005b6101d460048036038101906101cf919061452d565b610f22565b6040516101e19190614569565b60405180910390f35b61020460048036038101906101ff9190614584565b610f41565b005b610220600480360381019061021b9190614584565b610f62565b005b61022a610fe5565b005b6102346112f4565b005b61023e61130c565b60405161024b9190614569565b60405180910390f35b61025c611330565b005b610266611c56565b60405161027391906143db565b60405180910390f35b610296600480360381019061029191906145e9565b611c6d565b005b6102b260048036038101906102ad9190614629565b611dc3565b005b6102ce60048036038101906102c99190614629565b6120bb565b6040516102dc929190614816565b60405180910390f35b6102ff60048036038101906102fa919061442c565b612381565b005b610309612ea7565b005b61032560048036038101906103209190614584565b612ebf565b60405161033291906143db565b60405180910390f35b610343612f29565b6040516103509190614569565b60405180910390f35b610373600480360381019061036e919061442c565b612f30565b005b61038f600480360381019061038a919061442c565b612f51565b005b6103ab60048036038101906103a6919061486d565b613078565b6040516103b89190614941565b60405180910390f35b6103c96131a4565b6040516103d6919061496b565b60405180910390f35b6103f960048036038101906103f49190614584565b6131cc565b005b60007f7965db0b000000000000000000000000000000000000000000000000000000007bffffffffffffffffffffffffffffffffffffffffffffffffffffffff1916827bffffffffffffffffffffffffffffffffffffffffffffffffffffffff1916148061046e575061046d826131ed565b5b9050919050565b6000801b61048281613257565b7f000000000000000000000000000000000000000000000000000000000000000073ffffffffffffffffffffffffffffffffffffffff1663a9059cbb33846040518363ffffffff1660e01b81526004016104dd929190614995565b6020604051808303816000875af11580156104fc573d6000803e3d6000fd5b505050506040513d601f19601f8201168201806040525081019061052091906149ea565b61055f576040517f08c379a000000000000000000000000000000000000000000000000000000000815260040161055690614a74565b60405180910390fd5b7ff1b96db22d7f3eb7ef19d9ddbc4d63be139f5d014216d4e42107e10cfd4ff16c8260405161058e9190614a94565b60405180910390a15050565b6105a261326b565b3273ffffffffffffffffffffffffffffffffffffffff163373ffffffffffffffffffffffffffffffffffffffff1614610610576040517f08c379a000000000000000000000000000000000000000000000000000000000815260040161060790614afb565b60405180910390fd5b7f000000000000000000000000000000000000000000000000000000000000000073ffffffffffffffffffffffffffffffffffffffff1663313ce5676040518163ffffffff1660e01b8152600401602060405180830381865afa15801561067b573d6000803e3d6000fd5b505050506040513d601f19601f8201168201806040525081019061069f9190614b30565b600a6106ab9190614cbf565b60026000600160ff16815260200190815260200160002060000160009054906101000a900461ffff1661ffff166106e29190614d0a565b82600360003373ffffffffffffffffffffffffffffffffffffffff1673ffffffffffffffffffffffffffffffffffffffff168152602001908152602001600020600101546107309190614d4c565b1015610771576040517f08c379a000000000000000000000000000000000000000000000000000000000815260040161076890614dcc565b60405180910390fd5b600073ffffffffffffffffffffffffffffffffffffffff168173ffffffffffffffffffffffffffffffffffffffff16036107e0576040517f08c379a00000000000000000000000000000000000000000000000000000000081526004016107d790614e38565b60405180910390fd5b3373ffffffffffffffffffffffffffffffffffffffff168173ffffffffffffffffffffffffffffffffffffffff160361084e576040517f08c379a000000000000000000000000000000000000000000000000000000000815260040161084590614e38565b60405180910390fd5b600073ffffffffffffffffffffffffffffffffffffffff16600360003373ffffffffffffffffffffffffffffffffffffffff1673ffffffffffffffffffffffffffffffffffffffff16815260200190815260200160002060000160009054906101000a900473ffffffffffffffffffffffffffffffffffffffff1673ffffffffffffffffffffffffffffffffffffffff16036109665780600360003373ffffffffffffffffffffffffffffffffffffffff1673ffffffffffffffffffffffffffffffffffffffff16815260200190815260200160002060000160006101000a81548173ffffffffffffffffffffffffffffffffffffffff021916908373ffffffffffffffffffffffffffffffffffffffff1602179055505b6000610971336132b5565b905060008160ff1611156109e2576109893382613412565b600360003373ffffffffffffffffffffffffffffffffffffffff1673ffffffffffffffffffffffffffffffffffffffff16815260200190815260200160002060080160008282546109da9190614d4c565b925050819055505b82600360003373ffffffffffffffffffffffffffffffffffffffff1673ffffffffffffffffffffffffffffffffffffffff1681526020019081526020016000206001016000828254610a349190614d4c565b9250508190555042600360003373ffffffffffffffffffffffffffffffffffffffff1673ffffffffffffffffffffffffffffffffffffffff16815260200190815260200160002060020181905550610acd600360003373ffffffffffffffffffffffffffffffffffffffff1673ffffffffffffffffffffffffffffffffffffffff16815260200190815260200160002060070154613628565b610b1a576000600360003373ffffffffffffffffffffffffffffffffffffffff1673ffffffffffffffffffffffffffffffffffffffff168152602001908152602001600020600501819055505b42600360003373ffffffffffffffffffffffffffffffffffffffff1673ffffffffffffffffffffffffffffffffffffffff168152602001908152602001600020600701819055506000610bce600360003373ffffffffffffffffffffffffffffffffffffffff1673ffffffffffffffffffffffffffffffffffffffff16815260200190815260200160002060000160009054906101000a900473ffffffffffffffffffffffffffffffffffffffff16613650565b90508360036000600360003373ffffffffffffffffffffffffffffffffffffffff1673ffffffffffffffffffffffffffffffffffffffff16815260200190815260200160002060000160009054906101000a900473ffffffffffffffffffffffffffffffffffffffff1673ffffffffffffffffffffffffffffffffffffffff1673ffffffffffffffffffffffffffffffffffffffff1681526020019081526020016000206009016000828254610c849190614d4c565b925050819055508060036000600360003373ffffffffffffffffffffffffffffffffffffffff1673ffffffffffffffffffffffffffffffffffffffff16815260200190815260200160002060000160009054906101000a900473ffffffffffffffffffffffffffffffffffffffff1673ffffffffffffffffffffffffffffffffffffffff1673ffffffffffffffffffffffffffffffffffffffff168152602001908152602001600020600a016000828254610d3f9190614d4c565b925050819055504260036000600360003373ffffffffffffffffffffffffffffffffffffffff1673ffffffffffffffffffffffffffffffffffffffff16815260200190815260200160002060000160009054906101000a900473ffffffffffffffffffffffffffffffffffffffff1673ffffffffffffffffffffffffffffffffffffffff1673ffffffffffffffffffffffffffffffffffffffff168152602001908152602001600020600b01819055507f000000000000000000000000000000000000000000000000000000000000000073ffffffffffffffffffffffffffffffffffffffff166323b872dd3330876040518463ffffffff1660e01b8152600401610e4c93929190614e58565b6020604051808303816000875af1158015610e6b573d6000803e3d6000fd5b505050506040513d601f19601f82011682018060405250810190610e8f91906149ea565b610ece576040517f08c379a0000000000000000000000000000000000000000000000000000000008152600401610ec590614a74565b60405180910390fd5b3373ffffffffffffffffffffffffffffffffffffffff167f951fdc61d6a98f96098a17ea6ac287a6fd38aea6bef73083c93b274cb830107d85604051610f149190614a94565b60405180910390a250505050565b6000806000838152602001908152602001600020600101549050919050565b610f4a82610f22565b610f5381613257565b610f5d838361372c565b505050565b610f6a61380c565b73ffffffffffffffffffffffffffffffffffffffff168173ffffffffffffffffffffffffffffffffffffffff1614610fd7576040517f08c379a0000000000000000000000000000000000000000000000000000000008152600401610fce90614f01565b60405180910390fd5b610fe18282613814565b5050565b6000600360003373ffffffffffffffffffffffffffffffffffffffff1673ffffffffffffffffffffffffffffffffffffffff168152602001908152602001600020600301541161106a576040517f08c379a000000000000000000000000000000000000000000000000000000000815260040161106190614f6d565b60405180910390fd5b42600360003373ffffffffffffffffffffffffffffffffffffffff1673ffffffffffffffffffffffffffffffffffffffff1681526020019081526020016000206004015411156110ef576040517f08c379a00000000000000000000000000000000000000000000000000000000081526004016110e690614fd9565b60405180910390fd5b6000600360003373ffffffffffffffffffffffffffffffffffffffff1673ffffffffffffffffffffffffffffffffffffffff1681526020019081526020016000206003015490506000600360003373ffffffffffffffffffffffffffffffffffffffff1673ffffffffffffffffffffffffffffffffffffffff168152602001908152602001600020600301819055506000600360003373ffffffffffffffffffffffffffffffffffffffff1673ffffffffffffffffffffffffffffffffffffffff168152602001908152602001600020600401819055507f000000000000000000000000000000000000000000000000000000000000000073ffffffffffffffffffffffffffffffffffffffff1663a9059cbb33836040518363ffffffff1660e01b8152600401611221929190614995565b6020604051808303816000875af1158015611240573d6000803e3d6000fd5b505050506040513d601f19601f8201168201806040525081019061126491906149ea565b6112a3576040517f08c379a000000000000000000000000000000000000000000000000000000000815260040161129a90614a74565b60405180910390fd5b3373ffffffffffffffffffffffffffffffffffffffff167f60940a45682dd211584724a922396732f11d82de250ddce40f7cdc3dc5805865826040516112e99190614a94565b60405180910390a250565b6000801b61130181613257565b6113096138f5565b50565b7f73e573f9566d61418a34d5de3ff49360f9c51fec37f7486551670290f6285dab81565b61133861326b565b3273ffffffffffffffffffffffffffffffffffffffff163373ffffffffffffffffffffffffffffffffffffffff16146113a6576040517f08c379a000000000000000000000000000000000000000000000000000000000815260040161139d90614afb565b60405180910390fd5b60006113b1336132b5565b905060006113bf3383613412565b600360003373ffffffffffffffffffffffffffffffffffffffff1673ffffffffffffffffffffffffffffffffffffffff1681526020019081526020016000206008015461140c9190614d4c565b9050600061141933613650565b600360003373ffffffffffffffffffffffffffffffffffffffff1673ffffffffffffffffffffffffffffffffffffffff168152602001908152602001600020600a01546114669190614d4c565b9050600081836114769190614d4c565b116114b6576040517f08c379a00000000000000000000000000000000000000000000000000000000081526004016114ad90615045565b60405180910390fd5b6114cb3382846114c69190614d4c565b613958565b61150a576040517f08c379a0000000000000000000000000000000000000000000000000000000008152600401611501906150b1565b60405180910390fd5b60006115168385613b83565b9050600061152383613beb565b905080826115319190614d4c565b7f000000000000000000000000000000000000000000000000000000000000000073ffffffffffffffffffffffffffffffffffffffff166370a08231336040518263ffffffff1660e01b815260040161158a919061496b565b602060405180830381865afa1580156115a7573d6000803e3d6000fd5b505050506040513d601f19601f820116820180604052508101906115cb91906150e6565b101561160c576040517f08c379a00000000000000000000000000000000000000000000000000000000081526004016116039061515f565b60405180910390fd5b80826116189190614d4c565b7f000000000000000000000000000000000000000000000000000000000000000073ffffffffffffffffffffffffffffffffffffffff1663dd62ed3e33306040518363ffffffff1660e01b815260040161167392919061517f565b602060405180830381865afa158015611690573d6000803e3d6000fd5b505050506040513d601f19601f820116820180604052508101906116b491906150e6565b10156116f5576040517f08c379a00000000000000000000000000000000000000000000000000000000081526004016116ec906151f4565b60405180910390fd5b6000600360003373ffffffffffffffffffffffffffffffffffffffff1673ffffffffffffffffffffffffffffffffffffffff16815260200190815260200160002060080181905550611788600360003373ffffffffffffffffffffffffffffffffffffffff1673ffffffffffffffffffffffffffffffffffffffff16815260200190815260200160002060070154613628565b156117f65782846117999190614d4c565b600360003373ffffffffffffffffffffffffffffffffffffffff1673ffffffffffffffffffffffffffffffffffffffff16815260200190815260200160002060050160008282546117ea9190614d4c565b92505081905550611849565b82846118029190614d4c565b600360003373ffffffffffffffffffffffffffffffffffffffff1673ffffffffffffffffffffffffffffffffffffffff168152602001908152602001600020600501819055505b82846118559190614d4c565b600360003373ffffffffffffffffffffffffffffffffffffffff1673ffffffffffffffffffffffffffffffffffffffff16815260200190815260200160002060060160008282546118a69190614d4c565b9250508190555042600360003373ffffffffffffffffffffffffffffffffffffffff1673ffffffffffffffffffffffffffffffffffffffff168152602001908152602001600020600701819055506000600360003373ffffffffffffffffffffffffffffffffffffffff1673ffffffffffffffffffffffffffffffffffffffff168152602001908152602001600020600a018190555042600360003373ffffffffffffffffffffffffffffffffffffffff1673ffffffffffffffffffffffffffffffffffffffff168152602001908152602001600020600b01819055507f000000000000000000000000000000000000000000000000000000000000000073ffffffffffffffffffffffffffffffffffffffff1663a9059cbb3385876119cc9190614d4c565b6040518363ffffffff1660e01b81526004016119e9929190614995565b6020604051808303816000875af1158015611a08573d6000803e3d6000fd5b505050506040513d601f19601f82011682018060405250810190611a2c91906149ea565b611a6b576040517f08c379a0000000000000000000000000000000000000000000000000000000008152600401611a6290614a74565b60405180910390fd5b7f000000000000000000000000000000000000000000000000000000000000000073ffffffffffffffffffffffffffffffffffffffff166379cc6790338385611ab49190614d4c565b6040518363ffffffff1660e01b8152600401611ad1929190614995565b600060405180830381600087803b158015611aeb57600080fd5b505af1158015611aff573d6000803e3d6000fd5b505050506000841115611ba9573373ffffffffffffffffffffffffffffffffffffffff167ffe9e35ab94545fd82755f641bb9fb45e0d9dfafca472b2bce233d7dff2962f3c85604051611b529190614a94565b60405180910390a23373ffffffffffffffffffffffffffffffffffffffff167f5154ba3ad6f942a7219ac1d545fe2eb12a47b1804c8240ab9da1fa1a126f742b83604051611ba09190614a94565b60405180910390a25b6000831115611c4f573373ffffffffffffffffffffffffffffffffffffffff167f5be4d22009fea85381595ed91090bc5c0bc92a93fe07ed7472c5888eb1993f8384604051611bf89190614a94565b60405180910390a23373ffffffffffffffffffffffffffffffffffffffff167f0b8bf41669e0983dcaf8ea2cbb6f14db91d87b23dc199f9c873e41e2c6ae779482604051611c469190614a94565b60405180910390a25b5050505050565b6000600160009054906101000a900460ff16905090565b7f73e573f9566d61418a34d5de3ff49360f9c51fec37f7486551670290f6285dab611c9781613257565b6000600360008573ffffffffffffffffffffffffffffffffffffffff1673ffffffffffffffffffffffffffffffffffffffff16815260200190815260200160002060000160149054906101000a900460ff1660ff166002811115611cfe57611cfd615214565b5b9050826002811115611d1357611d12615214565b5b600360008673ffffffffffffffffffffffffffffffffffffffff1673ffffffffffffffffffffffffffffffffffffffff16815260200190815260200160002060000160146101000a81548160ff021916908360ff1602179055508373ffffffffffffffffffffffffffffffffffffffff167f97a9663cc868dbb1c96d7a109c230519a0b6d87f567743f5963889ba988942d78285604051611db592919061528b565b60405180910390a250505050565b6000801b611dd081613257565b600073ffffffffffffffffffffffffffffffffffffffff168273ffffffffffffffffffffffffffffffffffffffff1603611e3f576040517f08c379a0000000000000000000000000000000000000000000000000000000008152600401611e3690615300565b60405180910390fd5b60007f000000000000000000000000000000000000000000000000000000000000000073ffffffffffffffffffffffffffffffffffffffff166370a08231846040518263ffffffff1660e01b8152600401611e9a919061496b565b602060405180830381865afa158015611eb7573d6000803e3d6000fd5b505050506040513d601f19601f82011682018060405250810190611edb91906150e6565b11611f1b576040517f08c379a0000000000000000000000000000000000000000000000000000000008152600401611f129061536c565b60405180910390fd5b60007f000000000000000000000000000000000000000000000000000000000000000073ffffffffffffffffffffffffffffffffffffffff166370a08231846040518263ffffffff1660e01b8152600401611f76919061496b565b602060405180830381865afa158015611f93573d6000803e3d6000fd5b505050506040513d601f19601f82011682018060405250810190611fb791906150e6565b11611ff7576040517f08c379a0000000000000000000000000000000000000000000000000000000008152600401611fee906153d8565b60405180910390fd5b600060018054906101000a900473ffffffffffffffffffffffffffffffffffffffff169050826001806101000a81548173ffffffffffffffffffffffffffffffffffffffff021916908373ffffffffffffffffffffffffffffffffffffffff1602179055508273ffffffffffffffffffffffffffffffffffffffff168173ffffffffffffffffffffffffffffffffffffffff167fb540d9b4914fdc07330a18551512f4d172c9f361d5aa3225aee17276e3411cec60405160405180910390a3505050565b6120c3614235565b6120cb6142b6565b600073ffffffffffffffffffffffffffffffffffffffff168373ffffffffffffffffffffffffffffffffffffffff160361213a576040517f08c379a000000000000000000000000000000000000000000000000000000000815260040161213190615300565b60405180910390fd5b6000612145846132b5565b905060006121538583613412565b600360003373ffffffffffffffffffffffffffffffffffffffff1673ffffffffffffffffffffffffffffffffffffffff168152602001908152602001600020600801546121a09190614d4c565b905060006121ad86613650565b600360008873ffffffffffffffffffffffffffffffffffffffff1673ffffffffffffffffffffffffffffffffffffffff168152602001908152602001600020600a01546121fa9190614d4c565b9050600360008773ffffffffffffffffffffffffffffffffffffffff1673ffffffffffffffffffffffffffffffffffffffff1681526020019081526020016000206040518060c001604052808560ff16815260200184815260200161225f8587613b83565b815260200183815260200161227384613beb565b81526020016122828987613c17565b81525081604051806101a00160405290816000820160009054906101000a900473ffffffffffffffffffffffffffffffffffffffff1673ffffffffffffffffffffffffffffffffffffffff1673ffffffffffffffffffffffffffffffffffffffff1681526020016000820160149054906101000a900460ff1660ff1660ff168152602001600182015481526020016002820154815260200160038201548152602001600482015481526020016005820154815260200160068201548152602001600782015481526020016008820154815260200160098201548152602001600a8201548152602001600b82015481525050915094509450505050915091565b3273ffffffffffffffffffffffffffffffffffffffff163373ffffffffffffffffffffffffffffffffffffffff16146123ef576040517f08c379a00000000000000000000000000000000000000000000000000000000081526004016123e690614afb565b60405180910390fd5b600360003373ffffffffffffffffffffffffffffffffffffffff1673ffffffffffffffffffffffffffffffffffffffff16815260200190815260200160002060010154811115612474576040517f08c379a000000000000000000000000000000000000000000000000000000000815260040161246b90615444565b60405180910390fd5b600360003373ffffffffffffffffffffffffffffffffffffffff1673ffffffffffffffffffffffffffffffffffffffff16815260200190815260200160002060010154811015612620577f000000000000000000000000000000000000000000000000000000000000000073ffffffffffffffffffffffffffffffffffffffff1663313ce5676040518163ffffffff1660e01b8152600401602060405180830381865afa158015612529573d6000803e3d6000fd5b505050506040513d601f19601f8201168201806040525081019061254d9190614b30565b600a6125599190614cbf565b60026000600160ff16815260200190815260200160002060000160009054906101000a900461ffff1661ffff166125909190614d0a565b81600360003373ffffffffffffffffffffffffffffffffffffffff1673ffffffffffffffffffffffffffffffffffffffff168152602001908152602001600020600101546125de9190615464565b101561261f576040517f08c379a0000000000000000000000000000000000000000000000000000000008152600401612616906154e4565b60405180910390fd5b5b600061262b336132b5565b905060008160ff1611612673576040517f08c379a000000000000000000000000000000000000000000000000000000000815260040161266a90615550565b60405180910390fd5b6000426126803384613c17565b1115612892576126d5612710600260008560ff1660ff16815260200190815260200160002060020160009054906101000a900461ffff1661ffff16856126c69190614d0a565b6126d0919061559f565b613c9f565b9050807f000000000000000000000000000000000000000000000000000000000000000073ffffffffffffffffffffffffffffffffffffffff166370a08231336040518263ffffffff1660e01b8152600401612731919061496b565b602060405180830381865afa15801561274e573d6000803e3d6000fd5b505050506040513d601f19601f8201168201806040525081019061277291906150e6565b10156127b3576040517f08c379a00000000000000000000000000000000000000000000000000000000081526004016127aa9061515f565b60405180910390fd5b807f000000000000000000000000000000000000000000000000000000000000000073ffffffffffffffffffffffffffffffffffffffff1663dd62ed3e33306040518363ffffffff1660e01b815260040161280f92919061517f565b602060405180830381865afa15801561282c573d6000803e3d6000fd5b505050506040513d601f19601f8201168201806040525081019061285091906150e6565b1015612891576040517f08c379a0000000000000000000000000000000000000000000000000000000008152600401612888906151f4565b60405180910390fd5b5b61289c3383613412565b600360003373ffffffffffffffffffffffffffffffffffffffff1673ffffffffffffffffffffffffffffffffffffffff16815260200190815260200160002060080160008282546128ed9190614d4c565b9250508190555061293f600360003373ffffffffffffffffffffffffffffffffffffffff1673ffffffffffffffffffffffffffffffffffffffff16815260200190815260200160002060070154613628565b61298c576000600360003373ffffffffffffffffffffffffffffffffffffffff1673ffffffffffffffffffffffffffffffffffffffff168152602001908152602001600020600501819055505b42600360003373ffffffffffffffffffffffffffffffffffffffff1673ffffffffffffffffffffffffffffffffffffffff1681526020019081526020016000206007018190555082600360003373ffffffffffffffffffffffffffffffffffffffff1673ffffffffffffffffffffffffffffffffffffffff1681526020019081526020016000206001016000828254612a259190615464565b9250508190555082600360003373ffffffffffffffffffffffffffffffffffffffff1673ffffffffffffffffffffffffffffffffffffffff1681526020019081526020016000206003016000828254612a7e9190614d4c565b9250508190555062015180600e612a959190614d0a565b42612aa09190614d4c565b600360003373ffffffffffffffffffffffffffffffffffffffff1673ffffffffffffffffffffffffffffffffffffffff16815260200190815260200160002060040181905550612b51600360003373ffffffffffffffffffffffffffffffffffffffff1673ffffffffffffffffffffffffffffffffffffffff16815260200190815260200160002060000160009054906101000a900473ffffffffffffffffffffffffffffffffffffffff16613650565b60036000600360003373ffffffffffffffffffffffffffffffffffffffff1673ffffffffffffffffffffffffffffffffffffffff16815260200190815260200160002060000160009054906101000a900473ffffffffffffffffffffffffffffffffffffffff1673ffffffffffffffffffffffffffffffffffffffff1673ffffffffffffffffffffffffffffffffffffffff168152602001908152602001600020600a016000828254612c049190614d4c565b925050819055508260036000600360003373ffffffffffffffffffffffffffffffffffffffff1673ffffffffffffffffffffffffffffffffffffffff16815260200190815260200160002060000160009054906101000a900473ffffffffffffffffffffffffffffffffffffffff1673ffffffffffffffffffffffffffffffffffffffff1673ffffffffffffffffffffffffffffffffffffffff1681526020019081526020016000206009016000828254612cbf9190615464565b925050819055504260036000600360003373ffffffffffffffffffffffffffffffffffffffff1673ffffffffffffffffffffffffffffffffffffffff16815260200190815260200160002060000160009054906101000a900473ffffffffffffffffffffffffffffffffffffffff1673ffffffffffffffffffffffffffffffffffffffff1673ffffffffffffffffffffffffffffffffffffffff168152602001908152602001600020600b01819055506000811115612e54577f000000000000000000000000000000000000000000000000000000000000000073ffffffffffffffffffffffffffffffffffffffff166379cc679033836040518363ffffffff1660e01b8152600401612dd3929190614995565b600060405180830381600087803b158015612ded57600080fd5b505af1158015612e01573d6000803e3d6000fd5b505050503373ffffffffffffffffffffffffffffffffffffffff167f67e0a76c8ca65f789ba0c0b9ac467471fd0905ab2e83ee2ab59b6064f29813fa82604051612e4b9190614a94565b60405180910390a25b3373ffffffffffffffffffffffffffffffffffffffff167fa933b33bc35fbbc42120b3234fd8abdb6ab035bbc8c9199479693f0abede25d184604051612e9a9190614a94565b60405180910390a2505050565b6000801b612eb481613257565b612ebc613e9c565b50565b600080600084815260200190815260200160002060000160008373ffffffffffffffffffffffffffffffffffffffff1673ffffffffffffffffffffffffffffffffffffffff16815260200190815260200160002060009054906101000a900460ff16905092915050565b6000801b81565b612f4e8173ea51341bb930e2d8561ad2a4430873d6d18997bd61059a565b50565b6000801b612f5e81613257565b7f000000000000000000000000000000000000000000000000000000000000000073ffffffffffffffffffffffffffffffffffffffff166323b872dd3330856040518463ffffffff1660e01b8152600401612fbb93929190614e58565b6020604051808303816000875af1158015612fda573d6000803e3d6000fd5b505050506040513d601f19601f82011682018060405250810190612ffe91906149ea565b61303d576040517f08c379a000000000000000000000000000000000000000000000000000000000815260040161303490614a74565b60405180910390fd5b7f90388e3e271a8f007dd351d51ccac1674db355c1ce23fe0005d0721fc8e9b2c68260405161306c9190614a94565b60405180910390a15050565b6130806142ef565b60018260ff1610158015613098575060058260ff1611155b6130d7576040517f08c379a00000000000000000000000000000000000000000000000000000000081526004016130ce90615550565b60405180910390fd5b600260008360ff1660ff1681526020019081526020016000206040518060c00160405290816000820160009054906101000a900461ffff1661ffff1661ffff1681526020016000820160029054906101000a900460ff161515151581526020016000820160039054906101000a900460ff1660ff1660ff1681526020016000820160049054906101000a900461ffff1661ffff1661ffff168152602001600182015481526020016002820160009054906101000a900461ffff1661ffff1661ffff16815250509050919050565b600060018054906101000a900473ffffffffffffffffffffffffffffffffffffffff16905090565b6131d582610f22565b6131de81613257565b6131e88383613814565b505050565b60007f01ffc9a7000000000000000000000000000000000000000000000000000000007bffffffffffffffffffffffffffffffffffffffffffffffffffffffff1916827bffffffffffffffffffffffffffffffffffffffffffffffffffffffff1916149050919050565b6132688161326361380c565b613efe565b50565b613273611c56565b156132b3576040517f08c379a00000000000000000000000000000000000000000000000000000000081526004016132aa9061561c565b60405180910390fd5b565b6000807f000000000000000000000000000000000000000000000000000000000000000073ffffffffffffffffffffffffffffffffffffffff1663313ce5676040518163ffffffff1660e01b8152600401602060405180830381865afa158015613323573d6000803e3d6000fd5b505050506040513d601f19601f820116820180604052508101906133479190614b30565b600a6133539190614cbf565b600360008573ffffffffffffffffffffffffffffffffffffffff1673ffffffffffffffffffffffffffffffffffffffff168152602001908152602001600020600101546133a0919061559f565b90506000600590505b60018160ff161061340657600260008260ff1660ff16815260200190815260200160002060000160009054906101000a900461ffff1661ffff1682106133f357809250505061340d565b80806133fe9061563c565b9150506133a9565b5060009150505b919050565b6000808260ff16036134275760009050613622565b6000600260008460ff1660ff16815260200190815260200160002060000160039054906101000a900460ff1660ff1690506000600360008673ffffffffffffffffffffffffffffffffffffffff1673ffffffffffffffffffffffffffffffffffffffff16815260200190815260200160002060070154426134a89190615464565b9050600062015180601e6134bc9190614d0a565b6127108385600360008b73ffffffffffffffffffffffffffffffffffffffff1673ffffffffffffffffffffffffffffffffffffffff1681526020019081526020016000206001015461350e9190614d0a565b6135189190614d0a565b613522919061559f565b61352c919061559f565b9050600260008660ff1660ff16815260200190815260200160002060000160029054906101000a900460ff1661356757809350505050613622565b6000600262015180601e61357b9190614d0a565b61271085878661358b9190614d0a565b6135959190614d0a565b61359f919061559f565b6135a9919061559f565b6135b3919061559f565b90506000600362015180601e6135c99190614d0a565b6127108688866135d99190614d0a565b6135e39190614d0a565b6135ed919061559f565b6135f7919061559f565b613601919061559f565b90508082846136109190614d4c565b61361a9190614d4c565b955050505050505b92915050565b60006201518082613639919061559f565b6201518042613648919061559f565b149050919050565b600080600360008473ffffffffffffffffffffffffffffffffffffffff1673ffffffffffffffffffffffffffffffffffffffff168152602001908152602001600020600b0154426136a19190615464565b905062015180601e6136b39190614d0a565b612710826014600360008873ffffffffffffffffffffffffffffffffffffffff1673ffffffffffffffffffffffffffffffffffffffff168152602001908152602001600020600901546137069190614d0a565b6137109190614d0a565b61371a919061559f565b613724919061559f565b915050919050565b6137368282612ebf565b61380857600160008084815260200190815260200160002060000160008373ffffffffffffffffffffffffffffffffffffffff1673ffffffffffffffffffffffffffffffffffffffff16815260200190815260200160002060006101000a81548160ff0219169083151502179055506137ad61380c565b73ffffffffffffffffffffffffffffffffffffffff168173ffffffffffffffffffffffffffffffffffffffff16837f2f8788117e7eff1d82e926ec794901d17c78024a50270940304540a733656f0d60405160405180910390a45b5050565b600033905090565b61381e8282612ebf565b156138f157600080600084815260200190815260200160002060000160008373ffffffffffffffffffffffffffffffffffffffff1673ffffffffffffffffffffffffffffffffffffffff16815260200190815260200160002060006101000a81548160ff02191690831515021790555061389661380c565b73ffffffffffffffffffffffffffffffffffffffff168173ffffffffffffffffffffffffffffffffffffffff16837ff6391f5c32d9c69d2a47ea670b442974b53935d1edc7fd64eb21e047a839171b60405160405180910390a45b5050565b6138fd613f83565b6000600160006101000a81548160ff0219169083151502179055507f5db9ee0a495bf2e6ff9c91a7834c1ba4fdd244a5e8aa4e537bd38aeae4b073aa61394161380c565b60405161394e919061496b565b60405180910390a1565b600080600360008573ffffffffffffffffffffffffffffffffffffffff1673ffffffffffffffffffffffffffffffffffffffff16815260200190815260200160002060000160149054906101000a900460ff1660ff1660028111156139c0576139bf615214565b5b9050600160028111156139d6576139d5615214565b5b8160028111156139e9576139e8615214565b5b036139f8576001915050613b7d565b600280811115613a0b57613a0a615214565b5b816002811115613a1e57613a1d615214565b5b03613a2d576000915050613b7d565b613a78600360008673ffffffffffffffffffffffffffffffffffffffff1673ffffffffffffffffffffffffffffffffffffffff16815260200190815260200160002060070154613628565b15613ace57600360008573ffffffffffffffffffffffffffffffffffffffff1673ffffffffffffffffffffffffffffffffffffffff1681526020019081526020016000206005015483613acb9190614d4c565b92505b6103e87f000000000000000000000000000000000000000000000000000000000000000073ffffffffffffffffffffffffffffffffffffffff1663313ce5676040518163ffffffff1660e01b8152600401602060405180830381865afa158015613b3c573d6000803e3d6000fd5b505050506040513d601f19601f82011682018060405250810190613b609190614b30565b600a613b6c9190614cbf565b84613b77919061559f565b11159150505b92915050565b6000808260ff1603613b9457600191505b613be3612710600260008560ff1660ff16815260200190815260200160002060000160049054906101000a900461ffff1661ffff1685613bd49190614d0a565b613bde919061559f565b613c9f565b905092915050565b6000613c106127106103e884613c019190614d0a565b613c0b919061559f565b613c9f565b9050919050565b6000808260ff1603613c2c5760009050613c99565b600260008360ff1660ff16815260200190815260200160002060010154600360008573ffffffffffffffffffffffffffffffffffffffff1673ffffffffffffffffffffffffffffffffffffffff16815260200190815260200160002060020154613c969190614d4c565b90505b92915050565b6000808203613cb15760009050613e97565b60007f000000000000000000000000000000000000000000000000000000000000000073ffffffffffffffffffffffffffffffffffffffff166370a0823160018054906101000a900473ffffffffffffffffffffffffffffffffffffffff166040518263ffffffff1660e01b8152600401613d2c919061496b565b602060405180830381865afa158015613d49573d6000803e3d6000fd5b505050506040513d601f19601f82011682018060405250810190613d6d91906150e6565b905060007f000000000000000000000000000000000000000000000000000000000000000073ffffffffffffffffffffffffffffffffffffffff166370a0823160018054906101000a900473ffffffffffffffffffffffffffffffffffffffff166040518263ffffffff1660e01b8152600401613dea919061496b565b602060405180830381865afa158015613e07573d6000803e3d6000fd5b505050506040513d601f19601f82011682018060405250810190613e2b91906150e6565b905060008183613e3b9190614d0a565b11613e7b576040517f08c379a0000000000000000000000000000000000000000000000000000000008152600401613e72906156b1565b60405180910390fd5b818185613e889190614d0a565b613e92919061559f565b925050505b919050565b613ea461326b565b60018060006101000a81548160ff0219169083151502179055507f62e78cea01bee320cd4e420270b5ea74000d11b0c9f74754ebdbfc544b05a258613ee761380c565b604051613ef4919061496b565b60405180910390a1565b613f088282612ebf565b613f7f57613f1581613fcc565b613f238360001c6020613ff9565b604051602001613f349291906157da565b6040516020818303038152906040526040517f08c379a0000000000000000000000000000000000000000000000000000000008152600401613f76919061585e565b60405180910390fd5b5050565b613f8b611c56565b613fca576040517f08c379a0000000000000000000000000000000000000000000000000000000008152600401613fc1906158cc565b60405180910390fd5b565b6060613ff28273ffffffffffffffffffffffffffffffffffffffff16601460ff16613ff9565b9050919050565b60606000600283600261400c9190614d0a565b6140169190614d4c565b67ffffffffffffffff81111561402f5761402e6158ec565b5b6040519080825280601f01601f1916602001820160405280156140615781602001600182028036833780820191505090505b5090507f3000000000000000000000000000000000000000000000000000000000000000816000815181106140995761409861591b565b5b60200101907effffffffffffffffffffffffffffffffffffffffffffffffffffffffffffff1916908160001a9053507f7800000000000000000000000000000000000000000000000000000000000000816001815181106140fd576140fc61591b565b5b60200101907effffffffffffffffffffffffffffffffffffffffffffffffffffffffffffff1916908160001a9053506000600184600261413d9190614d0a565b6141479190614d4c565b90505b60018111156141e7577f3031323334353637383961626364656600000000000000000000000000000000600f8616601081106141895761418861591b565b5b1a60f81b8282815181106141a05761419f61591b565b5b60200101907effffffffffffffffffffffffffffffffffffffffffffffffffffffffffffff1916908160001a905350600485901c9450806141e09061594a565b905061414a565b506000841461422b576040517f08c379a0000000000000000000000000000000000000000000000000000000008152600401614222906159bf565b60405180910390fd5b8091505092915050565b604051806101a00160405280600073ffffffffffffffffffffffffffffffffffffffff168152602001600060ff16815260200160008152602001600081526020016000815260200160008152602001600081526020016000815260200160008152602001600081526020016000815260200160008152602001600081525090565b6040518060c00160405280600060ff16815260200160008152602001600081526020016000815260200160008152602001600081525090565b6040518060c00160405280600061ffff168152602001600015158152602001600060ff168152602001600061ffff16815260200160008152602001600061ffff1681525090565b600080fd5b60007fffffffff0000000000000000000000000000000000000000000000000000000082169050919050565b6143708161433b565b811461437b57600080fd5b50565b60008135905061438d81614367565b92915050565b6000602082840312156143a9576143a8614336565b5b60006143b78482850161437e565b91505092915050565b60008115159050919050565b6143d5816143c0565b82525050565b60006020820190506143f060008301846143cc565b92915050565b6000819050919050565b614409816143f6565b811461441457600080fd5b50565b60008135905061442681614400565b92915050565b60006020828403121561444257614441614336565b5b600061445084828501614417565b91505092915050565b600073ffffffffffffffffffffffffffffffffffffffff82169050919050565b600061448482614459565b9050919050565b61449481614479565b811461449f57600080fd5b50565b6000813590506144b18161448b565b92915050565b600080604083850312156144ce576144cd614336565b5b60006144dc85828601614417565b92505060206144ed858286016144a2565b9150509250929050565b6000819050919050565b61450a816144f7565b811461451557600080fd5b50565b60008135905061452781614501565b92915050565b60006020828403121561454357614542614336565b5b600061455184828501614518565b91505092915050565b614563816144f7565b82525050565b600060208201905061457e600083018461455a565b92915050565b6000806040838503121561459b5761459a614336565b5b60006145a985828601614518565b92505060206145ba858286016144a2565b9150509250929050565b600381106145d157600080fd5b50565b6000813590506145e3816145c4565b92915050565b60008060408385031215614600576145ff614336565b5b600061460e858286016144a2565b925050602061461f858286016145d4565b9150509250929050565b60006020828403121561463f5761463e614336565b5b600061464d848285016144a2565b91505092915050565b61465f81614479565b82525050565b600060ff82169050919050565b61467b81614665565b82525050565b61468a816143f6565b82525050565b6101a0820160008201516146a76000850182614656565b5060208201516146ba6020850182614672565b5060408201516146cd6040850182614681565b5060608201516146e06060850182614681565b5060808201516146f36080850182614681565b5060a082015161470660a0850182614681565b5060c082015161471960c0850182614681565b5060e082015161472c60e0850182614681565b50610100820151614741610100850182614681565b50610120820151614756610120850182614681565b5061014082015161476b610140850182614681565b50610160820151614780610160850182614681565b50610180820151614795610180850182614681565b50505050565b60c0820160008201516147b16000850182614672565b5060208201516147c46020850182614681565b5060408201516147d76040850182614681565b5060608201516147ea6060850182614681565b5060808201516147fd6080850182614681565b5060a082015161481060a0850182614681565b50505050565b60006102608201905061482c6000830185614690565b61483a6101a083018461479b565b9392505050565b61484a81614665565b811461485557600080fd5b50565b60008135905061486781614841565b92915050565b60006020828403121561488357614882614336565b5b600061489184828501614858565b91505092915050565b600061ffff82169050919050565b6148b18161489a565b82525050565b6148c0816143c0565b82525050565b60c0820160008201516148dc60008501826148a8565b5060208201516148ef60208501826148b7565b5060408201516149026040850182614672565b50606082015161491560608501826148a8565b5060808201516149286080850182614681565b5060a082015161493b60a08501826148a8565b50505050565b600060c08201905061495660008301846148c6565b92915050565b61496581614479565b82525050565b6000602082019050614980600083018461495c565b92915050565b61498f816143f6565b82525050565b60006040820190506149aa600083018561495c565b6149b76020830184614986565b9392505050565b6149c7816143c0565b81146149d257600080fd5b50565b6000815190506149e4816149be565b92915050565b600060208284031215614a00576149ff614336565b5b6000614a0e848285016149d5565b91505092915050565b600082825260208201905092915050565b7f75736474207472616e7366657200000000000000000000000000000000000000600082015250565b6000614a5e600d83614a17565b9150614a6982614a28565b602082019050919050565b60006020820190508181036000830152614a8d81614a51565b9050919050565b6000602082019050614aa96000830184614986565b92915050565b7f63616c6c732066726f6d20636f6e747261637420646973616c6c6f7765640000600082015250565b6000614ae5601e83614a17565b9150614af082614aaf565b602082019050919050565b60006020820190508181036000830152614b1481614ad8565b9050919050565b600081519050614b2a81614841565b92915050565b600060208284031215614b4657614b45614336565b5b6000614b5484828501614b1b565b91505092915050565b7f4e487b7100000000000000000000000000000000000000000000000000000000600052601160045260246000fd5b60008160011c9050919050565b6000808291508390505b6001851115614be357808604811115614bbf57614bbe614b5d565b5b6001851615614bce5780820291505b8081029050614bdc85614b8c565b9450614ba3565b94509492505050565b600082614bfc5760019050614cb8565b81614c0a5760009050614cb8565b8160018114614c205760028114614c2a57614c59565b6001915050614cb8565b60ff841115614c3c57614c3b614b5d565b5b8360020a915084821115614c5357614c52614b5d565b5b50614cb8565b5060208310610133831016604e8410600b8410161715614c8e5782820a905083811115614c8957614c88614b5d565b5b614cb8565b614c9b8484846001614b99565b92509050818404811115614cb257614cb1614b5d565b5b81810290505b9392505050565b6000614cca826143f6565b9150614cd583614665565b9250614d027fffffffffffffffffffffffffffffffffffffffffffffffffffffffffffffffff8484614bec565b905092915050565b6000614d15826143f6565b9150614d20836143f6565b9250828202614d2e816143f6565b91508282048414831517614d4557614d44614b5d565b5b5092915050565b6000614d57826143f6565b9150614d62836143f6565b9250828201905080821115614d7a57614d79614b5d565b5b92915050565b7f736d616c6c206465706f73697400000000000000000000000000000000000000600082015250565b6000614db6600d83614a17565b9150614dc182614d80565b602082019050919050565b60006020820190508181036000830152614de581614da9565b9050919050565b7f696e76616c696420726566657272616c00000000000000000000000000000000600082015250565b6000614e22601083614a17565b9150614e2d82614dec565b602082019050919050565b60006020820190508181036000830152614e5181614e15565b9050919050565b6000606082019050614e6d600083018661495c565b614e7a602083018561495c565b614e876040830184614986565b949350505050565b7f416363657373436f6e74726f6c3a2063616e206f6e6c792072656e6f756e636560008201527f20726f6c657320666f722073656c660000000000000000000000000000000000602082015250565b6000614eeb602f83614a17565b9150614ef682614e8f565b604082019050919050565b60006020820190508181036000830152614f1a81614ede565b9050919050565b7f6e6f207769746864726177207265717565737465640000000000000000000000600082015250565b6000614f57601583614a17565b9150614f6282614f21565b602082019050919050565b60006020820190508181036000830152614f8681614f4a565b9050919050565b7f7769746864726177206e6f7420706f737369626c652079657400000000000000600082015250565b6000614fc3601983614a17565b9150614fce82614f8d565b602082019050919050565b60006020820190508181036000830152614ff281614fb6565b9050919050565b7f656d70747920636c61696d000000000000000000000000000000000000000000600082015250565b600061502f600b83614a17565b915061503a82614ff9565b602082019050919050565b6000602082019050818103600083015261505e81615022565b9050919050565b7f757365722063616e6e6f7420636c61696d000000000000000000000000000000600082015250565b600061509b601183614a17565b91506150a682615065565b602082019050919050565b600060208201905081810360008301526150ca8161508e565b9050919050565b6000815190506150e081614400565b92915050565b6000602082840312156150fc576150fb614336565b5b600061510a848285016150d1565b91505092915050565b7f70616e6461692062616c616e6365000000000000000000000000000000000000600082015250565b6000615149600e83614a17565b915061515482615113565b602082019050919050565b600060208201905081810360008301526151788161513c565b9050919050565b6000604082019050615194600083018561495c565b6151a1602083018461495c565b9392505050565b7f70616e64616920616c6c6f77616e636500000000000000000000000000000000600082015250565b60006151de601083614a17565b91506151e9826151a8565b602082019050919050565b6000602082019050818103600083015261520d816151d1565b9050919050565b7f4e487b7100000000000000000000000000000000000000000000000000000000600052602160045260246000fd5b6003811061525457615253615214565b5b50565b600081905061526582615243565b919050565b600061527582615257565b9050919050565b6152858161526a565b82525050565b60006040820190506152a0600083018561527c565b6152ad602083018461527c565b9392505050565b7f656d707479206164647265737300000000000000000000000000000000000000600082015250565b60006152ea600d83614a17565b91506152f5826152b4565b602082019050919050565b60006020820190508181036000830152615319816152dd565b9050919050565b7f6e6f207573647420696e206c7000000000000000000000000000000000000000600082015250565b6000615356600d83614a17565b915061536182615320565b602082019050919050565b6000602082019050818103600083015261538581615349565b9050919050565b7f6e6f2070616e64616920696e206c700000000000000000000000000000000000600082015250565b60006153c2600f83614a17565b91506153cd8261538c565b602082019050919050565b600060208201905081810360008301526153f1816153b5565b9050919050565b7f776974686472617720626967676572207468616e206465706f73697400000000600082015250565b600061542e601c83614a17565b9150615439826153f8565b602082019050919050565b6000602082019050818103600083015261545d81615421565b9050919050565b600061546f826143f6565b915061547a836143f6565b925082820390508181111561549257615491614b5d565b5b92915050565b7f736d616c6c206465706f7369742072656d61696e696e67000000000000000000600082015250565b60006154ce601783614a17565b91506154d982615498565b602082019050919050565b600060208201905081810360008301526154fd816154c1565b9050919050565b7f696e76616c696420746965720000000000000000000000000000000000000000600082015250565b600061553a600c83614a17565b915061554582615504565b602082019050919050565b600060208201905081810360008301526155698161552d565b9050919050565b7f4e487b7100000000000000000000000000000000000000000000000000000000600052601260045260246000fd5b60006155aa826143f6565b91506155b5836143f6565b9250826155c5576155c4615570565b5b828204905092915050565b7f5061757361626c653a2070617573656400000000000000000000000000000000600082015250565b6000615606601083614a17565b9150615611826155d0565b602082019050919050565b60006020820190508181036000830152615635816155f9565b9050919050565b600061564782614665565b91506000820361565a57615659614b5d565b5b600182039050919050565b7f656d707479206c70000000000000000000000000000000000000000000000000600082015250565b600061569b600883614a17565b91506156a682615665565b602082019050919050565b600060208201905081810360008301526156ca8161568e565b9050919050565b600081905092915050565b7f416363657373436f6e74726f6c3a206163636f756e7420000000000000000000600082015250565b60006157126017836156d1565b915061571d826156dc565b601782019050919050565b600081519050919050565b60005b83811015615751578082015181840152602081019050615736565b60008484015250505050565b600061576882615728565b61577281856156d1565b9350615782818560208601615733565b80840191505092915050565b7f206973206d697373696e6720726f6c6520000000000000000000000000000000600082015250565b60006157c46011836156d1565b91506157cf8261578e565b601182019050919050565b60006157e582615705565b91506157f1828561575d565b91506157fc826157b7565b9150615808828461575d565b91508190509392505050565b6000601f19601f8301169050919050565b600061583082615728565b61583a8185614a17565b935061584a818560208601615733565b61585381615814565b840191505092915050565b600060208201905081810360008301526158788184615825565b905092915050565b7f5061757361626c653a206e6f7420706175736564000000000000000000000000600082015250565b60006158b6601483614a17565b91506158c182615880565b602082019050919050565b600060208201905081810360008301526158e5816158a9565b9050919050565b7f4e487b7100000000000000000000000000000000000000000000000000000000600052604160045260246000fd5b7f4e487b7100000000000000000000000000000000000000000000000000000000600052603260045260246000fd5b6000615955826143f6565b91506000820361596857615967614b5d565b5b600182039050919050565b7f537472696e67733a20686578206c656e67746820696e73756666696369656e74600082015250565b60006159a9602083614a17565b91506159b482615973565b602082019050919050565b600060208201905081810360008301526159d88161599c565b905091905056fea26469706673582212207e8394ea318bff8f6461eefbf804b7408b5bc83838584cc878c92ea2289feb6d64736f6c63430008130033",
  "immutableReferences": {
    "1702": [
      {
        "length": 32,
        "start": 1156
      },
      {
        "length": 32,
        "start": 1554
      },
      {
        "length": 32,
        "start": 3569
      },
      {
        "length": 32,
        "start": 4552
      },
      {
        "length": 32,
        "start": 6533
      },
      {
        "length": 32,
        "start": 7747
      },
      {
        "length": 32,
        "start": 9408
      },
      {
        "length": 32,
        "start": 12128
      },
      {
        "length": 32,
        "start": 12986
      },
      {
        "length": 32,
        "start": 15059
      },
      {
        "length": 32,
        "start": 15541
      }
    ],
    "1705": [
      {
        "length": 32,
        "start": 5427
      },
      {
        "length": 32,
        "start": 5658
      },
      {
        "length": 32,
        "start": 6765
      },
      {
        "length": 32,
        "start": 7967
      },
      {
        "length": 32,
        "start": 9946
      },
      {
        "length": 32,
        "start": 10166
      },
      {
        "length": 32,
        "start": 11642
      },
      {
        "length": 32,
        "start": 15731
      }
    ]
  },
  "source": "// SPDX-License-Identifier: MIT\npragma solidity 0.8.19;\n\nimport \"@openzeppelin/contracts/token/ERC20/IERC20.sol\";\nimport \"@openzeppelin/contracts/access/AccessControl.sol\";\nimport \"@openzeppelin/contracts/security/Pausable.sol\"; \n\ninterface IERC20Extended is IERC20 {\n  function decimals() external view returns (uint8);\n}\n\ninterface IERC20Burnable is IERC20Extended {\n  function burnFrom(address account, uint amount) external;\n}\n\ncontract PandAIEarnV1 is AccessControl, Pausable {\n\n  IERC20Extended private immutable usdtToken;\n  IERC20Burnable private immutable pandaiToken;\n  \n  address private lpAddress;\n\n  bytes32 public constant UPDATER_ROLE = keccak256(\"UPDATER_ROLE\");\n  address private constant DEFAULT_REFERRAL = 0xeA51341bb930E2D8561ad2a4430873D6d18997BD;\n\n  uint private constant BASE_PERIOD = 1 days;                        // base period for time (mainnet: 1 day, devnet: minutes)\n  uint private constant WITHDRAW_PROCESSING_TIME = 14 * BASE_PERIOD; // user requests withdrawal -> 14 days waiting -> withdrawal can be executed\n  uint private constant INTEREST_PERIOD = 30 * BASE_PERIOD;          // period for Tier.monthlyGainBps\n  uint private constant DAILY_CLAIM_LIMIT = 1000;                    // daily claim limit of USDT for NotApproved users\n  uint private constant MIRIAD = 10000;                              // helper for divisor\n  uint private constant REFERRAL_MONTHLY_GAIN_BPS = 20;              // 0.2% reward for referrals\n  uint private constant REFERRAL_CLAIM_FEE_BPS = 1000;               // 10% referral claim fee\n  \n  /**\n    0: NotApproved (daily claim limit of $1000)\n    1: Approved (no daily limit)\n    2: Forbidden (claim forbidden)\n  */\n  enum ApprovalLevel{ NotApproved, Approved, Forbidden }\n\n  mapping(uint8 => Tier) private tierMap;\n  struct Tier {\n    uint16 minDeposit;\n    bool compoundInterest;     \n    \n    uint8 monthlyGainBps;\n    uint16 claimFeeBps;\n\n    uint lockupSeconds;\n    uint16 lockupBreachFeeBps;\n  }\n\n  mapping(address => User) private userMap;\n  struct User {\n    address referral;                  // referral address for this account\n    uint8 approvalLevel;               // approval level of this user (from ApprovalLevel enum)\n    \n    uint deposit;                      // usdt deposit of given user\n    uint lastDepositTimestamp;         // last time of usdt deposit\n    \n    uint withdrawRequestAmount;        // usdt user request to withdraw\n    uint withdrawPossibleTimestamp;    // time when the withdraw of requested amount can be done\n    \n    uint dailyClaim;                   // usdt user claimed today\n    uint totalClaim;                   // usdt user claimed in total\n    uint lastClaimTimestamp;           // last time when user called claim\n   \n    uint userPendingReward;            // user reward that hasn't been claimed because of deposit or request withdraw\n\n    uint referralDeposit;              // sum of usdt deposits of users bellow this user (in referral program)\n    uint referralPendingReward;        // pending referral reward (calculated in referralLastUpdateTimestamp)\n    uint referralLastUpdateTimestamp;  // time when referalPendingReward was updated \n  }\n\n  struct UserCalculated {\n    uint8 tier;\n\n    uint userPendingReward;\n    uint userPendingPandaiBurn;\n\n    uint referralPendingReward;\n    uint referralPendingPandaiBurn;\n\n    uint depositUnlockTimestamp;\n  }\n\n  event TreasuryWithdraw(uint usdtAmount);\n  event TreasuryDeposit(uint usdtAmount);\n  event LpAddressChanged(address indexed previousLp, address indexed newLp);\n  event ApprovalLevelChanged(address indexed userAddress, ApprovalLevel previousApprovalLevel, ApprovalLevel newApprovalLevel);\n\n  event UserDeposited(address indexed userAddress, uint usdtAmount);\n  event UserRequestedWithdraw(address indexed userAddress, uint usdtAmount);\n  event UserWithdrew(address indexed userAddress, uint usdtAmount);\n\n  event PandaiBurnedForUserRewardClaim(address indexed userAddress, uint pandaiAmount);\n  event PandaiBurnedForReferralRewardClaim(address indexed userAddress, uint pandaiAmount);\n  event PandaiBurnedForWithdrawFee(address indexed userAddress, uint pandaiAmount);\n  \n  event UserRewardClaimed(address indexed userAddress, uint usdtAmount);\n  event ReferralRewardClaimed(address indexed userAddress, uint usdtAmount);\n\n  constructor(address usdtTokenAddress, address pandaiTokenAddress) {\n    usdtToken = IERC20Extended(usdtTokenAddress);\n    pandaiToken = IERC20Burnable(pandaiTokenAddress);\n\n    tierMap[1] = Tier(  100, false, 100, 1000,   7 * BASE_PERIOD, 4000);\n    tierMap[2] = Tier(  500, false, 125,  900,  30 * BASE_PERIOD, 3500);\n    tierMap[3] = Tier( 1000, false, 150,  800,  60 * BASE_PERIOD, 3000);\n    tierMap[4] = Tier( 5000,  true, 180,  650,  90 * BASE_PERIOD, 2500);\n    tierMap[5] = Tier(10000,  true, 220,  500, 180 * BASE_PERIOD, 2000);\n\n    _grantRole(DEFAULT_ADMIN_ROLE, msg.sender);\n  }\n \n  /**\n    returns info about given user. Returns stored values (stored in mapping) and calculated values (contract calculates them from stored values)\n  */\n  function getUser(address userAddress) external view returns (User memory stored, UserCalculated memory calculated) {    \n    require(userAddress != address(0), \"empty address\");    \n\n    uint8 tier = getUserTier(userAddress);\n    uint userReward = userMap[msg.sender].userPendingReward + getNewUserReward(userAddress, tier);\n    uint referralReward = userMap[userAddress].referralPendingReward + getNewReferralReward(userAddress);\n    return (\n      userMap[userAddress],\n      UserCalculated(\n        tier,\n        userReward,\n        getUserRewardClaimFeePandai(userReward, tier),\n        referralReward,\n        getReferralRewardClaimFeePandai(referralReward),\n        getDepositUnlockTimestamp(userAddress, tier)\n      )\n    );\n  }\n\n  /**\n    returns info about given tier.\n  */\n  function getTier(uint8 tier) external view returns (Tier memory) {\n    require(tier >= 1 && tier <= 5, \"invalid tier\");\n    return tierMap[tier];\n  }\n\n  /**\n    returns address of liquidty pool that swaps USDT and PANDAI. Used to define PANDAI price in USDT.\n  */\n  function getLpAddress() external view returns (address) {\n    return lpAddress;\n  }\n\n  /**\n    paused contract prohibits deposits\n  */\n  function pause() external onlyRole(DEFAULT_ADMIN_ROLE) {\n    _pause();\n  }\n\n  /**\n    unpauses paused contract\n  */\n  function unpause() external onlyRole(DEFAULT_ADMIN_ROLE) {\n    _unpause();\n  }\n\n  /**\n    sets address for liquidity pool\n  */\n  function setLpAddress(address newLpAddress) external onlyRole(DEFAULT_ADMIN_ROLE) {\n    require(newLpAddress != address(0), \"empty address\");\n    require(usdtToken.balanceOf(newLpAddress) > 0, \"no usdt in lp\");\n    require(pandaiToken.balanceOf(newLpAddress) > 0, \"no pandai in lp\");\n    \n    address oldLpAddress = lpAddress;\n    lpAddress = newLpAddress;\n    emit LpAddressChanged(oldLpAddress, newLpAddress);\n  }\n\n  /**\n    withdraws USDT from contract\n  */\n  function withdrawTreasury(uint usdtAmount) external onlyRole(DEFAULT_ADMIN_ROLE) {\n    require(usdtToken.transfer(msg.sender, usdtAmount), \"usdt transfer\");\n    emit TreasuryWithdraw(usdtAmount);\n  }\n\n  /**\n    deposits USDT from contract. USDT can be sent in ordinary transaction, this event is helpful to use as it produces event.\n  */\n  function depositTreasury(uint usdtAmount) external onlyRole(DEFAULT_ADMIN_ROLE) {\n    require(usdtToken.transferFrom(msg.sender, address(this), usdtAmount), \"usdt transfer\");\n    emit TreasuryDeposit(usdtAmount);\n  }\n\n  /**\n    sets ApprovalLevel of given address. \n  */\n  function setUserApprovalLevel(address userAddress, ApprovalLevel newApprovalLevel) external onlyRole(UPDATER_ROLE) {\n    ApprovalLevel oldApprovalLevel = ApprovalLevel(userMap[userAddress].approvalLevel);\n    userMap[userAddress].approvalLevel = uint8(newApprovalLevel);\n    emit ApprovalLevelChanged(userAddress, oldApprovalLevel, newApprovalLevel);\n  }\n\n  /**\n    deposits USDT, default referral is used\n  */\n  function deposit(uint usdtDepositAmount) external {\n    depositWithReferral(usdtDepositAmount, DEFAULT_REFERRAL);\n  }\n\n  /**\n    deposits USDT, referralAddress is used only if no referral is set for address making deposit (the first deposit of the address).\n  */\n  function depositWithReferral(uint usdtDepositAmount, address referralAddress) public whenNotPaused {\n    require(msg.sender == tx.origin, \"calls from contract disallowed\");\n    require(userMap[msg.sender].deposit + usdtDepositAmount >= tierMap[1].minDeposit * (10 ** usdtToken.decimals()), \"small deposit\");\n    require(referralAddress != address(0), \"invalid referral\");\n    require(referralAddress != msg.sender, \"invalid referral\");\n\n    // assign referral\n    if (userMap[msg.sender].referral == address(0)) {\n      userMap[msg.sender].referral = referralAddress;\n    }\n\n    // update user\n    uint8 tier = getUserTier(msg.sender);\n    if (tier > 0) {\n      userMap[msg.sender].userPendingReward += getNewUserReward(msg.sender, tier);\n    }\n\n    userMap[msg.sender].deposit += usdtDepositAmount;\n    userMap[msg.sender].lastDepositTimestamp = block.timestamp;\n    if (!isToday(userMap[msg.sender].lastClaimTimestamp)) {\n      userMap[msg.sender].dailyClaim = 0;\n    }\n    userMap[msg.sender].lastClaimTimestamp = block.timestamp;\n    \n    // update referral\n    uint newReferralReward = getNewReferralReward(userMap[msg.sender].referral);\n    userMap[userMap[msg.sender].referral].referralDeposit += usdtDepositAmount;\n    userMap[userMap[msg.sender].referral].referralPendingReward += newReferralReward;\n    userMap[userMap[msg.sender].referral].referralLastUpdateTimestamp = block.timestamp;\n    \n    // transfer USDT\n    require(usdtToken.transferFrom(msg.sender, address(this), usdtDepositAmount), \"usdt transfer\");\n    emit UserDeposited(msg.sender, usdtDepositAmount);\n  }\n\n  /**\n    requests USDT withdraw. USDTs will be available for withdraw (other method) after WITHDRAW_PROCESSING_TIME.\n    In case there's already a withdraw pending, it's increased by usdtWithdrawAmount and WITHDRAW_PROCESSING_TIME is reset.\n  */\n  function requestWithdraw(uint usdtWithdrawAmount) external {\n    require(msg.sender == tx.origin, \"calls from contract disallowed\");\n    require(usdtWithdrawAmount <= userMap[msg.sender].deposit, \"withdraw bigger than deposit\");\n    if (usdtWithdrawAmount < userMap[msg.sender].deposit) {\n      require(userMap[msg.sender].deposit - usdtWithdrawAmount >= tierMap[1].minDeposit * (10 ** usdtToken.decimals()), \"small deposit remaining\");\n    }\n\n    uint8 tier = getUserTier(msg.sender);\n    require(tier > 0, \"invalid tier\");\n\n    // if withdraw is called before lockup, there's a fee paid in PANDAI\n    uint withdrawFeePandai;\n    if (getDepositUnlockTimestamp(msg.sender, tier) > block.timestamp) {\n      withdrawFeePandai = getPandaiWorthOf(usdtWithdrawAmount * tierMap[tier].lockupBreachFeeBps / MIRIAD);\n\n      require(pandaiToken.balanceOf(msg.sender) >= withdrawFeePandai, \"pandai balance\");\n      require(pandaiToken.allowance(msg.sender, address(this)) >= withdrawFeePandai, \"pandai allowance\");\n    }\n\n    // update user\n    userMap[msg.sender].userPendingReward += getNewUserReward(msg.sender, tier);\n    if (!isToday(userMap[msg.sender].lastClaimTimestamp)) {\n      userMap[msg.sender].dailyClaim = 0;\n    }\n    userMap[msg.sender].lastClaimTimestamp = block.timestamp;\n\n    userMap[msg.sender].deposit -= usdtWithdrawAmount;\n    userMap[msg.sender].withdrawRequestAmount += usdtWithdrawAmount;\n    userMap[msg.sender].withdrawPossibleTimestamp = block.timestamp + WITHDRAW_PROCESSING_TIME;\n    \n    // update referral\n    userMap[userMap[msg.sender].referral].referralPendingReward += getNewReferralReward(userMap[msg.sender].referral);\n    userMap[userMap[msg.sender].referral].referralDeposit -= usdtWithdrawAmount;\n    userMap[userMap[msg.sender].referral].referralLastUpdateTimestamp = block.timestamp;\n\n    // if needed, burn PANDAI\n    if (withdrawFeePandai > 0) {\n      pandaiToken.burnFrom(msg.sender, withdrawFeePandai);\n      emit PandaiBurnedForWithdrawFee(msg.sender, withdrawFeePandai);\n    }\n    emit UserRequestedWithdraw(msg.sender, usdtWithdrawAmount);\n  }\n\n  /**\n    withdraws requested amount of USDT\n  */\n  function withdraw() external {\n    require(userMap[msg.sender].withdrawRequestAmount > 0, \"no withdraw requested\");\n    require(userMap[msg.sender].withdrawPossibleTimestamp <= block.timestamp, \"withdraw not possible yet\");\n\n    // update user\n    uint usdtWithdrawAmount = userMap[msg.sender].withdrawRequestAmount;\n    userMap[msg.sender].withdrawRequestAmount = 0;\n    userMap[msg.sender].withdrawPossibleTimestamp = 0;\n\n    // transfer USDT\n    require(usdtToken.transfer(msg.sender, usdtWithdrawAmount), \"usdt transfer\");\n    emit UserWithdrew(msg.sender, usdtWithdrawAmount);\n  }\n\n  /**\n    claims user reward (derived from it's own deposit) and\n    referral reward (derived from deposits of users with referral being the caller)\n  */\n  function claim() external whenNotPaused {\n    require(msg.sender == tx.origin, \"calls from contract disallowed\");\n\n    uint8 tier = getUserTier(msg.sender);\n    uint userClaimUsdt = userMap[msg.sender].userPendingReward + getNewUserReward(msg.sender, tier);\n    uint referralClaimUsdt = userMap[msg.sender].referralPendingReward + getNewReferralReward(msg.sender);\n    require(userClaimUsdt + referralClaimUsdt > 0, \"empty claim\");\n    require(canClaim(msg.sender, userClaimUsdt + referralClaimUsdt), \"user cannot claim\");\n    \n    uint userClaimFeePandai = getUserRewardClaimFeePandai(userClaimUsdt, tier);\n    uint referralClaimFeePandai = getReferralRewardClaimFeePandai(referralClaimUsdt);\n    require(pandaiToken.balanceOf(msg.sender) >= userClaimFeePandai + referralClaimFeePandai, \"pandai balance\");\n    require(pandaiToken.allowance(msg.sender, address(this)) >= userClaimFeePandai + referralClaimFeePandai, \"pandai allowance\");\n\n    // update user\n    userMap[msg.sender].userPendingReward = 0;\n    if (isToday(userMap[msg.sender].lastClaimTimestamp)) {\n      userMap[msg.sender].dailyClaim += userClaimUsdt + referralClaimUsdt;\n    } else {\n      userMap[msg.sender].dailyClaim = userClaimUsdt + referralClaimUsdt;\n    }\n    userMap[msg.sender].totalClaim += userClaimUsdt + referralClaimUsdt;\n    userMap[msg.sender].lastClaimTimestamp = block.timestamp;\n\n    // update referral\n    userMap[msg.sender].referralPendingReward = 0;\n    userMap[msg.sender].referralLastUpdateTimestamp = block.timestamp;\n\n    // transfer USDT, burn PANDAI\n    require(usdtToken.transfer(msg.sender, userClaimUsdt + referralClaimUsdt), \"usdt transfer\");\n    pandaiToken.burnFrom(msg.sender, userClaimFeePandai + referralClaimFeePandai);\n    if (userClaimUsdt > 0) {\n      emit UserRewardClaimed(msg.sender, userClaimUsdt);\n      emit PandaiBurnedForUserRewardClaim(msg.sender, userClaimFeePandai);\n    }\n    if (referralClaimUsdt > 0) {\n      emit ReferralRewardClaimed(msg.sender, referralClaimUsdt);\n      emit PandaiBurnedForReferralRewardClaim(msg.sender, referralClaimFeePandai);\n    }\n  }\n\n  /**\n    checks whether given user is able claiming given amount of usdt. Depends on user approvalLevel and his dailyClaim\n  */\n  function canClaim(address userAddress, uint claimUsdt) private view returns (bool) {\n    ApprovalLevel approvalLevel = ApprovalLevel(userMap[userAddress].approvalLevel);\n    if (approvalLevel == ApprovalLevel.Approved) {\n      return true;\n    } else if (approvalLevel == ApprovalLevel.Forbidden) {\n      return false;\n    }\n    if (isToday(userMap[userAddress].lastClaimTimestamp)) {\n      claimUsdt += userMap[userAddress].dailyClaim;\n    }\n    return claimUsdt / (10 ** usdtToken.decimals()) <= DAILY_CLAIM_LIMIT;\n  }\n\n  /**\n    simple check whether given timestamp falls into same day\n  */\n  function isToday(uint timestamp) private view returns (bool) {\n    return block.timestamp / BASE_PERIOD == timestamp / BASE_PERIOD;\n  }\n\n  /**\n    converts USDT into pandai according to current price in the liquity pool\n  */\n  function getPandaiWorthOf(uint usdtAmount) private view returns (uint) {\n    if (usdtAmount == 0) {\n      return 0;\n    }\n    uint usdtInLp = usdtToken.balanceOf(lpAddress);\n    uint pandaiInLp = pandaiToken.balanceOf(lpAddress);\n    require (usdtInLp * pandaiInLp > 0, \"empty lp\");\n\n    return usdtAmount * pandaiInLp / usdtInLp;\n  }\n\n  /**\n    gets user tier from his deposit\n  */\n  function getUserTier(address userAddress) private view returns (uint8) {\n    uint userDeposit = userMap[userAddress].deposit / (10 ** usdtToken.decimals());\n    for (uint8 i = 5; i >= 1; i--) {\n      if (userDeposit >= tierMap[i].minDeposit) {\n        return i;\n      }\n    }\n    return 0;\n  }\n\n  /**\n    claculates user reward that follows eiterh simple or compounc interest. \n    In case of compound iterest, the calculatio follows taylor series for exponential\n  */\n  function getNewUserReward(address userAddress, uint8 userTier) private view returns (uint) {\n    if (userTier == 0) {\n      return 0;\n    }\n    uint g = tierMap[userTier].monthlyGainBps;\n    uint t = block.timestamp - userMap[userAddress].lastClaimTimestamp;\n    uint f1 = userMap[userAddress].deposit * g * t / MIRIAD / INTEREST_PERIOD;\n    if (!tierMap[userTier].compoundInterest) {\n      return f1;\n    }\n    uint f2 = f1 * g * t / MIRIAD / INTEREST_PERIOD / 2;\n    uint f3 = f2 * g * t / MIRIAD / INTEREST_PERIOD / 3;\n    return f1 + f2 + f3;\n  }\n\n  /**\n    how much PANDAI user in given tier should burn when claiming given user reward\n  */\n  function getUserRewardClaimFeePandai(uint userRewardUsdt, uint8 userTier) private view returns (uint) {\n    if (userTier == 0) { // user withdrew everything\n      userTier = 1;\n    }\n    return getPandaiWorthOf(userRewardUsdt * tierMap[userTier].claimFeeBps / MIRIAD);\n  }\n\n  /**\n    calculates referral reward from time when the reward has been updated the last\n  */\n  function getNewReferralReward(address userAddress) private view returns (uint) {\n    uint t = block.timestamp - userMap[userAddress].referralLastUpdateTimestamp;\n    return userMap[userAddress].referralDeposit * REFERRAL_MONTHLY_GAIN_BPS * t / MIRIAD / INTEREST_PERIOD;\n  }\n\n  /**\n    how much PANDAI user should burn when claiming given referral reward \n  */\n  function getReferralRewardClaimFeePandai(uint referralRewardUsdt) private view returns (uint) {\n    return getPandaiWorthOf(referralRewardUsdt * REFERRAL_CLAIM_FEE_BPS / MIRIAD);\n  }\n\n  /**\n    timestamp when it's no longer required to burn PANDAI when requesting withdraw\n  */\n  function getDepositUnlockTimestamp(address userAddress, uint8 userTier) private view returns (uint) {\n    if (userTier == 0) {\n      return 0;\n    }\n    return userMap[userAddress].lastDepositTimestamp + tierMap[userTier].lockupSeconds;\n  }\n\n}\n",
  "sourcePath": "/Users/jlochman/Documents/PandAI/Earn SC/contracts/PandAIEarnV1.sol",
  "compiler": {
    "name": "solc",
    "version": "0.8.19+commit.7dd6d404.Emscripten.clang"
  },
  "schemaVersion": "3.4.13",
  "updatedAt": "2023-05-01T14:42:54.237Z",
  "devdoc": {
    "events": {
      "Paused(address)": {
        "details": "Emitted when the pause is triggered by `account`."
      },
      "RoleAdminChanged(bytes32,bytes32,bytes32)": {
        "details": "Emitted when `newAdminRole` is set as ``role``'s admin role, replacing `previousAdminRole` `DEFAULT_ADMIN_ROLE` is the starting admin for all roles, despite {RoleAdminChanged} not being emitted signaling this. _Available since v3.1._"
      },
      "RoleGranted(bytes32,address,address)": {
        "details": "Emitted when `account` is granted `role`. `sender` is the account that originated the contract call, an admin role bearer except when using {AccessControl-_setupRole}."
      },
      "RoleRevoked(bytes32,address,address)": {
        "details": "Emitted when `account` is revoked `role`. `sender` is the account that originated the contract call:   - if using `revokeRole`, it is the admin role bearer   - if using `renounceRole`, it is the role bearer (i.e. `account`)"
      },
      "Unpaused(address)": {
        "details": "Emitted when the pause is lifted by `account`."
      }
    },
    "kind": "dev",
    "methods": {
      "getRoleAdmin(bytes32)": {
        "details": "Returns the admin role that controls `role`. See {grantRole} and {revokeRole}. To change a role's admin, use {_setRoleAdmin}."
      },
      "grantRole(bytes32,address)": {
        "details": "Grants `role` to `account`. If `account` had not been already granted `role`, emits a {RoleGranted} event. Requirements: - the caller must have ``role``'s admin role. May emit a {RoleGranted} event."
      },
      "hasRole(bytes32,address)": {
        "details": "Returns `true` if `account` has been granted `role`."
      },
      "paused()": {
        "details": "Returns true if the contract is paused, and false otherwise."
      },
      "renounceRole(bytes32,address)": {
        "details": "Revokes `role` from the calling account. Roles are often managed via {grantRole} and {revokeRole}: this function's purpose is to provide a mechanism for accounts to lose their privileges if they are compromised (such as when a trusted device is misplaced). If the calling account had been revoked `role`, emits a {RoleRevoked} event. Requirements: - the caller must be `account`. May emit a {RoleRevoked} event."
      },
      "revokeRole(bytes32,address)": {
        "details": "Revokes `role` from `account`. If `account` had been granted `role`, emits a {RoleRevoked} event. Requirements: - the caller must have ``role``'s admin role. May emit a {RoleRevoked} event."
      },
      "supportsInterface(bytes4)": {
        "details": "See {IERC165-supportsInterface}."
      }
    },
    "version": 1
  },
  "userdoc": {
    "kind": "user",
    "methods": {
      "claim()": {
        "notice": "claims user reward (derived from it's own deposit) and referral reward (derived from deposits of users with referral being the caller)"
      },
      "deposit(uint256)": {
        "notice": "deposits USDT, default referral is used"
      },
      "depositTreasury(uint256)": {
        "notice": "deposits USDT from contract. USDT can be sent in ordinary transaction, this event is helpful to use as it produces event."
      },
      "depositWithReferral(uint256,address)": {
        "notice": "deposits USDT, referralAddress is used only if no referral is set for address making deposit (the first deposit of the address)."
      },
      "getLpAddress()": {
        "notice": "returns address of liquidty pool that swaps USDT and PANDAI. Used to define PANDAI price in USDT."
      },
      "getTier(uint8)": {
        "notice": "returns info about given tier."
      },
      "getUser(address)": {
        "notice": "returns info about given user. Returns stored values (stored in mapping) and calculated values (contract calculates them from stored values)"
      },
      "pause()": {
        "notice": "paused contract prohibits deposits"
      },
      "requestWithdraw(uint256)": {
        "notice": "requests USDT withdraw. USDTs will be available for withdraw (other method) after WITHDRAW_PROCESSING_TIME. In case there's already a withdraw pending, it's increased by usdtWithdrawAmount and WITHDRAW_PROCESSING_TIME is reset."
      },
      "setLpAddress(address)": {
        "notice": "sets address for liquidity pool"
      },
      "setUserApprovalLevel(address,uint8)": {
        "notice": "sets ApprovalLevel of given address. "
      },
      "unpause()": {
        "notice": "unpauses paused contract"
      },
      "withdraw()": {
        "notice": "withdraws requested amount of USDT"
      },
      "withdrawTreasury(uint256)": {
        "notice": "withdraws USDT from contract"
      }
    },
    "version": 1
  }
}