{
  "contractName": "PandAIEarn",
  "abi": [
    {
      "inputs": [
        {
          "internalType": "address",
          "name": "usdtTokenAddress",
          "type": "address"
        },
        {
          "internalType": "address",
          "name": "pandaiTokenAddress",
          "type": "address"
        }
      ],
      "stateMutability": "nonpayable",
      "type": "constructor"
    },
    {
      "anonymous": false,
      "inputs": [
        {
          "indexed": true,
          "internalType": "address",
          "name": "userAddress",
          "type": "address"
        },
        {
          "indexed": false,
          "internalType": "enum PandAIEarn.ApprovalLevel",
          "name": "previousApprovalLevel",
          "type": "uint8"
        },
        {
          "indexed": false,
          "internalType": "enum PandAIEarn.ApprovalLevel",
          "name": "newApprovalLevel",
          "type": "uint8"
        }
      ],
      "name": "ApprovalLevelChanged",
      "type": "event"
    },
    {
      "anonymous": false,
      "inputs": [
        {
          "indexed": true,
          "internalType": "address",
          "name": "previousLp",
          "type": "address"
        },
        {
          "indexed": true,
          "internalType": "address",
          "name": "newLp",
          "type": "address"
        }
      ],
      "name": "LpAddressChanged",
      "type": "event"
    },
    {
      "anonymous": false,
      "inputs": [
        {
          "indexed": true,
          "internalType": "address",
          "name": "userAddress",
          "type": "address"
        },
        {
          "indexed": false,
          "internalType": "uint256",
          "name": "pandaiAmount",
          "type": "uint256"
        }
      ],
      "name": "PandaiBurnedForReferralRewardClaim",
      "type": "event"
    },
    {
      "anonymous": false,
      "inputs": [
        {
          "indexed": true,
          "internalType": "address",
          "name": "userAddress",
          "type": "address"
        },
        {
          "indexed": false,
          "internalType": "uint256",
          "name": "pandaiAmount",
          "type": "uint256"
        }
      ],
      "name": "PandaiBurnedForUserRewardClaim",
      "type": "event"
    },
    {
      "anonymous": false,
      "inputs": [
        {
          "indexed": true,
          "internalType": "address",
          "name": "userAddress",
          "type": "address"
        },
        {
          "indexed": false,
          "internalType": "uint256",
          "name": "pandaiAmount",
          "type": "uint256"
        }
      ],
      "name": "PandaiBurnedForWithdrawFee",
      "type": "event"
    },
    {
      "anonymous": false,
      "inputs": [
        {
          "indexed": false,
          "internalType": "address",
          "name": "account",
          "type": "address"
        }
      ],
      "name": "Paused",
      "type": "event"
    },
    {
      "anonymous": false,
      "inputs": [
        {
          "indexed": true,
          "internalType": "address",
          "name": "userAddress",
          "type": "address"
        },
        {
          "indexed": false,
          "internalType": "uint256",
          "name": "usdtAmount",
          "type": "uint256"
        }
      ],
      "name": "ReferralRewardClaimed",
      "type": "event"
    },
    {
      "anonymous": false,
      "inputs": [
        {
          "indexed": true,
          "internalType": "bytes32",
          "name": "role",
          "type": "bytes32"
        },
        {
          "indexed": true,
          "internalType": "bytes32",
          "name": "previousAdminRole",
          "type": "bytes32"
        },
        {
          "indexed": true,
          "internalType": "bytes32",
          "name": "newAdminRole",
          "type": "bytes32"
        }
      ],
      "name": "RoleAdminChanged",
      "type": "event"
    },
    {
      "anonymous": false,
      "inputs": [
        {
          "indexed": true,
          "internalType": "bytes32",
          "name": "role",
          "type": "bytes32"
        },
        {
          "indexed": true,
          "internalType": "address",
          "name": "account",
          "type": "address"
        },
        {
          "indexed": true,
          "internalType": "address",
          "name": "sender",
          "type": "address"
        }
      ],
      "name": "RoleGranted",
      "type": "event"
    },
    {
      "anonymous": false,
      "inputs": [
        {
          "indexed": true,
          "internalType": "bytes32",
          "name": "role",
          "type": "bytes32"
        },
        {
          "indexed": true,
          "internalType": "address",
          "name": "account",
          "type": "address"
        },
        {
          "indexed": true,
          "internalType": "address",
          "name": "sender",
          "type": "address"
        }
      ],
      "name": "RoleRevoked",
      "type": "event"
    },
    {
      "anonymous": false,
      "inputs": [
        {
          "indexed": false,
          "internalType": "uint256",
          "name": "usdtAmount",
          "type": "uint256"
        }
      ],
      "name": "TreasuryDeposit",
      "type": "event"
    },
    {
      "anonymous": false,
      "inputs": [
        {
          "indexed": false,
          "internalType": "uint256",
          "name": "usdtAmount",
          "type": "uint256"
        }
      ],
      "name": "TreasuryWithdraw",
      "type": "event"
    },
    {
      "anonymous": false,
      "inputs": [
        {
          "indexed": false,
          "internalType": "address",
          "name": "account",
          "type": "address"
        }
      ],
      "name": "Unpaused",
      "type": "event"
    },
    {
      "anonymous": false,
      "inputs": [
        {
          "indexed": true,
          "internalType": "address",
          "name": "userAddress",
          "type": "address"
        },
        {
          "indexed": false,
          "internalType": "uint256",
          "name": "usdtAmount",
          "type": "uint256"
        }
      ],
      "name": "UserDeposited",
      "type": "event"
    },
    {
      "anonymous": false,
      "inputs": [
        {
          "indexed": true,
          "internalType": "address",
          "name": "userAddress",
          "type": "address"
        },
        {
          "indexed": false,
          "internalType": "uint256",
          "name": "usdtAmount",
          "type": "uint256"
        }
      ],
      "name": "UserRequestedWithdraw",
      "type": "event"
    },
    {
      "anonymous": false,
      "inputs": [
        {
          "indexed": true,
          "internalType": "address",
          "name": "userAddress",
          "type": "address"
        },
        {
          "indexed": false,
          "internalType": "uint256",
          "name": "usdtAmount",
          "type": "uint256"
        }
      ],
      "name": "UserRewardClaimed",
      "type": "event"
    },
    {
      "anonymous": false,
      "inputs": [
        {
          "indexed": true,
          "internalType": "address",
          "name": "userAddress",
          "type": "address"
        },
        {
          "indexed": false,
          "internalType": "uint256",
          "name": "usdtAmount",
          "type": "uint256"
        }
      ],
      "name": "UserWithdrew",
      "type": "event"
    },
    {
      "inputs": [],
      "name": "DAILY_CLAIM_LIMIT",
      "outputs": [
        {
          "internalType": "uint256",
          "name": "",
          "type": "uint256"
        }
      ],
      "stateMutability": "view",
      "type": "function"
    },
    {
      "inputs": [],
      "name": "DEFAULT_ADMIN_ROLE",
      "outputs": [
        {
          "internalType": "bytes32",
          "name": "",
          "type": "bytes32"
        }
      ],
      "stateMutability": "view",
      "type": "function"
    },
    {
      "inputs": [],
      "name": "DEFAULT_REFERRAL",
      "outputs": [
        {
          "internalType": "address",
          "name": "",
          "type": "address"
        }
      ],
      "stateMutability": "view",
      "type": "function"
    },
    {
      "inputs": [],
      "name": "INTEREST_PERIOD",
      "outputs": [
        {
          "internalType": "uint256",
          "name": "",
          "type": "uint256"
        }
      ],
      "stateMutability": "view",
      "type": "function"
    },
    {
      "inputs": [],
      "name": "MIRIAD",
      "outputs": [
        {
          "internalType": "uint256",
          "name": "",
          "type": "uint256"
        }
      ],
      "stateMutability": "view",
      "type": "function"
    },
    {
      "inputs": [],
      "name": "REFERRAL_CLAIM_FEE_BPS",
      "outputs": [
        {
          "internalType": "uint256",
          "name": "",
          "type": "uint256"
        }
      ],
      "stateMutability": "view",
      "type": "function"
    },
    {
      "inputs": [],
      "name": "REFERRAL_MONTHLY_GAIN_BPS",
      "outputs": [
        {
          "internalType": "uint256",
          "name": "",
          "type": "uint256"
        }
      ],
      "stateMutability": "view",
      "type": "function"
    },
    {
      "inputs": [],
      "name": "UPDATER_ROLE",
      "outputs": [
        {
          "internalType": "bytes32",
          "name": "",
          "type": "bytes32"
        }
      ],
      "stateMutability": "view",
      "type": "function"
    },
    {
      "inputs": [],
      "name": "WITHDRAW_PROCESSING_TIME",
      "outputs": [
        {
          "internalType": "uint256",
          "name": "",
          "type": "uint256"
        }
      ],
      "stateMutability": "view",
      "type": "function"
    },
    {
      "inputs": [
        {
          "internalType": "bytes32",
          "name": "role",
          "type": "bytes32"
        }
      ],
      "name": "getRoleAdmin",
      "outputs": [
        {
          "internalType": "bytes32",
          "name": "",
          "type": "bytes32"
        }
      ],
      "stateMutability": "view",
      "type": "function"
    },
    {
      "inputs": [
        {
          "internalType": "bytes32",
          "name": "role",
          "type": "bytes32"
        },
        {
          "internalType": "address",
          "name": "account",
          "type": "address"
        }
      ],
      "name": "grantRole",
      "outputs": [],
      "stateMutability": "nonpayable",
      "type": "function"
    },
    {
      "inputs": [
        {
          "internalType": "bytes32",
          "name": "role",
          "type": "bytes32"
        },
        {
          "internalType": "address",
          "name": "account",
          "type": "address"
        }
      ],
      "name": "hasRole",
      "outputs": [
        {
          "internalType": "bool",
          "name": "",
          "type": "bool"
        }
      ],
      "stateMutability": "view",
      "type": "function"
    },
    {
      "inputs": [],
      "name": "paused",
      "outputs": [
        {
          "internalType": "bool",
          "name": "",
          "type": "bool"
        }
      ],
      "stateMutability": "view",
      "type": "function"
    },
    {
      "inputs": [
        {
          "internalType": "bytes32",
          "name": "role",
          "type": "bytes32"
        },
        {
          "internalType": "address",
          "name": "account",
          "type": "address"
        }
      ],
      "name": "renounceRole",
      "outputs": [],
      "stateMutability": "nonpayable",
      "type": "function"
    },
    {
      "inputs": [
        {
          "internalType": "bytes32",
          "name": "role",
          "type": "bytes32"
        },
        {
          "internalType": "address",
          "name": "account",
          "type": "address"
        }
      ],
      "name": "revokeRole",
      "outputs": [],
      "stateMutability": "nonpayable",
      "type": "function"
    },
    {
      "inputs": [
        {
          "internalType": "bytes4",
          "name": "interfaceId",
          "type": "bytes4"
        }
      ],
      "name": "supportsInterface",
      "outputs": [
        {
          "internalType": "bool",
          "name": "",
          "type": "bool"
        }
      ],
      "stateMutability": "view",
      "type": "function"
    },
    {
      "inputs": [
        {
          "internalType": "uint8",
          "name": "",
          "type": "uint8"
        }
      ],
      "name": "tierMap",
      "outputs": [
        {
          "internalType": "uint256",
          "name": "minDeposit",
          "type": "uint256"
        },
        {
          "internalType": "bool",
          "name": "compoundInterest",
          "type": "bool"
        },
        {
          "internalType": "uint256",
          "name": "monthlyGainBps",
          "type": "uint256"
        },
        {
          "internalType": "uint256",
          "name": "claimFeeBps",
          "type": "uint256"
        },
        {
          "internalType": "uint256",
          "name": "lockupSeconds",
          "type": "uint256"
        },
        {
          "internalType": "uint256",
          "name": "lockupBreachFeeBps",
          "type": "uint256"
        }
      ],
      "stateMutability": "view",
      "type": "function"
    },
    {
      "inputs": [
        {
          "internalType": "address",
          "name": "",
          "type": "address"
        }
      ],
      "name": "userMap",
      "outputs": [
        {
          "internalType": "address",
          "name": "referral",
          "type": "address"
        },
        {
          "internalType": "uint8",
          "name": "approvalLevel",
          "type": "uint8"
        },
        {
          "internalType": "uint256",
          "name": "deposit",
          "type": "uint256"
        },
        {
          "internalType": "uint256",
          "name": "lastDepositTimestamp",
          "type": "uint256"
        },
        {
          "internalType": "uint256",
          "name": "withdrawRequestAmount",
          "type": "uint256"
        },
        {
          "internalType": "uint256",
          "name": "withdrawPossibleTimestamp",
          "type": "uint256"
        },
        {
          "internalType": "uint256",
          "name": "dailyClaim",
          "type": "uint256"
        },
        {
          "internalType": "uint256",
          "name": "totalClaim",
          "type": "uint256"
        },
        {
          "internalType": "uint256",
          "name": "lastClaimTimestamp",
          "type": "uint256"
        },
        {
          "internalType": "uint256",
          "name": "referralDeposit",
          "type": "uint256"
        },
        {
          "internalType": "uint256",
          "name": "referralPendingReward",
          "type": "uint256"
        },
        {
          "internalType": "uint256",
          "name": "referralLastUpdateTimestamp",
          "type": "uint256"
        }
      ],
      "stateMutability": "view",
      "type": "function"
    },
    {
      "inputs": [
        {
          "internalType": "address",
          "name": "userAddress",
          "type": "address"
        }
      ],
      "name": "getUser",
      "outputs": [
        {
          "components": [
            {
              "internalType": "address",
              "name": "referral",
              "type": "address"
            },
            {
              "internalType": "uint8",
              "name": "approvalLevel",
              "type": "uint8"
            },
            {
              "internalType": "uint256",
              "name": "deposit",
              "type": "uint256"
            },
            {
              "internalType": "uint256",
              "name": "lastDepositTimestamp",
              "type": "uint256"
            },
            {
              "internalType": "uint256",
              "name": "withdrawRequestAmount",
              "type": "uint256"
            },
            {
              "internalType": "uint256",
              "name": "withdrawPossibleTimestamp",
              "type": "uint256"
            },
            {
              "internalType": "uint256",
              "name": "dailyClaim",
              "type": "uint256"
            },
            {
              "internalType": "uint256",
              "name": "totalClaim",
              "type": "uint256"
            },
            {
              "internalType": "uint256",
              "name": "lastClaimTimestamp",
              "type": "uint256"
            },
            {
              "internalType": "uint256",
              "name": "referralDeposit",
              "type": "uint256"
            },
            {
              "internalType": "uint256",
              "name": "referralPendingReward",
              "type": "uint256"
            },
            {
              "internalType": "uint256",
              "name": "referralLastUpdateTimestamp",
              "type": "uint256"
            }
          ],
          "internalType": "struct PandAIEarn.User",
          "name": "stored",
          "type": "tuple"
        },
        {
          "components": [
            {
              "internalType": "uint8",
              "name": "tier",
              "type": "uint8"
            },
            {
              "internalType": "uint256",
              "name": "userPendingReward",
              "type": "uint256"
            },
            {
              "internalType": "uint256",
              "name": "userPendingPandaiBurn",
              "type": "uint256"
            },
            {
              "internalType": "uint256",
              "name": "referralPendingReward",
              "type": "uint256"
            },
            {
              "internalType": "uint256",
              "name": "referralPendingPandaiBurn",
              "type": "uint256"
            },
            {
              "internalType": "uint256",
              "name": "depositUnlockTimestamp",
              "type": "uint256"
            }
          ],
          "internalType": "struct PandAIEarn.UserCalculated",
          "name": "calculated",
          "type": "tuple"
        }
      ],
      "stateMutability": "view",
      "type": "function"
    },
    {
      "inputs": [
        {
          "internalType": "uint8",
          "name": "tier",
          "type": "uint8"
        }
      ],
      "name": "getTier",
      "outputs": [
        {
          "components": [
            {
              "internalType": "uint256",
              "name": "minDeposit",
              "type": "uint256"
            },
            {
              "internalType": "bool",
              "name": "compoundInterest",
              "type": "bool"
            },
            {
              "internalType": "uint256",
              "name": "monthlyGainBps",
              "type": "uint256"
            },
            {
              "internalType": "uint256",
              "name": "claimFeeBps",
              "type": "uint256"
            },
            {
              "internalType": "uint256",
              "name": "lockupSeconds",
              "type": "uint256"
            },
            {
              "internalType": "uint256",
              "name": "lockupBreachFeeBps",
              "type": "uint256"
            }
          ],
          "internalType": "struct PandAIEarn.Tier",
          "name": "",
          "type": "tuple"
        }
      ],
      "stateMutability": "view",
      "type": "function"
    },
    {
      "inputs": [],
      "name": "getLpAddress",
      "outputs": [
        {
          "internalType": "address",
          "name": "",
          "type": "address"
        }
      ],
      "stateMutability": "view",
      "type": "function"
    },
    {
      "inputs": [],
      "name": "pause",
      "outputs": [],
      "stateMutability": "nonpayable",
      "type": "function"
    },
    {
      "inputs": [],
      "name": "unpause",
      "outputs": [],
      "stateMutability": "nonpayable",
      "type": "function"
    },
    {
      "inputs": [
        {
          "internalType": "address",
          "name": "newLpAddress",
          "type": "address"
        }
      ],
      "name": "setLpAddress",
      "outputs": [],
      "stateMutability": "nonpayable",
      "type": "function"
    },
    {
      "inputs": [
        {
          "internalType": "uint256",
          "name": "usdtAmount",
          "type": "uint256"
        }
      ],
      "name": "withdrawTreasury",
      "outputs": [],
      "stateMutability": "nonpayable",
      "type": "function"
    },
    {
      "inputs": [
        {
          "internalType": "uint256",
          "name": "usdtAmount",
          "type": "uint256"
        }
      ],
      "name": "depositTreasury",
      "outputs": [],
      "stateMutability": "nonpayable",
      "type": "function"
    },
    {
      "inputs": [
        {
          "internalType": "address",
          "name": "userAddress",
          "type": "address"
        },
        {
          "internalType": "enum PandAIEarn.ApprovalLevel",
          "name": "newApprovalLevel",
          "type": "uint8"
        }
      ],
      "name": "setUserApprovalLevel",
      "outputs": [],
      "stateMutability": "nonpayable",
      "type": "function"
    },
    {
      "inputs": [
        {
          "internalType": "uint256",
          "name": "usdtDepositAmount",
          "type": "uint256"
        }
      ],
      "name": "deposit",
      "outputs": [],
      "stateMutability": "nonpayable",
      "type": "function"
    },
    {
      "inputs": [
        {
          "internalType": "uint256",
          "name": "usdtDepositAmount",
          "type": "uint256"
        },
        {
          "internalType": "address",
          "name": "referralAddress",
          "type": "address"
        }
      ],
      "name": "depositWithReferral",
      "outputs": [],
      "stateMutability": "nonpayable",
      "type": "function"
    },
    {
      "inputs": [
        {
          "internalType": "uint256",
          "name": "usdtWithdrawAmount",
          "type": "uint256"
        }
      ],
      "name": "requestWithdraw",
      "outputs": [],
      "stateMutability": "nonpayable",
      "type": "function"
    },
    {
      "inputs": [],
      "name": "withdraw",
      "outputs": [],
      "stateMutability": "nonpayable",
      "type": "function"
    },
    {
      "inputs": [],
      "name": "claimUser",
      "outputs": [],
      "stateMutability": "nonpayable",
      "type": "function"
    },
    {
      "inputs": [],
      "name": "claimReferral",
      "outputs": [],
      "stateMutability": "nonpayable",
      "type": "function"
    },
    {
      "inputs": [],
      "name": "claimAll",
      "outputs": [],
      "stateMutability": "nonpayable",
      "type": "function"
    }
  ],
  "bytecode": "0x60806040523480156200001157600080fd5b506040516200620f3803806200620f8339818101604052810190620000379190620005fa565b6000600160006101000a81548160ff021916908315150217905550816001806101000a81548173ffffffffffffffffffffffffffffffffffffffff021916908373ffffffffffffffffffffffffffffffffffffffff16021790555080600260006101000a81548173ffffffffffffffffffffffffffffffffffffffff021916908373ffffffffffffffffffffffffffffffffffffffff1602179055506040518060c0016040528060648152602001600015158152602001606481526020016103e8815260200162093a808152602001610fa081525060046000600160ff1681526020019081526020016000206000820151816000015560208201518160010160006101000a81548160ff02191690831515021790555060408201518160020155606082015181600301556080820151816004015560a082015181600501559050506040518060c001604052806101f48152602001600015158152602001607d8152602001610384815260200162278d008152602001610dac81525060046000600260ff1681526020019081526020016000206000820151816000015560208201518160010160006101000a81548160ff02191690831515021790555060408201518160020155606082015181600301556080820151816004015560a082015181600501559050506040518060c001604052806103e88152602001600015158152602001609681526020016103208152602001624f1a008152602001610bb881525060046000600360ff1681526020019081526020016000206000820151816000015560208201518160010160006101000a81548160ff02191690831515021790555060408201518160020155606082015181600301556080820151816004015560a082015181600501559050506040518060c00160405280611388815260200160011515815260200160b4815260200161028a81526020016276a70081526020016109c481525060046000600460ff1681526020019081526020016000206000820151816000015560208201518160010160006101000a81548160ff02191690831515021790555060408201518160020155606082015181600301556080820151816004015560a082015181600501559050506040518060c00160405280612710815260200160011515815260200160dc81526020016101f4815260200162ed4e0081526020016107d081525060046000600560ff1681526020019081526020016000206000820151816000015560208201518160010160006101000a81548160ff02191690831515021790555060408201518160020155606082015181600301556080820151816004015560a08201518160050155905050620004256000801b336200042d60201b60201c565b505062000641565b6200043f82826200051e60201b60201c565b6200051a57600160008084815260200190815260200160002060000160008373ffffffffffffffffffffffffffffffffffffffff1673ffffffffffffffffffffffffffffffffffffffff16815260200190815260200160002060006101000a81548160ff021916908315150217905550620004bf6200058860201b60201c565b73ffffffffffffffffffffffffffffffffffffffff168173ffffffffffffffffffffffffffffffffffffffff16837f2f8788117e7eff1d82e926ec794901d17c78024a50270940304540a733656f0d60405160405180910390a45b5050565b600080600084815260200190815260200160002060000160008373ffffffffffffffffffffffffffffffffffffffff1673ffffffffffffffffffffffffffffffffffffffff16815260200190815260200160002060009054906101000a900460ff16905092915050565b600033905090565b600080fd5b600073ffffffffffffffffffffffffffffffffffffffff82169050919050565b6000620005c28262000595565b9050919050565b620005d481620005b5565b8114620005e057600080fd5b50565b600081519050620005f481620005c9565b92915050565b6000806040838503121562000614576200061362000590565b5b60006200062485828601620005e3565b92505060206200063785828601620005e3565b9150509250929050565b615bbe80620006516000396000f3fe608060405234801561001057600080fd5b50600436106102065760003560e01c80636f5e02121161011a578063a217fddf116100ad578063ca6360541161007c578063ca6360541461058c578063d1058e59146105bc578063d1e9a5fd146105c6578063d547741f146105e4578063e02f1ebd1461060057610206565b8063a217fddf14610518578063b6b55f2514610536578063b7c9f00c14610552578063bd12240a1461057057610206565b80638456cb59116100e95780638456cb59146104b65780638b8898e4146104c05780638ef32fdc146104de57806391d14854146104e857610206565b80636f5e02121461042f5780636f77926b1461044b57806371f8ef271461047c578063745400c91461049a57610206565b80632f2ff15d1161019d57806347e633801161016c57806347e633801461039b5780634f8894a4146103b957806351868192146103d75780635c975abb146103f55780636e131aea1461041357610206565b80632f2ff15d1461034f57806336568abe1461036b5780633ccfd60b146103875780633f4ba83a1461039157610206565b80631b41457a116101d95780631b41457a14610291578063248a9ca3146102af578063257aa21f146102df5780632bcc23f81461031457610206565b806301ffc9a71461020b57806311f1fc991461023b57806312a026c71461025757806316770c7914610275575b600080fd5b61022560048036038101906102209190614b70565b61060a565b6040516102329190614bb8565b60405180910390f35b61025560048036038101906102509190614c09565b610684565b005b61025f610811565b60405161026c9190614c77565b60405180910390f35b61028f600480360381019061028a9190614cbe565b610829565b005b61029961103d565b6040516102a69190614d0d565b60405180910390f35b6102c960048036038101906102c49190614d5e565b611043565b6040516102d69190614d9a565b60405180910390f35b6102f960048036038101906102f49190614dee565b611062565b60405161030b96959493929190614e1b565b60405180910390f35b61032e60048036038101906103299190614e7c565b6110ab565b6040516103469c9b9a99989796959493929190614eb8565b60405180910390f35b61036960048036038101906103649190614f72565b611138565b005b61038560048036038101906103809190614f72565b611159565b005b61038f6111dc565b005b610399611529565b005b6103a3611541565b6040516103b09190614d9a565b60405180910390f35b6103c1611565565b6040516103ce9190614d0d565b60405180910390f35b6103df61156c565b6040516103ec9190614d0d565b60405180910390f35b6103fd611573565b60405161040a9190614bb8565b60405180910390f35b61042d60048036038101906104289190614fd7565b61158a565b005b61044960048036038101906104449190614e7c565b6116e0565b005b61046560048036038101906104609190614e7c565b611919565b6040516104739291906151b5565b60405180910390f35b610484611b52565b6040516104919190614d0d565b60405180910390f35b6104b460048036038101906104af9190614c09565b611b58565b005b6104be6124f8565b005b6104c8612510565b6040516104d59190614d0d565b60405180910390f35b6104e6612516565b005b61050260048036038101906104fd9190614f72565b612a26565b60405161050f9190614bb8565b60405180910390f35b610520612a90565b60405161052d9190614d9a565b60405180910390f35b610550600480360381019061054b9190614c09565b612a97565b005b61055a612ab8565b6040516105679190614d0d565b60405180910390f35b61058a60048036038101906105859190614c09565b612abd565b005b6105a660048036038101906105a19190614dee565b612cf4565b6040516105b3919061526a565b60405180910390f35b6105c4612d95565b005b6105ce6134a0565b6040516105db9190614c77565b60405180910390f35b6105fe60048036038101906105f99190614f72565b6134ca565b005b6106086134eb565b005b60007f7965db0b000000000000000000000000000000000000000000000000000000007bffffffffffffffffffffffffffffffffffffffffffffffffffffffff1916827bffffffffffffffffffffffffffffffffffffffffffffffffffffffff1916148061067d575061067c82613a70565b5b9050919050565b6000801b61069181613ada565b8160018054906101000a900473ffffffffffffffffffffffffffffffffffffffff1673ffffffffffffffffffffffffffffffffffffffff166370a08231306040518263ffffffff1660e01b81526004016106eb9190614c77565b602060405180830381865afa158015610708573d6000803e3d6000fd5b505050506040513d601f19601f8201168201806040525081019061072c919061529a565b101561073757600080fd5b60018054906101000a900473ffffffffffffffffffffffffffffffffffffffff1673ffffffffffffffffffffffffffffffffffffffff1663a9059cbb33846040518363ffffffff1660e01b81526004016107929291906152c7565b6020604051808303816000875af11580156107b1573d6000803e3d6000fd5b505050506040513d601f19601f820116820180604052508101906107d5919061531c565b507ff1b96db22d7f3eb7ef19d9ddbc4d63be139f5d014216d4e42107e10cfd4ff16c826040516108059190614d0d565b60405180910390a15050565b73ee9aa828ff4cbf294063168e78beb7bcf441fea181565b610831613aee565b60018054906101000a900473ffffffffffffffffffffffffffffffffffffffff1673ffffffffffffffffffffffffffffffffffffffff1663313ce5676040518163ffffffff1660e01b8152600401602060405180830381865afa15801561089c573d6000803e3d6000fd5b505050506040513d601f19601f820116820180604052508101906108c0919061535e565b600a6108cc91906154ed565b60046000600160ff168152602001908152602001600020600001546108f19190615538565b8210156108fd57600080fd5b600073ffffffffffffffffffffffffffffffffffffffff168173ffffffffffffffffffffffffffffffffffffffff160361093657600080fd5b3373ffffffffffffffffffffffffffffffffffffffff168173ffffffffffffffffffffffffffffffffffffffff160361096e57600080fd5b8160018054906101000a900473ffffffffffffffffffffffffffffffffffffffff1673ffffffffffffffffffffffffffffffffffffffff166370a08231336040518263ffffffff1660e01b81526004016109c89190614c77565b602060405180830381865afa1580156109e5573d6000803e3d6000fd5b505050506040513d601f19601f82011682018060405250810190610a09919061529a565b1015610a1457600080fd5b8160018054906101000a900473ffffffffffffffffffffffffffffffffffffffff1673ffffffffffffffffffffffffffffffffffffffff1663dd62ed3e33306040518363ffffffff1660e01b8152600401610a7092919061557a565b602060405180830381865afa158015610a8d573d6000803e3d6000fd5b505050506040513d601f19601f82011682018060405250810190610ab1919061529a565b1015610abc57600080fd5b600073ffffffffffffffffffffffffffffffffffffffff16600560003373ffffffffffffffffffffffffffffffffffffffff1673ffffffffffffffffffffffffffffffffffffffff16815260200190815260200160002060000160009054906101000a900473ffffffffffffffffffffffffffffffffffffffff1673ffffffffffffffffffffffffffffffffffffffff1603610bd45780600560003373ffffffffffffffffffffffffffffffffffffffff1673ffffffffffffffffffffffffffffffffffffffff16815260200190815260200160002060000160006101000a81548173ffffffffffffffffffffffffffffffffffffffff021916908373ffffffffffffffffffffffffffffffffffffffff1602179055505b81600560003373ffffffffffffffffffffffffffffffffffffffff1673ffffffffffffffffffffffffffffffffffffffff1681526020019081526020016000206001016000828254610c2691906155a3565b9250508190555042600560003373ffffffffffffffffffffffffffffffffffffffff1673ffffffffffffffffffffffffffffffffffffffff1681526020019081526020016000206002018190555042600560003373ffffffffffffffffffffffffffffffffffffffff1673ffffffffffffffffffffffffffffffffffffffff168152602001908152602001600020600701819055506000610d28600560003373ffffffffffffffffffffffffffffffffffffffff1673ffffffffffffffffffffffffffffffffffffffff16815260200190815260200160002060000160009054906101000a900473ffffffffffffffffffffffffffffffffffffffff16613b38565b90508260056000600560003373ffffffffffffffffffffffffffffffffffffffff1673ffffffffffffffffffffffffffffffffffffffff16815260200190815260200160002060000160009054906101000a900473ffffffffffffffffffffffffffffffffffffffff1673ffffffffffffffffffffffffffffffffffffffff1673ffffffffffffffffffffffffffffffffffffffff1681526020019081526020016000206008016000828254610dde91906155a3565b925050819055508060056000600560003373ffffffffffffffffffffffffffffffffffffffff1673ffffffffffffffffffffffffffffffffffffffff16815260200190815260200160002060000160009054906101000a900473ffffffffffffffffffffffffffffffffffffffff1673ffffffffffffffffffffffffffffffffffffffff1673ffffffffffffffffffffffffffffffffffffffff1681526020019081526020016000206009016000828254610e9991906155a3565b925050819055504260056000600560003373ffffffffffffffffffffffffffffffffffffffff1673ffffffffffffffffffffffffffffffffffffffff16815260200190815260200160002060000160009054906101000a900473ffffffffffffffffffffffffffffffffffffffff1673ffffffffffffffffffffffffffffffffffffffff1673ffffffffffffffffffffffffffffffffffffffff168152602001908152602001600020600a018190555060018054906101000a900473ffffffffffffffffffffffffffffffffffffffff1673ffffffffffffffffffffffffffffffffffffffff166323b872dd3330866040518463ffffffff1660e01b8152600401610fa6939291906155d7565b6020604051808303816000875af1158015610fc5573d6000803e3d6000fd5b505050506040513d601f19601f82011682018060405250810190610fe9919061531c565b503373ffffffffffffffffffffffffffffffffffffffff167f951fdc61d6a98f96098a17ea6ac287a6fd38aea6bef73083c93b274cb830107d846040516110309190614d0d565b60405180910390a2505050565b6103e881565b6000806000838152602001908152602001600020600101549050919050565b60046020528060005260406000206000915090508060000154908060010160009054906101000a900460ff16908060020154908060030154908060040154908060050154905086565b60056020528060005260406000206000915090508060000160009054906101000a900473ffffffffffffffffffffffffffffffffffffffff16908060000160149054906101000a900460ff169080600101549080600201549080600301549080600401549080600501549080600601549080600701549080600801549080600901549080600a015490508c565b61114182611043565b61114a81613ada565b6111548383613c08565b505050565b611161613ce8565b73ffffffffffffffffffffffffffffffffffffffff168173ffffffffffffffffffffffffffffffffffffffff16146111ce576040517f08c379a00000000000000000000000000000000000000000000000000000000081526004016111c590615691565b60405180910390fd5b6111d88282613cf0565b5050565b6000600560003373ffffffffffffffffffffffffffffffffffffffff1673ffffffffffffffffffffffffffffffffffffffff168152602001908152602001600020600301541161122b57600080fd5b60018054906101000a900473ffffffffffffffffffffffffffffffffffffffff1673ffffffffffffffffffffffffffffffffffffffff166370a08231306040518263ffffffff1660e01b81526004016112849190614c77565b602060405180830381865afa1580156112a1573d6000803e3d6000fd5b505050506040513d601f19601f820116820180604052508101906112c5919061529a565b600560003373ffffffffffffffffffffffffffffffffffffffff1673ffffffffffffffffffffffffffffffffffffffff16815260200190815260200160002060030154111561131357600080fd5b42600560003373ffffffffffffffffffffffffffffffffffffffff1673ffffffffffffffffffffffffffffffffffffffff16815260200190815260200160002060040154111561136257600080fd5b6000600560003373ffffffffffffffffffffffffffffffffffffffff1673ffffffffffffffffffffffffffffffffffffffff1681526020019081526020016000206003015490506000600560003373ffffffffffffffffffffffffffffffffffffffff1673ffffffffffffffffffffffffffffffffffffffff168152602001908152602001600020600301819055506000600560003373ffffffffffffffffffffffffffffffffffffffff1673ffffffffffffffffffffffffffffffffffffffff1681526020019081526020016000206004018190555060018054906101000a900473ffffffffffffffffffffffffffffffffffffffff1673ffffffffffffffffffffffffffffffffffffffff1663a9059cbb33836040518363ffffffff1660e01b81526004016114949291906152c7565b6020604051808303816000875af11580156114b3573d6000803e3d6000fd5b505050506040513d601f19601f820116820180604052508101906114d7919061531c565b503373ffffffffffffffffffffffffffffffffffffffff167f60940a45682dd211584724a922396732f11d82de250ddce40f7cdc3dc58058658260405161151e9190614d0d565b60405180910390a250565b6000801b61153681613ada565b61153e613dd1565b50565b7f73e573f9566d61418a34d5de3ff49360f9c51fec37f7486551670290f6285dab81565b62278d0081565b6212750081565b6000600160009054906101000a900460ff16905090565b7f73e573f9566d61418a34d5de3ff49360f9c51fec37f7486551670290f6285dab6115b481613ada565b6000600560008573ffffffffffffffffffffffffffffffffffffffff1673ffffffffffffffffffffffffffffffffffffffff16815260200190815260200160002060000160149054906101000a900460ff1660ff16600281111561161b5761161a6156b1565b5b90508260028111156116305761162f6156b1565b5b600560008673ffffffffffffffffffffffffffffffffffffffff1673ffffffffffffffffffffffffffffffffffffffff16815260200190815260200160002060000160146101000a81548160ff021916908360ff1602179055508373ffffffffffffffffffffffffffffffffffffffff167f97a9663cc868dbb1c96d7a109c230519a0b6d87f567743f5963889ba988942d782856040516116d2929190615728565b60405180910390a250505050565b6000801b6116ed81613ada565b600073ffffffffffffffffffffffffffffffffffffffff168273ffffffffffffffffffffffffffffffffffffffff160361172657600080fd5b600060018054906101000a900473ffffffffffffffffffffffffffffffffffffffff1673ffffffffffffffffffffffffffffffffffffffff166370a08231846040518263ffffffff1660e01b81526004016117819190614c77565b602060405180830381865afa15801561179e573d6000803e3d6000fd5b505050506040513d601f19601f820116820180604052508101906117c2919061529a565b116117cc57600080fd5b6000600260009054906101000a900473ffffffffffffffffffffffffffffffffffffffff1673ffffffffffffffffffffffffffffffffffffffff166370a08231846040518263ffffffff1660e01b81526004016118299190614c77565b602060405180830381865afa158015611846573d6000803e3d6000fd5b505050506040513d601f19601f8201168201806040525081019061186a919061529a565b1161187457600080fd5b600082905082600360006101000a81548173ffffffffffffffffffffffffffffffffffffffff021916908373ffffffffffffffffffffffffffffffffffffffff1602179055508273ffffffffffffffffffffffffffffffffffffffff168173ffffffffffffffffffffffffffffffffffffffff167fb540d9b4914fdc07330a18551512f4d172c9f361d5aa3225aee17276e3411cec60405160405180910390a3505050565b611921614a28565b611929614aa2565b600073ffffffffffffffffffffffffffffffffffffffff168373ffffffffffffffffffffffffffffffffffffffff160361196257600080fd5b600061196d84613e34565b9050600061197b8583613f7f565b9050600061198886613b38565b600560008873ffffffffffffffffffffffffffffffffffffffff1673ffffffffffffffffffffffffffffffffffffffff168152602001908152602001600020600901546119d591906155a3565b9050600560008773ffffffffffffffffffffffffffffffffffffffff1673ffffffffffffffffffffffffffffffffffffffff1681526020019081526020016000206040518060c001604052808560ff168152602001848152602001611a3a8587614161565b8152602001838152602001611a4e846141bc565b8152602001611a5d89876141e8565b81525081604051806101800160405290816000820160009054906101000a900473ffffffffffffffffffffffffffffffffffffffff1673ffffffffffffffffffffffffffffffffffffffff1673ffffffffffffffffffffffffffffffffffffffff1681526020016000820160149054906101000a900460ff1660ff1660ff168152602001600182015481526020016002820154815260200160038201548152602001600482015481526020016005820154815260200160068201548152602001600782015481526020016008820154815260200160098201548152602001600a82015481525050915094509450505050915091565b6103e881565b600560003373ffffffffffffffffffffffffffffffffffffffff1673ffffffffffffffffffffffffffffffffffffffff16815260200190815260200160002060010154811115611ba757600080fd5b600560003373ffffffffffffffffffffffffffffffffffffffff1673ffffffffffffffffffffffffffffffffffffffff16815260200190815260200160002060010154811015611d0b5760018054906101000a900473ffffffffffffffffffffffffffffffffffffffff1673ffffffffffffffffffffffffffffffffffffffff1663313ce5676040518163ffffffff1660e01b8152600401602060405180830381865afa158015611c5c573d6000803e3d6000fd5b505050506040513d601f19601f82011682018060405250810190611c80919061535e565b600a611c8c91906154ed565b60046000600160ff16815260200190815260200160002060000154611cb19190615538565b81600560003373ffffffffffffffffffffffffffffffffffffffff1673ffffffffffffffffffffffffffffffffffffffff16815260200190815260200160002060010154611cff9190615751565b1015611d0a57600080fd5b5b6000611d1633613e34565b905060008160ff1611611d2857600080fd5b600042611d3533846141e8565b1115611ecd57611d78612710600460008560ff1660ff1681526020019081526020016000206005015485611d699190615538565b611d7391906157b4565b614270565b905080600260009054906101000a900473ffffffffffffffffffffffffffffffffffffffff1673ffffffffffffffffffffffffffffffffffffffff166370a08231336040518263ffffffff1660e01b8152600401611dd69190614c77565b602060405180830381865afa158015611df3573d6000803e3d6000fd5b505050506040513d601f19601f82011682018060405250810190611e17919061529a565b1015611e2257600080fd5b80600260009054906101000a900473ffffffffffffffffffffffffffffffffffffffff1673ffffffffffffffffffffffffffffffffffffffff1663dd62ed3e33306040518363ffffffff1660e01b8152600401611e8092919061557a565b602060405180830381865afa158015611e9d573d6000803e3d6000fd5b505050506040513d601f19601f82011682018060405250810190611ec1919061529a565b1015611ecc57600080fd5b5b82600560003373ffffffffffffffffffffffffffffffffffffffff1673ffffffffffffffffffffffffffffffffffffffff1681526020019081526020016000206001016000828254611f1f9190615751565b9250508190555082600560003373ffffffffffffffffffffffffffffffffffffffff1673ffffffffffffffffffffffffffffffffffffffff1681526020019081526020016000206003016000828254611f7891906155a3565b925050819055506212750042611f8e91906155a3565b600560003373ffffffffffffffffffffffffffffffffffffffff1673ffffffffffffffffffffffffffffffffffffffff168152602001908152602001600020600401819055506000612041600560003373ffffffffffffffffffffffffffffffffffffffff1673ffffffffffffffffffffffffffffffffffffffff16815260200190815260200160002060000160009054906101000a900473ffffffffffffffffffffffffffffffffffffffff16613b38565b90508360056000600560003373ffffffffffffffffffffffffffffffffffffffff1673ffffffffffffffffffffffffffffffffffffffff16815260200190815260200160002060000160009054906101000a900473ffffffffffffffffffffffffffffffffffffffff1673ffffffffffffffffffffffffffffffffffffffff1673ffffffffffffffffffffffffffffffffffffffff16815260200190815260200160002060080154106121ae578360056000600560003373ffffffffffffffffffffffffffffffffffffffff1673ffffffffffffffffffffffffffffffffffffffff16815260200190815260200160002060000160009054906101000a900473ffffffffffffffffffffffffffffffffffffffff1673ffffffffffffffffffffffffffffffffffffffff1673ffffffffffffffffffffffffffffffffffffffff16815260200190815260200160002060080160008282546121a29190615751565b92505081905550612259565b600060056000600560003373ffffffffffffffffffffffffffffffffffffffff1673ffffffffffffffffffffffffffffffffffffffff16815260200190815260200160002060000160009054906101000a900473ffffffffffffffffffffffffffffffffffffffff1673ffffffffffffffffffffffffffffffffffffffff1673ffffffffffffffffffffffffffffffffffffffff168152602001908152602001600020600801819055505b8060056000600560003373ffffffffffffffffffffffffffffffffffffffff1673ffffffffffffffffffffffffffffffffffffffff16815260200190815260200160002060000160009054906101000a900473ffffffffffffffffffffffffffffffffffffffff1673ffffffffffffffffffffffffffffffffffffffff1673ffffffffffffffffffffffffffffffffffffffff168152602001908152602001600020600901600082825461230d91906155a3565b925050819055504260056000600560003373ffffffffffffffffffffffffffffffffffffffff1673ffffffffffffffffffffffffffffffffffffffff16815260200190815260200160002060000160009054906101000a900473ffffffffffffffffffffffffffffffffffffffff1673ffffffffffffffffffffffffffffffffffffffff1673ffffffffffffffffffffffffffffffffffffffff168152602001908152602001600020600a018190555060008211156124a457600260009054906101000a900473ffffffffffffffffffffffffffffffffffffffff1673ffffffffffffffffffffffffffffffffffffffff166379cc679033846040518363ffffffff1660e01b81526004016124239291906152c7565b600060405180830381600087803b15801561243d57600080fd5b505af1158015612451573d6000803e3d6000fd5b505050503373ffffffffffffffffffffffffffffffffffffffff167f67e0a76c8ca65f789ba0c0b9ac467471fd0905ab2e83ee2ab59b6064f29813fa8360405161249b9190614d0d565b60405180910390a25b3373ffffffffffffffffffffffffffffffffffffffff167fa933b33bc35fbbc42120b3234fd8abdb6ab035bbc8c9199479693f0abede25d1856040516124ea9190614d0d565b60405180910390a250505050565b6000801b61250581613ada565b61250d61443d565b50565b61271081565b600061252133613e34565b905060008160ff161161253357600080fd5b600061253f3383613f7f565b90506000811161254e57600080fd5b612558338261449f565b61256157600080fd5b600061256d8284614161565b905080600260009054906101000a900473ffffffffffffffffffffffffffffffffffffffff1673ffffffffffffffffffffffffffffffffffffffff166370a08231336040518263ffffffff1660e01b81526004016125cb9190614c77565b602060405180830381865afa1580156125e8573d6000803e3d6000fd5b505050506040513d601f19601f8201168201806040525081019061260c919061529a565b101561261757600080fd5b80600260009054906101000a900473ffffffffffffffffffffffffffffffffffffffff1673ffffffffffffffffffffffffffffffffffffffff1663dd62ed3e33306040518363ffffffff1660e01b815260040161267592919061557a565b602060405180830381865afa158015612692573d6000803e3d6000fd5b505050506040513d601f19601f820116820180604052508101906126b6919061529a565b10156126c157600080fd5b61270c600560003373ffffffffffffffffffffffffffffffffffffffff1673ffffffffffffffffffffffffffffffffffffffff168152602001908152602001600020600701546146c9565b1561276f5781600560003373ffffffffffffffffffffffffffffffffffffffff1673ffffffffffffffffffffffffffffffffffffffff168152602001908152602001600020600501600082825461276391906155a3565b925050819055506127b7565b81600560003373ffffffffffffffffffffffffffffffffffffffff1673ffffffffffffffffffffffffffffffffffffffff168152602001908152602001600020600501819055505b81600560003373ffffffffffffffffffffffffffffffffffffffff1673ffffffffffffffffffffffffffffffffffffffff168152602001908152602001600020600601600082825461280991906155a3565b9250508190555042600560003373ffffffffffffffffffffffffffffffffffffffff1673ffffffffffffffffffffffffffffffffffffffff1681526020019081526020016000206007018190555060018054906101000a900473ffffffffffffffffffffffffffffffffffffffff1673ffffffffffffffffffffffffffffffffffffffff1663a9059cbb33846040518363ffffffff1660e01b81526004016128b29291906152c7565b6020604051808303816000875af11580156128d1573d6000803e3d6000fd5b505050506040513d601f19601f820116820180604052508101906128f5919061531c565b503373ffffffffffffffffffffffffffffffffffffffff167ffe9e35ab94545fd82755f641bb9fb45e0d9dfafca472b2bce233d7dff2962f3c8360405161293c9190614d0d565b60405180910390a2600260009054906101000a900473ffffffffffffffffffffffffffffffffffffffff1673ffffffffffffffffffffffffffffffffffffffff166379cc679033836040518363ffffffff1660e01b81526004016129a19291906152c7565b600060405180830381600087803b1580156129bb57600080fd5b505af11580156129cf573d6000803e3d6000fd5b505050503373ffffffffffffffffffffffffffffffffffffffff167f5154ba3ad6f942a7219ac1d545fe2eb12a47b1804c8240ab9da1fa1a126f742b82604051612a199190614d0d565b60405180910390a2505050565b600080600084815260200190815260200160002060000160008373ffffffffffffffffffffffffffffffffffffffff1673ffffffffffffffffffffffffffffffffffffffff16815260200190815260200160002060009054906101000a900460ff16905092915050565b6000801b81565b612ab58173ee9aa828ff4cbf294063168e78beb7bcf441fea1610829565b50565b601481565b6000801b612aca81613ada565b8160018054906101000a900473ffffffffffffffffffffffffffffffffffffffff1673ffffffffffffffffffffffffffffffffffffffff166370a08231336040518263ffffffff1660e01b8152600401612b249190614c77565b602060405180830381865afa158015612b41573d6000803e3d6000fd5b505050506040513d601f19601f82011682018060405250810190612b65919061529a565b1015612b7057600080fd5b8160018054906101000a900473ffffffffffffffffffffffffffffffffffffffff1673ffffffffffffffffffffffffffffffffffffffff1663dd62ed3e33306040518363ffffffff1660e01b8152600401612bcc92919061557a565b602060405180830381865afa158015612be9573d6000803e3d6000fd5b505050506040513d601f19601f82011682018060405250810190612c0d919061529a565b1015612c1857600080fd5b60018054906101000a900473ffffffffffffffffffffffffffffffffffffffff1673ffffffffffffffffffffffffffffffffffffffff166323b872dd3330856040518463ffffffff1660e01b8152600401612c75939291906155d7565b6020604051808303816000875af1158015612c94573d6000803e3d6000fd5b505050506040513d601f19601f82011682018060405250810190612cb8919061531c565b507f90388e3e271a8f007dd351d51ccac1674db355c1ce23fe0005d0721fc8e9b2c682604051612ce89190614d0d565b60405180910390a15050565b612cfc614adb565b60018260ff1610158015612d14575060058260ff1611155b612d1d57600080fd5b600460008360ff1660ff1681526020019081526020016000206040518060c0016040529081600082015481526020016001820160009054906101000a900460ff161515151581526020016002820154815260200160038201548152602001600482015481526020016005820154815250509050919050565b6000612da033613e34565b90506000612dae3383613f7f565b90506000612dbb33613b38565b600560003373ffffffffffffffffffffffffffffffffffffffff1673ffffffffffffffffffffffffffffffffffffffff16815260200190815260200160002060090154612e0891906155a3565b905060008183612e1891906155a3565b11612e2257600080fd5b612e37338284612e3291906155a3565b61449f565b612e4057600080fd5b6000612e4c8385614161565b90506000612e59836141bc565b90508082612e6791906155a3565b600260009054906101000a900473ffffffffffffffffffffffffffffffffffffffff1673ffffffffffffffffffffffffffffffffffffffff166370a08231336040518263ffffffff1660e01b8152600401612ec29190614c77565b602060405180830381865afa158015612edf573d6000803e3d6000fd5b505050506040513d601f19601f82011682018060405250810190612f03919061529a565b1015612f0e57600080fd5b8082612f1a91906155a3565b600260009054906101000a900473ffffffffffffffffffffffffffffffffffffffff1673ffffffffffffffffffffffffffffffffffffffff1663dd62ed3e33306040518363ffffffff1660e01b8152600401612f7792919061557a565b602060405180830381865afa158015612f94573d6000803e3d6000fd5b505050506040513d601f19601f82011682018060405250810190612fb8919061529a565b1015612fc357600080fd5b61300e600560003373ffffffffffffffffffffffffffffffffffffffff1673ffffffffffffffffffffffffffffffffffffffff168152602001908152602001600020600701546146c9565b1561307c57828461301f91906155a3565b600560003373ffffffffffffffffffffffffffffffffffffffff1673ffffffffffffffffffffffffffffffffffffffff168152602001908152602001600020600501600082825461307091906155a3565b925050819055506130cf565b828461308891906155a3565b600560003373ffffffffffffffffffffffffffffffffffffffff1673ffffffffffffffffffffffffffffffffffffffff168152602001908152602001600020600501819055505b82846130db91906155a3565b600560003373ffffffffffffffffffffffffffffffffffffffff1673ffffffffffffffffffffffffffffffffffffffff168152602001908152602001600020600601600082825461312c91906155a3565b9250508190555042600560003373ffffffffffffffffffffffffffffffffffffffff1673ffffffffffffffffffffffffffffffffffffffff168152602001908152602001600020600701819055506000600560003373ffffffffffffffffffffffffffffffffffffffff1673ffffffffffffffffffffffffffffffffffffffff1681526020019081526020016000206009018190555042600560003373ffffffffffffffffffffffffffffffffffffffff1673ffffffffffffffffffffffffffffffffffffffff168152602001908152602001600020600a018190555060018054906101000a900473ffffffffffffffffffffffffffffffffffffffff1673ffffffffffffffffffffffffffffffffffffffff1663a9059cbb33858761325291906155a3565b6040518363ffffffff1660e01b815260040161326f9291906152c7565b6020604051808303816000875af115801561328e573d6000803e3d6000fd5b505050506040513d601f19601f820116820180604052508101906132b2919061531c565b50600260009054906101000a900473ffffffffffffffffffffffffffffffffffffffff1673ffffffffffffffffffffffffffffffffffffffff166379cc67903383856132fe91906155a3565b6040518363ffffffff1660e01b815260040161331b9291906152c7565b600060405180830381600087803b15801561333557600080fd5b505af1158015613349573d6000803e3d6000fd5b5050505060008411156133f3573373ffffffffffffffffffffffffffffffffffffffff167ffe9e35ab94545fd82755f641bb9fb45e0d9dfafca472b2bce233d7dff2962f3c8560405161339c9190614d0d565b60405180910390a23373ffffffffffffffffffffffffffffffffffffffff167f5154ba3ad6f942a7219ac1d545fe2eb12a47b1804c8240ab9da1fa1a126f742b836040516133ea9190614d0d565b60405180910390a25b6000831115613499573373ffffffffffffffffffffffffffffffffffffffff167f5be4d22009fea85381595ed91090bc5c0bc92a93fe07ed7472c5888eb1993f83846040516134429190614d0d565b60405180910390a23373ffffffffffffffffffffffffffffffffffffffff167f0b8bf41669e0983dcaf8ea2cbb6f14db91d87b23dc199f9c873e41e2c6ae7794826040516134909190614d0d565b60405180910390a25b5050505050565b6000600360009054906101000a900473ffffffffffffffffffffffffffffffffffffffff16905090565b6134d382611043565b6134dc81613ada565b6134e68383613cf0565b505050565b60006134f633613b38565b600560003373ffffffffffffffffffffffffffffffffffffffff1673ffffffffffffffffffffffffffffffffffffffff1681526020019081526020016000206009015461354391906155a3565b90506000811161355257600080fd5b61355c338261449f565b61356557600080fd5b6000613570826141bc565b905080600260009054906101000a900473ffffffffffffffffffffffffffffffffffffffff1673ffffffffffffffffffffffffffffffffffffffff166370a08231336040518263ffffffff1660e01b81526004016135ce9190614c77565b602060405180830381865afa1580156135eb573d6000803e3d6000fd5b505050506040513d601f19601f8201168201806040525081019061360f919061529a565b101561361a57600080fd5b80600260009054906101000a900473ffffffffffffffffffffffffffffffffffffffff1673ffffffffffffffffffffffffffffffffffffffff1663dd62ed3e33306040518363ffffffff1660e01b815260040161367892919061557a565b602060405180830381865afa158015613695573d6000803e3d6000fd5b505050506040513d601f19601f820116820180604052508101906136b9919061529a565b10156136c457600080fd5b61370f600560003373ffffffffffffffffffffffffffffffffffffffff1673ffffffffffffffffffffffffffffffffffffffff168152602001908152602001600020600701546146c9565b156137725781600560003373ffffffffffffffffffffffffffffffffffffffff1673ffffffffffffffffffffffffffffffffffffffff168152602001908152602001600020600501600082825461376691906155a3565b925050819055506137ba565b81600560003373ffffffffffffffffffffffffffffffffffffffff1673ffffffffffffffffffffffffffffffffffffffff168152602001908152602001600020600501819055505b81600560003373ffffffffffffffffffffffffffffffffffffffff1673ffffffffffffffffffffffffffffffffffffffff168152602001908152602001600020600601600082825461380c91906155a3565b925050819055506000600560003373ffffffffffffffffffffffffffffffffffffffff1673ffffffffffffffffffffffffffffffffffffffff1681526020019081526020016000206009018190555042600560003373ffffffffffffffffffffffffffffffffffffffff1673ffffffffffffffffffffffffffffffffffffffff168152602001908152602001600020600a018190555060018054906101000a900473ffffffffffffffffffffffffffffffffffffffff1673ffffffffffffffffffffffffffffffffffffffff1663a9059cbb33846040518363ffffffff1660e01b81526004016138fd9291906152c7565b6020604051808303816000875af115801561391c573d6000803e3d6000fd5b505050506040513d601f19601f82011682018060405250810190613940919061531c565b503373ffffffffffffffffffffffffffffffffffffffff167f5be4d22009fea85381595ed91090bc5c0bc92a93fe07ed7472c5888eb1993f83836040516139879190614d0d565b60405180910390a2600260009054906101000a900473ffffffffffffffffffffffffffffffffffffffff1673ffffffffffffffffffffffffffffffffffffffff166379cc679033836040518363ffffffff1660e01b81526004016139ec9291906152c7565b600060405180830381600087803b158015613a0657600080fd5b505af1158015613a1a573d6000803e3d6000fd5b505050503373ffffffffffffffffffffffffffffffffffffffff167f0b8bf41669e0983dcaf8ea2cbb6f14db91d87b23dc199f9c873e41e2c6ae779482604051613a649190614d0d565b60405180910390a25050565b60007f01ffc9a7000000000000000000000000000000000000000000000000000000007bffffffffffffffffffffffffffffffffffffffffffffffffffffffff1916827bffffffffffffffffffffffffffffffffffffffffffffffffffffffff1916149050919050565b613aeb81613ae6613ce8565b6146f1565b50565b613af6611573565b15613b36576040517f08c379a0000000000000000000000000000000000000000000000000000000008152600401613b2d90615831565b60405180910390fd5b565b600080600560008473ffffffffffffffffffffffffffffffffffffffff1673ffffffffffffffffffffffffffffffffffffffff168152602001908152602001600020600a015442613b899190615751565b905062278d00612710826014600560008873ffffffffffffffffffffffffffffffffffffffff1673ffffffffffffffffffffffffffffffffffffffff16815260200190815260200160002060080154613be29190615538565b613bec9190615538565b613bf691906157b4565b613c0091906157b4565b915050919050565b613c128282612a26565b613ce457600160008084815260200190815260200160002060000160008373ffffffffffffffffffffffffffffffffffffffff1673ffffffffffffffffffffffffffffffffffffffff16815260200190815260200160002060006101000a81548160ff021916908315150217905550613c89613ce8565b73ffffffffffffffffffffffffffffffffffffffff168173ffffffffffffffffffffffffffffffffffffffff16837f2f8788117e7eff1d82e926ec794901d17c78024a50270940304540a733656f0d60405160405180910390a45b5050565b600033905090565b613cfa8282612a26565b15613dcd57600080600084815260200190815260200160002060000160008373ffffffffffffffffffffffffffffffffffffffff1673ffffffffffffffffffffffffffffffffffffffff16815260200190815260200160002060006101000a81548160ff021916908315150217905550613d72613ce8565b73ffffffffffffffffffffffffffffffffffffffff168173ffffffffffffffffffffffffffffffffffffffff16837ff6391f5c32d9c69d2a47ea670b442974b53935d1edc7fd64eb21e047a839171b60405160405180910390a45b5050565b613dd9614776565b6000600160006101000a81548160ff0219169083151502179055507f5db9ee0a495bf2e6ff9c91a7834c1ba4fdd244a5e8aa4e537bd38aeae4b073aa613e1d613ce8565b604051613e2a9190614c77565b60405180910390a1565b60008060018054906101000a900473ffffffffffffffffffffffffffffffffffffffff1673ffffffffffffffffffffffffffffffffffffffff1663313ce5676040518163ffffffff1660e01b8152600401602060405180830381865afa158015613ea2573d6000803e3d6000fd5b505050506040513d601f19601f82011682018060405250810190613ec6919061535e565b600a613ed291906154ed565b600560008573ffffffffffffffffffffffffffffffffffffffff1673ffffffffffffffffffffffffffffffffffffffff16815260200190815260200160002060010154613f1f91906157b4565b90506000600590505b60018160ff1610613f7357600460008260ff1660ff168152602001908152602001600020600001548210613f60578092505050613f7a565b8080613f6b90615851565b915050613f28565b5060009150505b919050565b6000808260ff1603613f94576000905061415b565b6000600460008460ff1660ff1681526020019081526020016000206002015490506000600560008673ffffffffffffffffffffffffffffffffffffffff1673ffffffffffffffffffffffffffffffffffffffff16815260200190815260200160002060070154426140059190615751565b9050600062278d006127108385600560008b73ffffffffffffffffffffffffffffffffffffffff1673ffffffffffffffffffffffffffffffffffffffff1681526020019081526020016000206001015461405f9190615538565b6140699190615538565b61407391906157b4565b61407d91906157b4565b9050600460008660ff1660ff16815260200190815260200160002060010160009054906101000a900460ff166140b85780935050505061415b565b6000600262278d006127108587866140d09190615538565b6140da9190615538565b6140e491906157b4565b6140ee91906157b4565b6140f891906157b4565b90506000600362278d006127108688866141129190615538565b61411c9190615538565b61412691906157b4565b61413091906157b4565b61413a91906157b4565b905080828461414991906155a3565b61415391906155a3565b955050505050505b92915050565b6000808260ff160361417657600090506141b6565b6141b3612710600460008560ff1660ff16815260200190815260200160002060030154856141a49190615538565b6141ae91906157b4565b614270565b90505b92915050565b60006141e16127106103e8846141d29190615538565b6141dc91906157b4565b614270565b9050919050565b6000808260ff16036141fd576000905061426a565b600460008360ff1660ff16815260200190815260200160002060040154600560008573ffffffffffffffffffffffffffffffffffffffff1673ffffffffffffffffffffffffffffffffffffffff1681526020019081526020016000206002015461426791906155a3565b90505b92915050565b60008082036142825760009050614438565b600060018054906101000a900473ffffffffffffffffffffffffffffffffffffffff1673ffffffffffffffffffffffffffffffffffffffff166370a08231600360009054906101000a900473ffffffffffffffffffffffffffffffffffffffff166040518263ffffffff1660e01b81526004016142ff9190614c77565b602060405180830381865afa15801561431c573d6000803e3d6000fd5b505050506040513d601f19601f82011682018060405250810190614340919061529a565b90506000600260009054906101000a900473ffffffffffffffffffffffffffffffffffffffff1673ffffffffffffffffffffffffffffffffffffffff166370a08231600360009054906101000a900473ffffffffffffffffffffffffffffffffffffffff166040518263ffffffff1660e01b81526004016143c19190614c77565b602060405180830381865afa1580156143de573d6000803e3d6000fd5b505050506040513d601f19601f82011682018060405250810190614402919061529a565b9050600081836144129190615538565b1161441c57600080fd5b8181856144299190615538565b61443391906157b4565b925050505b919050565b614445613aee565b60018060006101000a81548160ff0219169083151502179055507f62e78cea01bee320cd4e420270b5ea74000d11b0c9f74754ebdbfc544b05a258614488613ce8565b6040516144959190614c77565b60405180910390a1565b600080600560008573ffffffffffffffffffffffffffffffffffffffff1673ffffffffffffffffffffffffffffffffffffffff16815260200190815260200160002060000160149054906101000a900460ff1660ff166002811115614507576145066156b1565b5b90506001600281111561451d5761451c6156b1565b5b8160028111156145305761452f6156b1565b5b0361453f5760019150506146c3565b600280811115614552576145516156b1565b5b816002811115614565576145646156b1565b5b036145745760009150506146c3565b6145bf600560008673ffffffffffffffffffffffffffffffffffffffff1673ffffffffffffffffffffffffffffffffffffffff168152602001908152602001600020600701546146c9565b1561461557600560008573ffffffffffffffffffffffffffffffffffffffff1673ffffffffffffffffffffffffffffffffffffffff168152602001908152602001600020600501548361461291906155a3565b92505b6103e860018054906101000a900473ffffffffffffffffffffffffffffffffffffffff1673ffffffffffffffffffffffffffffffffffffffff1663313ce5676040518163ffffffff1660e01b8152600401602060405180830381865afa158015614683573d6000803e3d6000fd5b505050506040513d601f19601f820116820180604052508101906146a7919061535e565b600a6146b391906154ed565b846146be91906157b4565b109150505b92915050565b600062015180826146da91906157b4565b62015180426146e991906157b4565b149050919050565b6146fb8282612a26565b61477257614708816147bf565b6147168360001c60206147ec565b604051602001614727929190615983565b6040516020818303038152906040526040517f08c379a00000000000000000000000000000000000000000000000000000000081526004016147699190615a07565b60405180910390fd5b5050565b61477e611573565b6147bd576040517f08c379a00000000000000000000000000000000000000000000000000000000081526004016147b490615a75565b60405180910390fd5b565b60606147e58273ffffffffffffffffffffffffffffffffffffffff16601460ff166147ec565b9050919050565b6060600060028360026147ff9190615538565b61480991906155a3565b67ffffffffffffffff81111561482257614821615a95565b5b6040519080825280601f01601f1916602001820160405280156148545781602001600182028036833780820191505090505b5090507f30000000000000000000000000000000000000000000000000000000000000008160008151811061488c5761488b615ac4565b5b60200101907effffffffffffffffffffffffffffffffffffffffffffffffffffffffffffff1916908160001a9053507f7800000000000000000000000000000000000000000000000000000000000000816001815181106148f0576148ef615ac4565b5b60200101907effffffffffffffffffffffffffffffffffffffffffffffffffffffffffffff1916908160001a905350600060018460026149309190615538565b61493a91906155a3565b90505b60018111156149da577f3031323334353637383961626364656600000000000000000000000000000000600f86166010811061497c5761497b615ac4565b5b1a60f81b82828151811061499357614992615ac4565b5b60200101907effffffffffffffffffffffffffffffffffffffffffffffffffffffffffffff1916908160001a905350600485901c9450806149d390615af3565b905061493d565b5060008414614a1e576040517f08c379a0000000000000000000000000000000000000000000000000000000008152600401614a1590615b68565b60405180910390fd5b8091505092915050565b604051806101800160405280600073ffffffffffffffffffffffffffffffffffffffff168152602001600060ff168152602001600081526020016000815260200160008152602001600081526020016000815260200160008152602001600081526020016000815260200160008152602001600081525090565b6040518060c00160405280600060ff16815260200160008152602001600081526020016000815260200160008152602001600081525090565b6040518060c0016040528060008152602001600015158152602001600081526020016000815260200160008152602001600081525090565b600080fd5b60007fffffffff0000000000000000000000000000000000000000000000000000000082169050919050565b614b4d81614b18565b8114614b5857600080fd5b50565b600081359050614b6a81614b44565b92915050565b600060208284031215614b8657614b85614b13565b5b6000614b9484828501614b5b565b91505092915050565b60008115159050919050565b614bb281614b9d565b82525050565b6000602082019050614bcd6000830184614ba9565b92915050565b6000819050919050565b614be681614bd3565b8114614bf157600080fd5b50565b600081359050614c0381614bdd565b92915050565b600060208284031215614c1f57614c1e614b13565b5b6000614c2d84828501614bf4565b91505092915050565b600073ffffffffffffffffffffffffffffffffffffffff82169050919050565b6000614c6182614c36565b9050919050565b614c7181614c56565b82525050565b6000602082019050614c8c6000830184614c68565b92915050565b614c9b81614c56565b8114614ca657600080fd5b50565b600081359050614cb881614c92565b92915050565b60008060408385031215614cd557614cd4614b13565b5b6000614ce385828601614bf4565b9250506020614cf485828601614ca9565b9150509250929050565b614d0781614bd3565b82525050565b6000602082019050614d226000830184614cfe565b92915050565b6000819050919050565b614d3b81614d28565b8114614d4657600080fd5b50565b600081359050614d5881614d32565b92915050565b600060208284031215614d7457614d73614b13565b5b6000614d8284828501614d49565b91505092915050565b614d9481614d28565b82525050565b6000602082019050614daf6000830184614d8b565b92915050565b600060ff82169050919050565b614dcb81614db5565b8114614dd657600080fd5b50565b600081359050614de881614dc2565b92915050565b600060208284031215614e0457614e03614b13565b5b6000614e1284828501614dd9565b91505092915050565b600060c082019050614e306000830189614cfe565b614e3d6020830188614ba9565b614e4a6040830187614cfe565b614e576060830186614cfe565b614e646080830185614cfe565b614e7160a0830184614cfe565b979650505050505050565b600060208284031215614e9257614e91614b13565b5b6000614ea084828501614ca9565b91505092915050565b614eb281614db5565b82525050565b600061018082019050614ece600083018f614c68565b614edb602083018e614ea9565b614ee8604083018d614cfe565b614ef5606083018c614cfe565b614f02608083018b614cfe565b614f0f60a083018a614cfe565b614f1c60c0830189614cfe565b614f2960e0830188614cfe565b614f37610100830187614cfe565b614f45610120830186614cfe565b614f53610140830185614cfe565b614f61610160830184614cfe565b9d9c50505050505050505050505050565b60008060408385031215614f8957614f88614b13565b5b6000614f9785828601614d49565b9250506020614fa885828601614ca9565b9150509250929050565b60038110614fbf57600080fd5b50565b600081359050614fd181614fb2565b92915050565b60008060408385031215614fee57614fed614b13565b5b6000614ffc85828601614ca9565b925050602061500d85828601614fc2565b9150509250929050565b61502081614c56565b82525050565b61502f81614db5565b82525050565b61503e81614bd3565b82525050565b6101808201600082015161505b6000850182615017565b50602082015161506e6020850182615026565b5060408201516150816040850182615035565b5060608201516150946060850182615035565b5060808201516150a76080850182615035565b5060a08201516150ba60a0850182615035565b5060c08201516150cd60c0850182615035565b5060e08201516150e060e0850182615035565b506101008201516150f5610100850182615035565b5061012082015161510a610120850182615035565b5061014082015161511f610140850182615035565b50610160820151615134610160850182615035565b50505050565b60c0820160008201516151506000850182615026565b5060208201516151636020850182615035565b5060408201516151766040850182615035565b5060608201516151896060850182615035565b50608082015161519c6080850182615035565b5060a08201516151af60a0850182615035565b50505050565b6000610240820190506151cb6000830185615044565b6151d961018083018461513a565b9392505050565b6151e981614b9d565b82525050565b60c0820160008201516152056000850182615035565b50602082015161521860208501826151e0565b50604082015161522b6040850182615035565b50606082015161523e6060850182615035565b5060808201516152516080850182615035565b5060a082015161526460a0850182615035565b50505050565b600060c08201905061527f60008301846151ef565b92915050565b60008151905061529481614bdd565b92915050565b6000602082840312156152b0576152af614b13565b5b60006152be84828501615285565b91505092915050565b60006040820190506152dc6000830185614c68565b6152e96020830184614cfe565b9392505050565b6152f981614b9d565b811461530457600080fd5b50565b600081519050615316816152f0565b92915050565b60006020828403121561533257615331614b13565b5b600061534084828501615307565b91505092915050565b60008151905061535881614dc2565b92915050565b60006020828403121561537457615373614b13565b5b600061538284828501615349565b91505092915050565b7f4e487b7100000000000000000000000000000000000000000000000000000000600052601160045260246000fd5b60008160011c9050919050565b6000808291508390505b6001851115615411578086048111156153ed576153ec61538b565b5b60018516156153fc5780820291505b808102905061540a856153ba565b94506153d1565b94509492505050565b60008261542a57600190506154e6565b8161543857600090506154e6565b816001811461544e576002811461545857615487565b60019150506154e6565b60ff84111561546a5761546961538b565b5b8360020a9150848211156154815761548061538b565b5b506154e6565b5060208310610133831016604e8410600b84101617156154bc5782820a9050838111156154b7576154b661538b565b5b6154e6565b6154c984848460016153c7565b925090508184048111156154e0576154df61538b565b5b81810290505b9392505050565b60006154f882614bd3565b915061550383614db5565b92506155307fffffffffffffffffffffffffffffffffffffffffffffffffffffffffffffffff848461541a565b905092915050565b600061554382614bd3565b915061554e83614bd3565b925082820261555c81614bd3565b915082820484148315176155735761557261538b565b5b5092915050565b600060408201905061558f6000830185614c68565b61559c6020830184614c68565b9392505050565b60006155ae82614bd3565b91506155b983614bd3565b92508282019050808211156155d1576155d061538b565b5b92915050565b60006060820190506155ec6000830186614c68565b6155f96020830185614c68565b6156066040830184614cfe565b949350505050565b600082825260208201905092915050565b7f416363657373436f6e74726f6c3a2063616e206f6e6c792072656e6f756e636560008201527f20726f6c657320666f722073656c660000000000000000000000000000000000602082015250565b600061567b602f8361560e565b91506156868261561f565b604082019050919050565b600060208201905081810360008301526156aa8161566e565b9050919050565b7f4e487b7100000000000000000000000000000000000000000000000000000000600052602160045260246000fd5b600381106156f1576156f06156b1565b5b50565b6000819050615702826156e0565b919050565b6000615712826156f4565b9050919050565b61572281615707565b82525050565b600060408201905061573d6000830185615719565b61574a6020830184615719565b9392505050565b600061575c82614bd3565b915061576783614bd3565b925082820390508181111561577f5761577e61538b565b5b92915050565b7f4e487b7100000000000000000000000000000000000000000000000000000000600052601260045260246000fd5b60006157bf82614bd3565b91506157ca83614bd3565b9250826157da576157d9615785565b5b828204905092915050565b7f5061757361626c653a2070617573656400000000000000000000000000000000600082015250565b600061581b60108361560e565b9150615826826157e5565b602082019050919050565b6000602082019050818103600083015261584a8161580e565b9050919050565b600061585c82614db5565b91506000820361586f5761586e61538b565b5b600182039050919050565b600081905092915050565b7f416363657373436f6e74726f6c3a206163636f756e7420000000000000000000600082015250565b60006158bb60178361587a565b91506158c682615885565b601782019050919050565b600081519050919050565b60005b838110156158fa5780820151818401526020810190506158df565b60008484015250505050565b6000615911826158d1565b61591b818561587a565b935061592b8185602086016158dc565b80840191505092915050565b7f206973206d697373696e6720726f6c6520000000000000000000000000000000600082015250565b600061596d60118361587a565b915061597882615937565b601182019050919050565b600061598e826158ae565b915061599a8285615906565b91506159a582615960565b91506159b18284615906565b91508190509392505050565b6000601f19601f8301169050919050565b60006159d9826158d1565b6159e3818561560e565b93506159f38185602086016158dc565b6159fc816159bd565b840191505092915050565b60006020820190508181036000830152615a2181846159ce565b905092915050565b7f5061757361626c653a206e6f7420706175736564000000000000000000000000600082015250565b6000615a5f60148361560e565b9150615a6a82615a29565b602082019050919050565b60006020820190508181036000830152615a8e81615a52565b9050919050565b7f4e487b7100000000000000000000000000000000000000000000000000000000600052604160045260246000fd5b7f4e487b7100000000000000000000000000000000000000000000000000000000600052603260045260246000fd5b6000615afe82614bd3565b915060008203615b1157615b1061538b565b5b600182039050919050565b7f537472696e67733a20686578206c656e67746820696e73756666696369656e74600082015250565b6000615b5260208361560e565b9150615b5d82615b1c565b602082019050919050565b60006020820190508181036000830152615b8181615b45565b905091905056fea2646970667358221220cac64716bea24da36659b6707c1448866c0343eece4577c1a84038d46324c82b64736f6c63430008130033",
  "immutableReferences": {},
  "source": "// SPDX-License-Identifier: MIT\npragma solidity ^0.8.9;\n\nimport \"@openzeppelin/contracts/token/ERC20/IERC20.sol\";\nimport \"@openzeppelin/contracts/access/AccessControl.sol\";\nimport \"@openzeppelin/contracts/security/Pausable.sol\"; \n\ninterface IERC20Extended is IERC20 {\n  function decimals() external view returns (uint8);\n}\n\ninterface IERC20Burnable is IERC20Extended {\n  function burnFrom(address account, uint amount) external;\n}\n\ncontract PandAIEarn is AccessControl, Pausable {\n\n  IERC20Extended private usdtToken;\n  IERC20Burnable private pandaiToken;\n  \n  address private lpAddress;\n\n  bytes32 public constant UPDATER_ROLE = keccak256(\"UPDATER_ROLE\");\n  address public constant DEFAULT_REFERRAL = 0xEe9Aa828fF4cBF294063168E78BEB7BcF441fEa1;\n\n  uint public constant WITHDRAW_PROCESSING_TIME = 14 days;  // user requests withdrawal -> 14 days waiting -> withdrawal can be executed\n  uint public constant INTEREST_PERIOD = 30 days;           // period for Tier.monthlyGainBps\n  uint public constant DAILY_CLAIM_LIMIT = 1000;            // daily claim limit of USDT for NotApproved users\n  uint public constant MIRIAD = 10000;                      // helper for divisor\n  uint public constant REFERRAL_MONTHLY_GAIN_BPS = 20;      // 0.2% reward for referrals\n  uint public constant REFERRAL_CLAIM_FEE_BPS = 1000;       // 10% referral claim fee\n  \n  /**\n    0: NotApproved (daily claim limit of $1000)\n    1: Approved (no daily limit)\n    2: Forbidden (claim forbidden)\n  */\n  enum ApprovalLevel{ NotApproved, Approved, Forbidden }\n\n  mapping(uint8 => Tier) public tierMap;\n  struct Tier {\n    uint minDeposit;\n    bool compoundInterest;     \n    \n    uint monthlyGainBps;\n    uint claimFeeBps;\n\n    uint lockupSeconds;\n    uint lockupBreachFeeBps;\n  }\n\n  mapping(address => User) public userMap;\n  struct User {\n    address referral;                  // referral address for this account\n    uint8 approvalLevel;               // approval level of this user (from ApprovalLevel enum)\n    \n    uint deposit;                      // usdt deposit of given user\n    uint lastDepositTimestamp;         // last time of usdt deposit\n    \n    uint withdrawRequestAmount;        // usdt user request to withdraw\n    uint withdrawPossibleTimestamp;    // time when the withdraw of requested amount can be done\n    \n    uint dailyClaim;                   // usdt user claimed today\n    uint totalClaim;                   // usdt user claimed in total\n    uint lastClaimTimestamp;           // last time when user called claim\n\n    uint referralDeposit;              // sum of usdt deposits of users bellow this user (in referral program)\n    uint referralPendingReward;        // pending referral reward (calculated in referralLastUpdateTimestamp)\n    uint referralLastUpdateTimestamp;  // time when referalPendingReward was updated\n  }\n\n  struct UserCalculated {\n    uint8 tier;\n\n    uint userPendingReward;\n    uint userPendingPandaiBurn;\n\n    uint referralPendingReward;\n    uint referralPendingPandaiBurn;\n\n    uint depositUnlockTimestamp;\n  }\n\n  event TreasuryWithdraw(uint usdtAmount);\n  event TreasuryDeposit(uint usdtAmount);\n  event LpAddressChanged(address indexed previousLp, address indexed newLp);\n  event ApprovalLevelChanged(address indexed userAddress, ApprovalLevel previousApprovalLevel, ApprovalLevel newApprovalLevel);\n\n  event UserDeposited(address indexed userAddress, uint usdtAmount);\n  event UserRequestedWithdraw(address indexed userAddress, uint usdtAmount);\n  event UserWithdrew(address indexed userAddress, uint usdtAmount);\n\n  event PandaiBurnedForUserRewardClaim(address indexed userAddress, uint pandaiAmount);\n  event PandaiBurnedForReferralRewardClaim(address indexed userAddress, uint pandaiAmount);\n  event PandaiBurnedForWithdrawFee(address indexed userAddress, uint pandaiAmount);\n  \n  event UserRewardClaimed(address indexed userAddress, uint usdtAmount);\n  event ReferralRewardClaimed(address indexed userAddress, uint usdtAmount);\n\n  constructor(address usdtTokenAddress, address pandaiTokenAddress) {\n    usdtToken = IERC20Extended(usdtTokenAddress);\n    pandaiToken = IERC20Burnable(pandaiTokenAddress);\n\n    tierMap[1] = Tier(  100, false, 100, 1000,   7 days, 4000);\n    tierMap[2] = Tier(  500, false, 125,  900,  30 days, 3500);\n    tierMap[3] = Tier( 1000, false, 150,  800,  60 days, 3000);\n    tierMap[4] = Tier( 5000,  true, 180,  650,  90 days, 2500);\n    tierMap[5] = Tier(10000,  true, 220,  500, 180 days, 2000);\n\n    _grantRole(DEFAULT_ADMIN_ROLE, msg.sender);\n  }\n \n  /**\n    returns info about given user. Returns stored values (stored in mapping) and calculated values (contract calculates them from stored values)\n  */\n  function getUser(address userAddress) external view returns (User memory stored, UserCalculated memory calculated) {    \n    require(userAddress != address(0));    \n    uint8 tier = getUserTier(userAddress);\n    uint userReward = getUserReward(userAddress, tier);\n    uint referralReward = userMap[userAddress].referralPendingReward + getNewReferralReward(userAddress);\n    return (\n      userMap[userAddress],\n      UserCalculated(\n        tier,\n        userReward,\n        getUserRewardClaimFeePandai(userReward, tier),\n        referralReward,\n        getReferralRewardClaimFeePandai(referralReward),\n        getDepositUnlokTimestamp(userAddress, tier)\n      )\n    );\n  }\n\n  /**\n    returns info about given tier.\n  */\n  function getTier(uint8 tier) external view returns (Tier memory) {\n    require(tier >= 1 && tier <= 5);\n    return tierMap[tier];\n  }\n\n  /**\n    returns address of liquidty pool that swaps USDT and PANDAI. Used to define PANDAI price in USDT.\n  */\n  function getLpAddress() external view returns (address) {\n    return lpAddress;\n  }\n\n  /**\n    paused contract prohibits deposits\n  */\n  function pause() external onlyRole(DEFAULT_ADMIN_ROLE) {\n    _pause();\n  }\n\n  /**\n    unpauses paused contract\n  */\n  function unpause() external onlyRole(DEFAULT_ADMIN_ROLE) {\n    _unpause();\n  }\n\n  /**\n    sets address for liquidity pool\n  */\n  function setLpAddress(address newLpAddress) external onlyRole(DEFAULT_ADMIN_ROLE) {\n    require(newLpAddress != address(0));\n    require(usdtToken.balanceOf(newLpAddress) > 0);\n    require(pandaiToken.balanceOf(newLpAddress) > 0);\n    \n    address oldLpAddress = newLpAddress;\n    lpAddress = newLpAddress;\n    emit LpAddressChanged(oldLpAddress, newLpAddress);\n  }\n\n  /**\n    withdraws USDT from contract\n  */\n  function withdrawTreasury(uint usdtAmount) external onlyRole(DEFAULT_ADMIN_ROLE) {\n    require(usdtToken.balanceOf(address(this)) >= usdtAmount);\n    usdtToken.transfer(msg.sender, usdtAmount);\n    emit TreasuryWithdraw(usdtAmount);\n  }\n\n  /**\n    deposits USDT from contract. USDT can be sent in ordinary transaction, this event is helpful to use as it produces event.\n  */\n  function depositTreasury(uint usdtAmount) external onlyRole(DEFAULT_ADMIN_ROLE) {\n    require(usdtToken.balanceOf(msg.sender) >= usdtAmount);\n    require(usdtToken.allowance(msg.sender, address(this)) >= usdtAmount);\n    usdtToken.transferFrom(msg.sender, address(this), usdtAmount);\n    emit TreasuryDeposit(usdtAmount);\n  }\n\n  /**\n    sets ApprovalLevel of given address. \n  */\n  function setUserApprovalLevel(address userAddress, ApprovalLevel newApprovalLevel) external onlyRole(UPDATER_ROLE) {\n    ApprovalLevel oldApprovalLevel = ApprovalLevel(userMap[userAddress].approvalLevel);\n    userMap[userAddress].approvalLevel = uint8(newApprovalLevel);\n    emit ApprovalLevelChanged(userAddress, oldApprovalLevel, newApprovalLevel);\n  }\n\n  /**\n    deposits USDT, default referral is used\n  */\n  function deposit(uint usdtDepositAmount) external {\n    depositWithReferral(usdtDepositAmount, DEFAULT_REFERRAL);\n  }\n\n  /**\n    deposits USDT, referralAddress is used only if no referral is set for address making deposit (the first deposit of the address).\n    If there's a pending user reward, the reward is lost because this method restarts User.lastClaimTimestamp and makes no claim.\n    It's recommended to call claim() before this method.\n  */\n  function depositWithReferral(uint usdtDepositAmount, address referralAddress) public whenNotPaused {\n    require(usdtDepositAmount >= tierMap[1].minDeposit * (10 ** usdtToken.decimals()));\n    require(referralAddress != address(0));\n    require(referralAddress != msg.sender);\n    \n    require(usdtToken.balanceOf(msg.sender) >= usdtDepositAmount);\n    require(usdtToken.allowance(msg.sender, address(this)) >= usdtDepositAmount);\n\n    // assign referral\n    if (userMap[msg.sender].referral == address(0)) {\n      userMap[msg.sender].referral = referralAddress;\n    }\n\n    // update user\n    userMap[msg.sender].deposit += usdtDepositAmount;\n    userMap[msg.sender].lastDepositTimestamp = block.timestamp;\n    userMap[msg.sender].lastClaimTimestamp = block.timestamp;\n    \n    // update referral\n    uint newReferralReward = getNewReferralReward(userMap[msg.sender].referral);\n    userMap[userMap[msg.sender].referral].referralDeposit += usdtDepositAmount;\n    userMap[userMap[msg.sender].referral].referralPendingReward += newReferralReward;\n    userMap[userMap[msg.sender].referral].referralLastUpdateTimestamp = block.timestamp;\n    \n    // transfer USDT\n    usdtToken.transferFrom(msg.sender, address(this), usdtDepositAmount);\n    emit UserDeposited(msg.sender, usdtDepositAmount);\n  }\n\n  /**\n    requests USDT withdraw. USDTs will be available for withdraw (other method) after WITHDRAW_PROCESSING_TIME.\n    If there's a pending user reward, the reward will be partialy lost because this method decresese deposit and performs no claim.\n    It's recommended to call claim() before this method.\n    In case there's already a withdraw pending, it's encreased by usdtWithdrawAmount and WITHDRAW_PROCESSING_TIME is reset.\n  */\n  function requestWithdraw(uint usdtWithdrawAmount) public {\n    require(usdtWithdrawAmount <= userMap[msg.sender].deposit);\n    if (usdtWithdrawAmount < userMap[msg.sender].deposit) {\n      require(userMap[msg.sender].deposit - usdtWithdrawAmount >= tierMap[1].minDeposit * (10 ** usdtToken.decimals()));\n    }\n\n    uint8 tier = getUserTier(msg.sender);\n    require(tier > 0);\n\n    // if withdraw is called before lockup, there's a fee paid in PANDAI\n    uint withdrawFeePandai;\n    if (getDepositUnlokTimestamp(msg.sender, tier) > block.timestamp) {\n      withdrawFeePandai = getPandaiWorthOf(usdtWithdrawAmount * tierMap[tier].lockupBreachFeeBps / MIRIAD);\n\n      require(pandaiToken.balanceOf(msg.sender) >= withdrawFeePandai);\n      require(pandaiToken.allowance(msg.sender, address(this)) >= withdrawFeePandai);\n    }\n\n    // update user\n    userMap[msg.sender].deposit -= usdtWithdrawAmount;\n    userMap[msg.sender].withdrawRequestAmount += usdtWithdrawAmount;\n    userMap[msg.sender].withdrawPossibleTimestamp = block.timestamp + WITHDRAW_PROCESSING_TIME;\n    \n    // update referral\n    uint newReferralReward = getNewReferralReward(userMap[msg.sender].referral);\n    if (userMap[userMap[msg.sender].referral].referralDeposit >= usdtWithdrawAmount) {\n      userMap[userMap[msg.sender].referral].referralDeposit -= usdtWithdrawAmount;\n    } else {\n      userMap[userMap[msg.sender].referral].referralDeposit = 0;\n    }\n    userMap[userMap[msg.sender].referral].referralPendingReward += newReferralReward;\n    userMap[userMap[msg.sender].referral].referralLastUpdateTimestamp = block.timestamp;\n\n    // if needed, burn PANDAI\n    if (withdrawFeePandai > 0) {\n      pandaiToken.burnFrom(msg.sender, withdrawFeePandai);\n      emit PandaiBurnedForWithdrawFee(msg.sender, withdrawFeePandai);\n    }\n    emit UserRequestedWithdraw(msg.sender, usdtWithdrawAmount);\n  }\n\n  /**\n    withdraws requested amount of USDT\n  */\n  function withdraw() public {\n    require(userMap[msg.sender].withdrawRequestAmount > 0);\n    require(userMap[msg.sender].withdrawRequestAmount <= usdtToken.balanceOf(address(this)));\n    require(userMap[msg.sender].withdrawPossibleTimestamp <= block.timestamp);\n\n    // update user\n    uint usdtWithdrawAmount = userMap[msg.sender].withdrawRequestAmount;\n    userMap[msg.sender].withdrawRequestAmount = 0;\n    userMap[msg.sender].withdrawPossibleTimestamp = 0;\n\n    // transfer USDT\n    usdtToken.transfer(msg.sender, usdtWithdrawAmount);\n    emit UserWithdrew(msg.sender, usdtWithdrawAmount);\n  }\n\n  /**\n    claims user reward (derived from it's own deposit)\n  */\n  function claimUser() public {\n    uint8 tier = getUserTier(msg.sender);\n    require(tier > 0);\n\n    uint userClaimUsdt = getUserReward(msg.sender, tier);\n    require(userClaimUsdt > 0);\n    require(canClaim(msg.sender, userClaimUsdt));\n    \n    uint userClaimFeePandai = getUserRewardClaimFeePandai(userClaimUsdt, tier);\n    require(pandaiToken.balanceOf(msg.sender) >= userClaimFeePandai);\n    require(pandaiToken.allowance(msg.sender, address(this)) >= userClaimFeePandai);\n\n    // update user\n    if (isToday(userMap[msg.sender].lastClaimTimestamp)) {\n      userMap[msg.sender].dailyClaim += userClaimUsdt;\n    } else {\n      userMap[msg.sender].dailyClaim = userClaimUsdt;\n    }\n    userMap[msg.sender].totalClaim += userClaimUsdt;\n    userMap[msg.sender].lastClaimTimestamp = block.timestamp;\n\n    // transfer USDT\n    usdtToken.transfer(msg.sender, userClaimUsdt);\n    emit UserRewardClaimed(msg.sender, userClaimUsdt);\n    \n    // burn PANDAI\n    pandaiToken.burnFrom(msg.sender, userClaimFeePandai);\n    emit PandaiBurnedForUserRewardClaim(msg.sender, userClaimFeePandai);\n  }\n \n  /**\n    claims referral reward (derived from deposits of users with referral being the caller)\n  */\n  function claimReferral() public {\n    uint referralClaimUsdt = userMap[msg.sender].referralPendingReward + getNewReferralReward(msg.sender);\n    require(referralClaimUsdt > 0);\n    require(canClaim(msg.sender, referralClaimUsdt));\n    \n    uint referralClaimFeePandai = getReferralRewardClaimFeePandai(referralClaimUsdt);\n    require(pandaiToken.balanceOf(msg.sender) >= referralClaimFeePandai);\n    require(pandaiToken.allowance(msg.sender, address(this)) >= referralClaimFeePandai);\n\n    // update user\n    if (isToday(userMap[msg.sender].lastClaimTimestamp)) {\n      userMap[msg.sender].dailyClaim += referralClaimUsdt;\n    } else {\n      userMap[msg.sender].dailyClaim = referralClaimUsdt;\n    }\n    userMap[msg.sender].totalClaim += referralClaimUsdt;\n\n    // update referral\n    userMap[msg.sender].referralPendingReward = 0;\n    userMap[msg.sender].referralLastUpdateTimestamp = block.timestamp;\n\n    // transfer USDT\n    usdtToken.transfer(msg.sender, referralClaimUsdt);\n    emit ReferralRewardClaimed(msg.sender, referralClaimUsdt);\n    \n    // transfer PANDAI\n    pandaiToken.burnFrom(msg.sender, referralClaimFeePandai);\n    emit PandaiBurnedForReferralRewardClaim(msg.sender, referralClaimFeePandai);\n  }\n\n  /**\n    combines claimUser() and claimReferral() into a single contract call.\n  */\n  function claimAll() public {\n    uint8 tier = getUserTier(msg.sender);\n    uint userClaimUsdt = getUserReward(msg.sender, tier);\n    uint referralClaimUsdt = userMap[msg.sender].referralPendingReward + getNewReferralReward(msg.sender);\n    require(userClaimUsdt + referralClaimUsdt > 0);\n    require(canClaim(msg.sender, userClaimUsdt + referralClaimUsdt));\n    \n    uint userClaimFeePandai = getUserRewardClaimFeePandai(userClaimUsdt, tier);\n    uint referralClaimFeePandai = getReferralRewardClaimFeePandai(referralClaimUsdt);\n    require(pandaiToken.balanceOf(msg.sender) >= userClaimFeePandai + referralClaimFeePandai);\n    require(pandaiToken.allowance(msg.sender, address(this)) >= userClaimFeePandai + referralClaimFeePandai);\n\n    // update user\n    if (isToday(userMap[msg.sender].lastClaimTimestamp)) {\n      userMap[msg.sender].dailyClaim += userClaimUsdt + referralClaimUsdt;\n    } else {\n      userMap[msg.sender].dailyClaim = userClaimUsdt + referralClaimUsdt;\n    }\n    userMap[msg.sender].totalClaim += userClaimUsdt + referralClaimUsdt;\n    userMap[msg.sender].lastClaimTimestamp = block.timestamp;\n\n    // update referral\n    userMap[msg.sender].referralPendingReward = 0;\n    userMap[msg.sender].referralLastUpdateTimestamp = block.timestamp;\n\n    // transfer USDT, burn PANDAI\n    usdtToken.transfer(msg.sender, userClaimUsdt + referralClaimUsdt);\n    pandaiToken.burnFrom(msg.sender, userClaimFeePandai + referralClaimFeePandai);\n    if (userClaimUsdt > 0) {\n      emit UserRewardClaimed(msg.sender, userClaimUsdt);\n      emit PandaiBurnedForUserRewardClaim(msg.sender, userClaimFeePandai);\n    }\n    if (referralClaimUsdt > 0) {\n      emit ReferralRewardClaimed(msg.sender, referralClaimUsdt);\n      emit PandaiBurnedForReferralRewardClaim(msg.sender, referralClaimFeePandai);\n    }\n  }\n\n  /**\n    checks whether given user is able claiming given amount of usdt. Depends on user approvalLevel and his dailyClaim\n  */\n  function canClaim(address userAddress, uint claimUsdt) private view returns (bool) {\n    ApprovalLevel approvalLevel = ApprovalLevel(userMap[userAddress].approvalLevel);\n    if (approvalLevel == ApprovalLevel.Approved) {\n      return true;\n    } else if (approvalLevel == ApprovalLevel.Forbidden) {\n      return false;\n    }\n    if (isToday(userMap[userAddress].lastClaimTimestamp)) {\n      claimUsdt += userMap[userAddress].dailyClaim;\n    }\n    return claimUsdt / (10 ** usdtToken.decimals()) < DAILY_CLAIM_LIMIT;\n  }\n\n  /**\n    simple check whether given timestamp falls into same day\n  */\n  function isToday(uint timestamp) private view returns (bool) {\n    return block.timestamp / 1 days == timestamp / 1 days;\n  }\n\n  /**\n    converts USDT into pandai according to current price in the liquity pool\n  */\n  function getPandaiWorthOf(uint usdtAmount) private view returns (uint) {\n    if (usdtAmount == 0) {\n      return 0;\n    }\n    uint usdtInLp = usdtToken.balanceOf(lpAddress);\n    uint pandaiInLp = pandaiToken.balanceOf(lpAddress);\n    require (usdtInLp * pandaiInLp > 0);\n\n    return usdtAmount * pandaiInLp / usdtInLp;\n  }\n\n  /**\n    gets user tier from his deposit\n  */\n  function getUserTier(address userAddress) private view returns (uint8) {\n    uint userDeposit = userMap[userAddress].deposit / (10 ** usdtToken.decimals());\n    for (uint8 i = 5; i >= 1; i--) {\n      if (userDeposit >= tierMap[i].minDeposit) {\n        return i;\n      }\n    }\n    return 0;\n  }\n\n  /**\n    claculates user reward that follows eiterh simple or compounc interest. \n    In case of compound iterest, the calculatio follows taylor series for exponential\n  */\n  function getUserReward(address userAddress, uint8 userTier) private view returns (uint) {\n    if (userTier == 0) {\n      return 0;\n    }\n    uint g = tierMap[userTier].monthlyGainBps;\n    uint t = block.timestamp - userMap[userAddress].lastClaimTimestamp;\n    uint f1 = userMap[userAddress].deposit * g * t / MIRIAD / INTEREST_PERIOD;\n    if (!tierMap[userTier].compoundInterest) {\n      return f1;\n    }\n    uint f2 = f1 * g * t / MIRIAD / INTEREST_PERIOD / 2;\n    uint f3 = f2 * g * t / MIRIAD / INTEREST_PERIOD / 3;\n    return f1 + f2 + f3;\n  }\n\n  /**\n    how much PANDAI user in given tier should burn when claiming given user reward\n  */\n  function getUserRewardClaimFeePandai(uint userRewardUsdt, uint8 userTier) private view returns (uint) {\n    if (userTier == 0) {\n      return 0;\n    }\n    return getPandaiWorthOf(userRewardUsdt * tierMap[userTier].claimFeeBps / MIRIAD);\n  }\n\n  /**\n    calculates referral reward from time when the reward has been updated the last\n  */\n  function getNewReferralReward(address userAddress) private view returns (uint) {\n    uint t = block.timestamp - userMap[userAddress].referralLastUpdateTimestamp;\n    return userMap[userAddress].referralDeposit * REFERRAL_MONTHLY_GAIN_BPS * t / MIRIAD / INTEREST_PERIOD;\n  }\n\n  /**\n    how much PANDAI user should burn when claiming given referral reward \n  */\n  function getReferralRewardClaimFeePandai(uint referralRewardUsdt) private view returns (uint) {\n    return getPandaiWorthOf(referralRewardUsdt * REFERRAL_CLAIM_FEE_BPS / MIRIAD);\n  }\n\n  /**\n    timestamp when it's no longer required to burn PANDAI when requesting withdraw\n  */\n  function getDepositUnlokTimestamp(address userAddress, uint8 userTier) private view returns (uint) {\n    if (userTier == 0) {\n      return 0;\n    }\n    return userMap[userAddress].lastDepositTimestamp + tierMap[userTier].lockupSeconds;\n  }\n\n}\n",
  "sourcePath": "/Users/jlochman/Documents/PandAI/Earn SC/contracts/PandAIEarn.sol",
  "compiler": {
    "name": "solc",
    "version": "0.8.19+commit.7dd6d404.Emscripten.clang"
  },
  "schemaVersion": "3.4.13",
  "updatedAt": "2023-04-07T16:04:22.814Z",
  "devdoc": {
    "events": {
      "Paused(address)": {
        "details": "Emitted when the pause is triggered by `account`."
      },
      "RoleAdminChanged(bytes32,bytes32,bytes32)": {
        "details": "Emitted when `newAdminRole` is set as ``role``'s admin role, replacing `previousAdminRole` `DEFAULT_ADMIN_ROLE` is the starting admin for all roles, despite {RoleAdminChanged} not being emitted signaling this. _Available since v3.1._"
      },
      "RoleGranted(bytes32,address,address)": {
        "details": "Emitted when `account` is granted `role`. `sender` is the account that originated the contract call, an admin role bearer except when using {AccessControl-_setupRole}."
      },
      "RoleRevoked(bytes32,address,address)": {
        "details": "Emitted when `account` is revoked `role`. `sender` is the account that originated the contract call:   - if using `revokeRole`, it is the admin role bearer   - if using `renounceRole`, it is the role bearer (i.e. `account`)"
      },
      "Unpaused(address)": {
        "details": "Emitted when the pause is lifted by `account`."
      }
    },
    "kind": "dev",
    "methods": {
      "getRoleAdmin(bytes32)": {
        "details": "Returns the admin role that controls `role`. See {grantRole} and {revokeRole}. To change a role's admin, use {_setRoleAdmin}."
      },
      "grantRole(bytes32,address)": {
        "details": "Grants `role` to `account`. If `account` had not been already granted `role`, emits a {RoleGranted} event. Requirements: - the caller must have ``role``'s admin role. May emit a {RoleGranted} event."
      },
      "hasRole(bytes32,address)": {
        "details": "Returns `true` if `account` has been granted `role`."
      },
      "paused()": {
        "details": "Returns true if the contract is paused, and false otherwise."
      },
      "renounceRole(bytes32,address)": {
        "details": "Revokes `role` from the calling account. Roles are often managed via {grantRole} and {revokeRole}: this function's purpose is to provide a mechanism for accounts to lose their privileges if they are compromised (such as when a trusted device is misplaced). If the calling account had been revoked `role`, emits a {RoleRevoked} event. Requirements: - the caller must be `account`. May emit a {RoleRevoked} event."
      },
      "revokeRole(bytes32,address)": {
        "details": "Revokes `role` from `account`. If `account` had been granted `role`, emits a {RoleRevoked} event. Requirements: - the caller must have ``role``'s admin role. May emit a {RoleRevoked} event."
      },
      "supportsInterface(bytes4)": {
        "details": "See {IERC165-supportsInterface}."
      }
    },
    "version": 1
  },
  "userdoc": {
    "kind": "user",
    "methods": {
      "claimAll()": {
        "notice": "combines claimUser() and claimReferral() into a single contract call."
      },
      "claimReferral()": {
        "notice": "claims referral reward (derived from deposits of users with referral being the caller)"
      },
      "claimUser()": {
        "notice": "claims user reward (derived from it's own deposit)"
      },
      "deposit(uint256)": {
        "notice": "deposits USDT, default referral is used"
      },
      "depositTreasury(uint256)": {
        "notice": "deposits USDT from contract. USDT can be sent in ordinary transaction, this event is helpful to use as it produces event."
      },
      "depositWithReferral(uint256,address)": {
        "notice": "deposits USDT, referralAddress is used only if no referral is set for address making deposit (the first deposit of the address). If there's a pending user reward, the reward is lost because this method restarts User.lastClaimTimestamp and makes no claim. It's recommended to call claim() before this method."
      },
      "getLpAddress()": {
        "notice": "returns address of liquidty pool that swaps USDT and PANDAI. Used to define PANDAI price in USDT."
      },
      "getTier(uint8)": {
        "notice": "returns info about given tier."
      },
      "getUser(address)": {
        "notice": "returns info about given user. Returns stored values (stored in mapping) and calculated values (contract calculates them from stored values)"
      },
      "pause()": {
        "notice": "paused contract prohibits deposits"
      },
      "requestWithdraw(uint256)": {
        "notice": "requests USDT withdraw. USDTs will be available for withdraw (other method) after WITHDRAW_PROCESSING_TIME. If there's a pending user reward, the reward will be partialy lost because this method decresese deposit and performs no claim. It's recommended to call claim() before this method. In case there's already a withdraw pending, it's encreased by usdtWithdrawAmount and WITHDRAW_PROCESSING_TIME is reset."
      },
      "setLpAddress(address)": {
        "notice": "sets address for liquidity pool"
      },
      "setUserApprovalLevel(address,uint8)": {
        "notice": "sets ApprovalLevel of given address. "
      },
      "unpause()": {
        "notice": "unpauses paused contract"
      },
      "withdraw()": {
        "notice": "withdraws requested amount of USDT"
      },
      "withdrawTreasury(uint256)": {
        "notice": "withdraws USDT from contract"
      }
    },
    "version": 1
  }
}