{
  "contractName": "PandAIEarn",
  "abi": [
    {
      "inputs": [
        {
          "internalType": "address",
          "name": "usdtTokenAddress",
          "type": "address"
        },
        {
          "internalType": "address",
          "name": "pandaiTokenAddress",
          "type": "address"
        }
      ],
      "stateMutability": "nonpayable",
      "type": "constructor"
    },
    {
      "anonymous": false,
      "inputs": [
        {
          "indexed": true,
          "internalType": "address",
          "name": "userAddress",
          "type": "address"
        },
        {
          "indexed": false,
          "internalType": "enum PandAIEarn.ApprovalLevel",
          "name": "previousApprovalLevel",
          "type": "uint8"
        },
        {
          "indexed": false,
          "internalType": "enum PandAIEarn.ApprovalLevel",
          "name": "newApprovalLevel",
          "type": "uint8"
        }
      ],
      "name": "ApprovalLevelChanged",
      "type": "event"
    },
    {
      "anonymous": false,
      "inputs": [
        {
          "indexed": true,
          "internalType": "address",
          "name": "previousLp",
          "type": "address"
        },
        {
          "indexed": true,
          "internalType": "address",
          "name": "newLp",
          "type": "address"
        }
      ],
      "name": "LpAddressChanged",
      "type": "event"
    },
    {
      "anonymous": false,
      "inputs": [
        {
          "indexed": true,
          "internalType": "address",
          "name": "userAddress",
          "type": "address"
        },
        {
          "indexed": false,
          "internalType": "uint256",
          "name": "pandaiAmount",
          "type": "uint256"
        }
      ],
      "name": "PandaiBurnedForReferralRewardClaim",
      "type": "event"
    },
    {
      "anonymous": false,
      "inputs": [
        {
          "indexed": true,
          "internalType": "address",
          "name": "userAddress",
          "type": "address"
        },
        {
          "indexed": false,
          "internalType": "uint256",
          "name": "pandaiAmount",
          "type": "uint256"
        }
      ],
      "name": "PandaiBurnedForUserRewardClaim",
      "type": "event"
    },
    {
      "anonymous": false,
      "inputs": [
        {
          "indexed": true,
          "internalType": "address",
          "name": "userAddress",
          "type": "address"
        },
        {
          "indexed": false,
          "internalType": "uint256",
          "name": "pandaiAmount",
          "type": "uint256"
        }
      ],
      "name": "PandaiBurnedForWithdrawFee",
      "type": "event"
    },
    {
      "anonymous": false,
      "inputs": [
        {
          "indexed": false,
          "internalType": "address",
          "name": "account",
          "type": "address"
        }
      ],
      "name": "Paused",
      "type": "event"
    },
    {
      "anonymous": false,
      "inputs": [
        {
          "indexed": true,
          "internalType": "address",
          "name": "userAddress",
          "type": "address"
        },
        {
          "indexed": false,
          "internalType": "uint256",
          "name": "usdtAmount",
          "type": "uint256"
        }
      ],
      "name": "ReferralRewardClaimed",
      "type": "event"
    },
    {
      "anonymous": false,
      "inputs": [
        {
          "indexed": true,
          "internalType": "bytes32",
          "name": "role",
          "type": "bytes32"
        },
        {
          "indexed": true,
          "internalType": "bytes32",
          "name": "previousAdminRole",
          "type": "bytes32"
        },
        {
          "indexed": true,
          "internalType": "bytes32",
          "name": "newAdminRole",
          "type": "bytes32"
        }
      ],
      "name": "RoleAdminChanged",
      "type": "event"
    },
    {
      "anonymous": false,
      "inputs": [
        {
          "indexed": true,
          "internalType": "bytes32",
          "name": "role",
          "type": "bytes32"
        },
        {
          "indexed": true,
          "internalType": "address",
          "name": "account",
          "type": "address"
        },
        {
          "indexed": true,
          "internalType": "address",
          "name": "sender",
          "type": "address"
        }
      ],
      "name": "RoleGranted",
      "type": "event"
    },
    {
      "anonymous": false,
      "inputs": [
        {
          "indexed": true,
          "internalType": "bytes32",
          "name": "role",
          "type": "bytes32"
        },
        {
          "indexed": true,
          "internalType": "address",
          "name": "account",
          "type": "address"
        },
        {
          "indexed": true,
          "internalType": "address",
          "name": "sender",
          "type": "address"
        }
      ],
      "name": "RoleRevoked",
      "type": "event"
    },
    {
      "anonymous": false,
      "inputs": [
        {
          "indexed": false,
          "internalType": "uint256",
          "name": "usdtAmount",
          "type": "uint256"
        }
      ],
      "name": "TreasuryDeposit",
      "type": "event"
    },
    {
      "anonymous": false,
      "inputs": [
        {
          "indexed": false,
          "internalType": "uint256",
          "name": "usdtAmount",
          "type": "uint256"
        }
      ],
      "name": "TreasuryWithdraw",
      "type": "event"
    },
    {
      "anonymous": false,
      "inputs": [
        {
          "indexed": false,
          "internalType": "address",
          "name": "account",
          "type": "address"
        }
      ],
      "name": "Unpaused",
      "type": "event"
    },
    {
      "anonymous": false,
      "inputs": [
        {
          "indexed": true,
          "internalType": "address",
          "name": "userAddress",
          "type": "address"
        },
        {
          "indexed": false,
          "internalType": "uint256",
          "name": "usdtAmount",
          "type": "uint256"
        }
      ],
      "name": "UserDeposited",
      "type": "event"
    },
    {
      "anonymous": false,
      "inputs": [
        {
          "indexed": true,
          "internalType": "address",
          "name": "userAddress",
          "type": "address"
        },
        {
          "indexed": false,
          "internalType": "uint256",
          "name": "usdtAmount",
          "type": "uint256"
        }
      ],
      "name": "UserRequestedWithdraw",
      "type": "event"
    },
    {
      "anonymous": false,
      "inputs": [
        {
          "indexed": true,
          "internalType": "address",
          "name": "userAddress",
          "type": "address"
        },
        {
          "indexed": false,
          "internalType": "uint256",
          "name": "usdtAmount",
          "type": "uint256"
        }
      ],
      "name": "UserRewardClaimed",
      "type": "event"
    },
    {
      "anonymous": false,
      "inputs": [
        {
          "indexed": true,
          "internalType": "address",
          "name": "userAddress",
          "type": "address"
        },
        {
          "indexed": false,
          "internalType": "uint256",
          "name": "usdtAmount",
          "type": "uint256"
        }
      ],
      "name": "UserWithdrew",
      "type": "event"
    },
    {
      "inputs": [],
      "name": "DEFAULT_ADMIN_ROLE",
      "outputs": [
        {
          "internalType": "bytes32",
          "name": "",
          "type": "bytes32"
        }
      ],
      "stateMutability": "view",
      "type": "function"
    },
    {
      "inputs": [],
      "name": "UPDATER_ROLE",
      "outputs": [
        {
          "internalType": "bytes32",
          "name": "",
          "type": "bytes32"
        }
      ],
      "stateMutability": "view",
      "type": "function"
    },
    {
      "inputs": [
        {
          "internalType": "bytes32",
          "name": "role",
          "type": "bytes32"
        }
      ],
      "name": "getRoleAdmin",
      "outputs": [
        {
          "internalType": "bytes32",
          "name": "",
          "type": "bytes32"
        }
      ],
      "stateMutability": "view",
      "type": "function"
    },
    {
      "inputs": [
        {
          "internalType": "bytes32",
          "name": "role",
          "type": "bytes32"
        },
        {
          "internalType": "address",
          "name": "account",
          "type": "address"
        }
      ],
      "name": "grantRole",
      "outputs": [],
      "stateMutability": "nonpayable",
      "type": "function"
    },
    {
      "inputs": [
        {
          "internalType": "bytes32",
          "name": "role",
          "type": "bytes32"
        },
        {
          "internalType": "address",
          "name": "account",
          "type": "address"
        }
      ],
      "name": "hasRole",
      "outputs": [
        {
          "internalType": "bool",
          "name": "",
          "type": "bool"
        }
      ],
      "stateMutability": "view",
      "type": "function"
    },
    {
      "inputs": [],
      "name": "paused",
      "outputs": [
        {
          "internalType": "bool",
          "name": "",
          "type": "bool"
        }
      ],
      "stateMutability": "view",
      "type": "function"
    },
    {
      "inputs": [
        {
          "internalType": "bytes32",
          "name": "role",
          "type": "bytes32"
        },
        {
          "internalType": "address",
          "name": "account",
          "type": "address"
        }
      ],
      "name": "renounceRole",
      "outputs": [],
      "stateMutability": "nonpayable",
      "type": "function"
    },
    {
      "inputs": [
        {
          "internalType": "bytes32",
          "name": "role",
          "type": "bytes32"
        },
        {
          "internalType": "address",
          "name": "account",
          "type": "address"
        }
      ],
      "name": "revokeRole",
      "outputs": [],
      "stateMutability": "nonpayable",
      "type": "function"
    },
    {
      "inputs": [
        {
          "internalType": "bytes4",
          "name": "interfaceId",
          "type": "bytes4"
        }
      ],
      "name": "supportsInterface",
      "outputs": [
        {
          "internalType": "bool",
          "name": "",
          "type": "bool"
        }
      ],
      "stateMutability": "view",
      "type": "function"
    },
    {
      "inputs": [
        {
          "internalType": "address",
          "name": "userAddress",
          "type": "address"
        }
      ],
      "name": "getUser",
      "outputs": [
        {
          "components": [
            {
              "internalType": "address",
              "name": "referral",
              "type": "address"
            },
            {
              "internalType": "uint8",
              "name": "approvalLevel",
              "type": "uint8"
            },
            {
              "internalType": "uint256",
              "name": "deposit",
              "type": "uint256"
            },
            {
              "internalType": "uint256",
              "name": "lastDepositTimestamp",
              "type": "uint256"
            },
            {
              "internalType": "uint256",
              "name": "withdrawRequestAmount",
              "type": "uint256"
            },
            {
              "internalType": "uint256",
              "name": "withdrawPossibleTimestamp",
              "type": "uint256"
            },
            {
              "internalType": "uint256",
              "name": "dailyClaim",
              "type": "uint256"
            },
            {
              "internalType": "uint256",
              "name": "totalClaim",
              "type": "uint256"
            },
            {
              "internalType": "uint256",
              "name": "lastClaimTimestamp",
              "type": "uint256"
            },
            {
              "internalType": "uint256",
              "name": "referralDeposit",
              "type": "uint256"
            },
            {
              "internalType": "uint256",
              "name": "referralPendingReward",
              "type": "uint256"
            },
            {
              "internalType": "uint256",
              "name": "referralLastUpdateTimestamp",
              "type": "uint256"
            }
          ],
          "internalType": "struct PandAIEarn.User",
          "name": "stored",
          "type": "tuple"
        },
        {
          "components": [
            {
              "internalType": "uint8",
              "name": "tier",
              "type": "uint8"
            },
            {
              "internalType": "uint256",
              "name": "userPendingReward",
              "type": "uint256"
            },
            {
              "internalType": "uint256",
              "name": "userPendingPandaiBurn",
              "type": "uint256"
            },
            {
              "internalType": "uint256",
              "name": "referralPendingReward",
              "type": "uint256"
            },
            {
              "internalType": "uint256",
              "name": "referralPendingPandaiBurn",
              "type": "uint256"
            },
            {
              "internalType": "uint256",
              "name": "depositUnlockTimestamp",
              "type": "uint256"
            }
          ],
          "internalType": "struct PandAIEarn.UserCalculated",
          "name": "calculated",
          "type": "tuple"
        }
      ],
      "stateMutability": "view",
      "type": "function"
    },
    {
      "inputs": [
        {
          "internalType": "uint8",
          "name": "tier",
          "type": "uint8"
        }
      ],
      "name": "getTier",
      "outputs": [
        {
          "components": [
            {
              "internalType": "uint256",
              "name": "minDeposit",
              "type": "uint256"
            },
            {
              "internalType": "bool",
              "name": "compoundInterest",
              "type": "bool"
            },
            {
              "internalType": "uint256",
              "name": "monthlyGainBps",
              "type": "uint256"
            },
            {
              "internalType": "uint256",
              "name": "claimFeeBps",
              "type": "uint256"
            },
            {
              "internalType": "uint256",
              "name": "lockupSeconds",
              "type": "uint256"
            },
            {
              "internalType": "uint256",
              "name": "lockupBreachFeeBps",
              "type": "uint256"
            }
          ],
          "internalType": "struct PandAIEarn.Tier",
          "name": "",
          "type": "tuple"
        }
      ],
      "stateMutability": "view",
      "type": "function"
    },
    {
      "inputs": [],
      "name": "getLpAddress",
      "outputs": [
        {
          "internalType": "address",
          "name": "",
          "type": "address"
        }
      ],
      "stateMutability": "view",
      "type": "function"
    },
    {
      "inputs": [],
      "name": "pause",
      "outputs": [],
      "stateMutability": "nonpayable",
      "type": "function"
    },
    {
      "inputs": [],
      "name": "unpause",
      "outputs": [],
      "stateMutability": "nonpayable",
      "type": "function"
    },
    {
      "inputs": [
        {
          "internalType": "address",
          "name": "newLpAddress",
          "type": "address"
        }
      ],
      "name": "setLpAddress",
      "outputs": [],
      "stateMutability": "nonpayable",
      "type": "function"
    },
    {
      "inputs": [
        {
          "internalType": "uint256",
          "name": "usdtAmount",
          "type": "uint256"
        }
      ],
      "name": "withdrawTreasury",
      "outputs": [],
      "stateMutability": "nonpayable",
      "type": "function"
    },
    {
      "inputs": [
        {
          "internalType": "uint256",
          "name": "usdtAmount",
          "type": "uint256"
        }
      ],
      "name": "depositTreasury",
      "outputs": [],
      "stateMutability": "nonpayable",
      "type": "function"
    },
    {
      "inputs": [
        {
          "internalType": "address",
          "name": "userAddress",
          "type": "address"
        },
        {
          "internalType": "enum PandAIEarn.ApprovalLevel",
          "name": "newApprovalLevel",
          "type": "uint8"
        }
      ],
      "name": "setUserApprovalLevel",
      "outputs": [],
      "stateMutability": "nonpayable",
      "type": "function"
    },
    {
      "inputs": [
        {
          "internalType": "uint256",
          "name": "usdtDepositAmount",
          "type": "uint256"
        }
      ],
      "name": "deposit",
      "outputs": [],
      "stateMutability": "nonpayable",
      "type": "function"
    },
    {
      "inputs": [
        {
          "internalType": "uint256",
          "name": "usdtDepositAmount",
          "type": "uint256"
        },
        {
          "internalType": "address",
          "name": "referralAddress",
          "type": "address"
        }
      ],
      "name": "depositWithReferral",
      "outputs": [],
      "stateMutability": "nonpayable",
      "type": "function"
    },
    {
      "inputs": [
        {
          "internalType": "uint256",
          "name": "usdtWithdrawAmount",
          "type": "uint256"
        }
      ],
      "name": "requestWithdraw",
      "outputs": [],
      "stateMutability": "nonpayable",
      "type": "function"
    },
    {
      "inputs": [],
      "name": "withdraw",
      "outputs": [],
      "stateMutability": "nonpayable",
      "type": "function"
    },
    {
      "inputs": [],
      "name": "claimUser",
      "outputs": [],
      "stateMutability": "nonpayable",
      "type": "function"
    },
    {
      "inputs": [],
      "name": "claimReferral",
      "outputs": [],
      "stateMutability": "nonpayable",
      "type": "function"
    },
    {
      "inputs": [],
      "name": "claimAll",
      "outputs": [],
      "stateMutability": "nonpayable",
      "type": "function"
    }
  ],
  "bytecode": "0x60806040523480156200001157600080fd5b5060405162005f0338038062005f03833981810160405281019062000037919062000640565b6000600160006101000a81548160ff021916908315150217905550816001806101000a81548173ffffffffffffffffffffffffffffffffffffffff021916908373ffffffffffffffffffffffffffffffffffffffff16021790555080600260006101000a81548173ffffffffffffffffffffffffffffffffffffffff021916908373ffffffffffffffffffffffffffffffffffffffff1602179055506040518060c0016040528060648152602001600015158152602001606481526020016103e881526020016201518060076200010f9190620006c0565b8152602001610fa081525060046000600160ff1681526020019081526020016000206000820151816000015560208201518160010160006101000a81548160ff02191690831515021790555060408201518160020155606082015181600301556080820151816004015560a082015181600501559050506040518060c001604052806101f48152602001600015158152602001607d8152602001610384815260200162015180601e620001c39190620006c0565b8152602001610dac81525060046000600260ff1681526020019081526020016000206000820151816000015560208201518160010160006101000a81548160ff02191690831515021790555060408201518160020155606082015181600301556080820151816004015560a082015181600501559050506040518060c001604052806103e8815260200160001515815260200160968152602001610320815260200162015180603c620002779190620006c0565b8152602001610bb881525060046000600360ff1681526020019081526020016000206000820151816000015560208201518160010160006101000a81548160ff02191690831515021790555060408201518160020155606082015181600301556080820151816004015560a082015181600501559050506040518060c00160405280611388815260200160011515815260200160b4815260200161028a815260200162015180605a6200032b9190620006c0565b81526020016109c481525060046000600460ff1681526020019081526020016000206000820151816000015560208201518160010160006101000a81548160ff02191690831515021790555060408201518160020155606082015181600301556080820151816004015560a082015181600501559050506040518060c00160405280612710815260200160011515815260200160dc81526020016101f481526020016201518060b4620003df9190620006c0565b81526020016107d081525060046000600560ff1681526020019081526020016000206000820151816000015560208201518160010160006101000a81548160ff02191690831515021790555060408201518160020155606082015181600301556080820151816004015560a082015181600501559050506200046b6000801b336200047360201b60201c565b50506200070b565b6200048582826200056460201b60201c565b6200056057600160008084815260200190815260200160002060000160008373ffffffffffffffffffffffffffffffffffffffff1673ffffffffffffffffffffffffffffffffffffffff16815260200190815260200160002060006101000a81548160ff02191690831515021790555062000505620005ce60201b60201c565b73ffffffffffffffffffffffffffffffffffffffff168173ffffffffffffffffffffffffffffffffffffffff16837f2f8788117e7eff1d82e926ec794901d17c78024a50270940304540a733656f0d60405160405180910390a45b5050565b600080600084815260200190815260200160002060000160008373ffffffffffffffffffffffffffffffffffffffff1673ffffffffffffffffffffffffffffffffffffffff16815260200190815260200160002060009054906101000a900460ff16905092915050565b600033905090565b600080fd5b600073ffffffffffffffffffffffffffffffffffffffff82169050919050565b60006200060882620005db565b9050919050565b6200061a81620005fb565b81146200062657600080fd5b50565b6000815190506200063a816200060f565b92915050565b600080604083850312156200065a5762000659620005d6565b5b60006200066a8582860162000629565b92505060206200067d8582860162000629565b9150509250929050565b6000819050919050565b7f4e487b7100000000000000000000000000000000000000000000000000000000600052601160045260246000fd5b6000620006cd8262000687565b9150620006da8362000687565b9250828202620006ea8162000687565b9150828204841483151762000704576200070362000691565b5b5092915050565b6157e8806200071b6000396000f3fe608060405234801561001057600080fd5b50600436106101735760003560e01c80636f77926b116100de578063b6b55f2511610097578063d1058e5911610071578063d1058e59146103e7578063d1e9a5fd146103f1578063d547741f1461040f578063e02f1ebd1461042b57610173565b8063b6b55f251461037f578063bd12240a1461039b578063ca636054146103b757610173565b80636f77926b146102d0578063745400c9146103015780638456cb591461031d5780638ef32fdc1461032757806391d1485414610331578063a217fddf1461036157610173565b80633ccfd60b116101305780633ccfd60b146102485780633f4ba83a1461025257806347e633801461025c5780635c975abb1461027a5780636e131aea146102985780636f5e0212146102b457610173565b806301ffc9a71461017857806311f1fc99146101a857806316770c79146101c4578063248a9ca3146101e05780632f2ff15d1461021057806336568abe1461022c575b600080fd5b610192600480360381019061018d91906148c4565b610435565b60405161019f919061490c565b60405180910390f35b6101c260048036038101906101bd919061495d565b6104af565b005b6101de60048036038101906101d991906149e8565b61063c565b005b6101fa60048036038101906101f59190614a5e565b610e50565b6040516102079190614a9a565b60405180910390f35b61022a60048036038101906102259190614ab5565b610e6f565b005b61024660048036038101906102419190614ab5565b610e90565b005b610250610f13565b005b61025a611260565b005b610264611278565b6040516102719190614a9a565b60405180910390f35b61028261129c565b60405161028f919061490c565b60405180910390f35b6102b260048036038101906102ad9190614b1a565b6112b3565b005b6102ce60048036038101906102c99190614b5a565b611409565b005b6102ea60048036038101906102e59190614b5a565b611642565b6040516102f8929190614d32565b60405180910390f35b61031b6004803603810190610316919061495d565b61187b565b005b610325612227565b005b61032f61223f565b005b61034b60048036038101906103469190614ab5565b61274f565b604051610358919061490c565b60405180910390f35b6103696127b9565b6040516103769190614a9a565b60405180910390f35b6103996004803603810190610394919061495d565b6127c0565b005b6103b560048036038101906103b0919061495d565b6127e1565b005b6103d160048036038101906103cc9190614d89565b612a18565b6040516103de9190614e40565b60405180910390f35b6103ef612ab9565b005b6103f96131c4565b6040516104069190614e6a565b60405180910390f35b61042960048036038101906104249190614ab5565b6131ee565b005b61043361320f565b005b60007f7965db0b000000000000000000000000000000000000000000000000000000007bffffffffffffffffffffffffffffffffffffffffffffffffffffffff1916827bffffffffffffffffffffffffffffffffffffffffffffffffffffffff191614806104a857506104a782613794565b5b9050919050565b6000801b6104bc816137fe565b8160018054906101000a900473ffffffffffffffffffffffffffffffffffffffff1673ffffffffffffffffffffffffffffffffffffffff166370a08231306040518263ffffffff1660e01b81526004016105169190614e6a565b602060405180830381865afa158015610533573d6000803e3d6000fd5b505050506040513d601f19601f820116820180604052508101906105579190614e9a565b101561056257600080fd5b60018054906101000a900473ffffffffffffffffffffffffffffffffffffffff1673ffffffffffffffffffffffffffffffffffffffff1663a9059cbb33846040518363ffffffff1660e01b81526004016105bd929190614ed6565b6020604051808303816000875af11580156105dc573d6000803e3d6000fd5b505050506040513d601f19601f820116820180604052508101906106009190614f2b565b507ff1b96db22d7f3eb7ef19d9ddbc4d63be139f5d014216d4e42107e10cfd4ff16c826040516106309190614f58565b60405180910390a15050565b610644613812565b60018054906101000a900473ffffffffffffffffffffffffffffffffffffffff1673ffffffffffffffffffffffffffffffffffffffff1663313ce5676040518163ffffffff1660e01b8152600401602060405180830381865afa1580156106af573d6000803e3d6000fd5b505050506040513d601f19601f820116820180604052508101906106d39190614f88565b600a6106df9190615117565b60046000600160ff168152602001908152602001600020600001546107049190615162565b82101561071057600080fd5b600073ffffffffffffffffffffffffffffffffffffffff168173ffffffffffffffffffffffffffffffffffffffff160361074957600080fd5b3373ffffffffffffffffffffffffffffffffffffffff168173ffffffffffffffffffffffffffffffffffffffff160361078157600080fd5b8160018054906101000a900473ffffffffffffffffffffffffffffffffffffffff1673ffffffffffffffffffffffffffffffffffffffff166370a08231336040518263ffffffff1660e01b81526004016107db9190614e6a565b602060405180830381865afa1580156107f8573d6000803e3d6000fd5b505050506040513d601f19601f8201168201806040525081019061081c9190614e9a565b101561082757600080fd5b8160018054906101000a900473ffffffffffffffffffffffffffffffffffffffff1673ffffffffffffffffffffffffffffffffffffffff1663dd62ed3e33306040518363ffffffff1660e01b81526004016108839291906151a4565b602060405180830381865afa1580156108a0573d6000803e3d6000fd5b505050506040513d601f19601f820116820180604052508101906108c49190614e9a565b10156108cf57600080fd5b600073ffffffffffffffffffffffffffffffffffffffff16600560003373ffffffffffffffffffffffffffffffffffffffff1673ffffffffffffffffffffffffffffffffffffffff16815260200190815260200160002060000160009054906101000a900473ffffffffffffffffffffffffffffffffffffffff1673ffffffffffffffffffffffffffffffffffffffff16036109e75780600560003373ffffffffffffffffffffffffffffffffffffffff1673ffffffffffffffffffffffffffffffffffffffff16815260200190815260200160002060000160006101000a81548173ffffffffffffffffffffffffffffffffffffffff021916908373ffffffffffffffffffffffffffffffffffffffff1602179055505b81600560003373ffffffffffffffffffffffffffffffffffffffff1673ffffffffffffffffffffffffffffffffffffffff1681526020019081526020016000206001016000828254610a3991906151cd565b9250508190555042600560003373ffffffffffffffffffffffffffffffffffffffff1673ffffffffffffffffffffffffffffffffffffffff1681526020019081526020016000206002018190555042600560003373ffffffffffffffffffffffffffffffffffffffff1673ffffffffffffffffffffffffffffffffffffffff168152602001908152602001600020600701819055506000610b3b600560003373ffffffffffffffffffffffffffffffffffffffff1673ffffffffffffffffffffffffffffffffffffffff16815260200190815260200160002060000160009054906101000a900473ffffffffffffffffffffffffffffffffffffffff1661385c565b90508260056000600560003373ffffffffffffffffffffffffffffffffffffffff1673ffffffffffffffffffffffffffffffffffffffff16815260200190815260200160002060000160009054906101000a900473ffffffffffffffffffffffffffffffffffffffff1673ffffffffffffffffffffffffffffffffffffffff1673ffffffffffffffffffffffffffffffffffffffff1681526020019081526020016000206008016000828254610bf191906151cd565b925050819055508060056000600560003373ffffffffffffffffffffffffffffffffffffffff1673ffffffffffffffffffffffffffffffffffffffff16815260200190815260200160002060000160009054906101000a900473ffffffffffffffffffffffffffffffffffffffff1673ffffffffffffffffffffffffffffffffffffffff1673ffffffffffffffffffffffffffffffffffffffff1681526020019081526020016000206009016000828254610cac91906151cd565b925050819055504260056000600560003373ffffffffffffffffffffffffffffffffffffffff1673ffffffffffffffffffffffffffffffffffffffff16815260200190815260200160002060000160009054906101000a900473ffffffffffffffffffffffffffffffffffffffff1673ffffffffffffffffffffffffffffffffffffffff1673ffffffffffffffffffffffffffffffffffffffff168152602001908152602001600020600a018190555060018054906101000a900473ffffffffffffffffffffffffffffffffffffffff1673ffffffffffffffffffffffffffffffffffffffff166323b872dd3330866040518463ffffffff1660e01b8152600401610db993929190615201565b6020604051808303816000875af1158015610dd8573d6000803e3d6000fd5b505050506040513d601f19601f82011682018060405250810190610dfc9190614f2b565b503373ffffffffffffffffffffffffffffffffffffffff167f951fdc61d6a98f96098a17ea6ac287a6fd38aea6bef73083c93b274cb830107d84604051610e439190614f58565b60405180910390a2505050565b6000806000838152602001908152602001600020600101549050919050565b610e7882610e50565b610e81816137fe565b610e8b8383613938565b505050565b610e98613a18565b73ffffffffffffffffffffffffffffffffffffffff168173ffffffffffffffffffffffffffffffffffffffff1614610f05576040517f08c379a0000000000000000000000000000000000000000000000000000000008152600401610efc906152bb565b60405180910390fd5b610f0f8282613a20565b5050565b6000600560003373ffffffffffffffffffffffffffffffffffffffff1673ffffffffffffffffffffffffffffffffffffffff1681526020019081526020016000206003015411610f6257600080fd5b60018054906101000a900473ffffffffffffffffffffffffffffffffffffffff1673ffffffffffffffffffffffffffffffffffffffff166370a08231306040518263ffffffff1660e01b8152600401610fbb9190614e6a565b602060405180830381865afa158015610fd8573d6000803e3d6000fd5b505050506040513d601f19601f82011682018060405250810190610ffc9190614e9a565b600560003373ffffffffffffffffffffffffffffffffffffffff1673ffffffffffffffffffffffffffffffffffffffff16815260200190815260200160002060030154111561104a57600080fd5b42600560003373ffffffffffffffffffffffffffffffffffffffff1673ffffffffffffffffffffffffffffffffffffffff16815260200190815260200160002060040154111561109957600080fd5b6000600560003373ffffffffffffffffffffffffffffffffffffffff1673ffffffffffffffffffffffffffffffffffffffff1681526020019081526020016000206003015490506000600560003373ffffffffffffffffffffffffffffffffffffffff1673ffffffffffffffffffffffffffffffffffffffff168152602001908152602001600020600301819055506000600560003373ffffffffffffffffffffffffffffffffffffffff1673ffffffffffffffffffffffffffffffffffffffff1681526020019081526020016000206004018190555060018054906101000a900473ffffffffffffffffffffffffffffffffffffffff1673ffffffffffffffffffffffffffffffffffffffff1663a9059cbb33836040518363ffffffff1660e01b81526004016111cb929190614ed6565b6020604051808303816000875af11580156111ea573d6000803e3d6000fd5b505050506040513d601f19601f8201168201806040525081019061120e9190614f2b565b503373ffffffffffffffffffffffffffffffffffffffff167f60940a45682dd211584724a922396732f11d82de250ddce40f7cdc3dc5805865826040516112559190614f58565b60405180910390a250565b6000801b61126d816137fe565b611275613b01565b50565b7f73e573f9566d61418a34d5de3ff49360f9c51fec37f7486551670290f6285dab81565b6000600160009054906101000a900460ff16905090565b7f73e573f9566d61418a34d5de3ff49360f9c51fec37f7486551670290f6285dab6112dd816137fe565b6000600560008573ffffffffffffffffffffffffffffffffffffffff1673ffffffffffffffffffffffffffffffffffffffff16815260200190815260200160002060000160149054906101000a900460ff1660ff166002811115611344576113436152db565b5b9050826002811115611359576113586152db565b5b600560008673ffffffffffffffffffffffffffffffffffffffff1673ffffffffffffffffffffffffffffffffffffffff16815260200190815260200160002060000160146101000a81548160ff021916908360ff1602179055508373ffffffffffffffffffffffffffffffffffffffff167f97a9663cc868dbb1c96d7a109c230519a0b6d87f567743f5963889ba988942d782856040516113fb929190615352565b60405180910390a250505050565b6000801b611416816137fe565b600073ffffffffffffffffffffffffffffffffffffffff168273ffffffffffffffffffffffffffffffffffffffff160361144f57600080fd5b600060018054906101000a900473ffffffffffffffffffffffffffffffffffffffff1673ffffffffffffffffffffffffffffffffffffffff166370a08231846040518263ffffffff1660e01b81526004016114aa9190614e6a565b602060405180830381865afa1580156114c7573d6000803e3d6000fd5b505050506040513d601f19601f820116820180604052508101906114eb9190614e9a565b116114f557600080fd5b6000600260009054906101000a900473ffffffffffffffffffffffffffffffffffffffff1673ffffffffffffffffffffffffffffffffffffffff166370a08231846040518263ffffffff1660e01b81526004016115529190614e6a565b602060405180830381865afa15801561156f573d6000803e3d6000fd5b505050506040513d601f19601f820116820180604052508101906115939190614e9a565b1161159d57600080fd5b600082905082600360006101000a81548173ffffffffffffffffffffffffffffffffffffffff021916908373ffffffffffffffffffffffffffffffffffffffff1602179055508273ffffffffffffffffffffffffffffffffffffffff168173ffffffffffffffffffffffffffffffffffffffff167fb540d9b4914fdc07330a18551512f4d172c9f361d5aa3225aee17276e3411cec60405160405180910390a3505050565b61164a61477c565b6116526147f6565b600073ffffffffffffffffffffffffffffffffffffffff168373ffffffffffffffffffffffffffffffffffffffff160361168b57600080fd5b600061169684613b64565b905060006116a48583613caf565b905060006116b18661385c565b600560008873ffffffffffffffffffffffffffffffffffffffff1673ffffffffffffffffffffffffffffffffffffffff168152602001908152602001600020600901546116fe91906151cd565b9050600560008773ffffffffffffffffffffffffffffffffffffffff1673ffffffffffffffffffffffffffffffffffffffff1681526020019081526020016000206040518060c001604052808560ff1681526020018481526020016117638587613eb5565b815260200183815260200161177784613f10565b81526020016117868987613f3c565b81525081604051806101800160405290816000820160009054906101000a900473ffffffffffffffffffffffffffffffffffffffff1673ffffffffffffffffffffffffffffffffffffffff1673ffffffffffffffffffffffffffffffffffffffff1681526020016000820160149054906101000a900460ff1660ff1660ff168152602001600182015481526020016002820154815260200160038201548152602001600482015481526020016005820154815260200160068201548152602001600782015481526020016008820154815260200160098201548152602001600a82015481525050915094509450505050915091565b600560003373ffffffffffffffffffffffffffffffffffffffff1673ffffffffffffffffffffffffffffffffffffffff168152602001908152602001600020600101548111156118ca57600080fd5b600560003373ffffffffffffffffffffffffffffffffffffffff1673ffffffffffffffffffffffffffffffffffffffff16815260200190815260200160002060010154811015611a2e5760018054906101000a900473ffffffffffffffffffffffffffffffffffffffff1673ffffffffffffffffffffffffffffffffffffffff1663313ce5676040518163ffffffff1660e01b8152600401602060405180830381865afa15801561197f573d6000803e3d6000fd5b505050506040513d601f19601f820116820180604052508101906119a39190614f88565b600a6119af9190615117565b60046000600160ff168152602001908152602001600020600001546119d49190615162565b81600560003373ffffffffffffffffffffffffffffffffffffffff1673ffffffffffffffffffffffffffffffffffffffff16815260200190815260200160002060010154611a22919061537b565b1015611a2d57600080fd5b5b6000611a3933613b64565b905060008160ff1611611a4b57600080fd5b600042611a583384613f3c565b1115611bf057611a9b612710600460008560ff1660ff1681526020019081526020016000206005015485611a8c9190615162565b611a9691906153de565b613fc4565b905080600260009054906101000a900473ffffffffffffffffffffffffffffffffffffffff1673ffffffffffffffffffffffffffffffffffffffff166370a08231336040518263ffffffff1660e01b8152600401611af99190614e6a565b602060405180830381865afa158015611b16573d6000803e3d6000fd5b505050506040513d601f19601f82011682018060405250810190611b3a9190614e9a565b1015611b4557600080fd5b80600260009054906101000a900473ffffffffffffffffffffffffffffffffffffffff1673ffffffffffffffffffffffffffffffffffffffff1663dd62ed3e33306040518363ffffffff1660e01b8152600401611ba39291906151a4565b602060405180830381865afa158015611bc0573d6000803e3d6000fd5b505050506040513d601f19601f82011682018060405250810190611be49190614e9a565b1015611bef57600080fd5b5b82600560003373ffffffffffffffffffffffffffffffffffffffff1673ffffffffffffffffffffffffffffffffffffffff1681526020019081526020016000206001016000828254611c42919061537b565b9250508190555082600560003373ffffffffffffffffffffffffffffffffffffffff1673ffffffffffffffffffffffffffffffffffffffff1681526020019081526020016000206003016000828254611c9b91906151cd565b9250508190555062015180600e611cb29190615162565b42611cbd91906151cd565b600560003373ffffffffffffffffffffffffffffffffffffffff1673ffffffffffffffffffffffffffffffffffffffff168152602001908152602001600020600401819055506000611d70600560003373ffffffffffffffffffffffffffffffffffffffff1673ffffffffffffffffffffffffffffffffffffffff16815260200190815260200160002060000160009054906101000a900473ffffffffffffffffffffffffffffffffffffffff1661385c565b90508360056000600560003373ffffffffffffffffffffffffffffffffffffffff1673ffffffffffffffffffffffffffffffffffffffff16815260200190815260200160002060000160009054906101000a900473ffffffffffffffffffffffffffffffffffffffff1673ffffffffffffffffffffffffffffffffffffffff1673ffffffffffffffffffffffffffffffffffffffff1681526020019081526020016000206008015410611edd578360056000600560003373ffffffffffffffffffffffffffffffffffffffff1673ffffffffffffffffffffffffffffffffffffffff16815260200190815260200160002060000160009054906101000a900473ffffffffffffffffffffffffffffffffffffffff1673ffffffffffffffffffffffffffffffffffffffff1673ffffffffffffffffffffffffffffffffffffffff1681526020019081526020016000206008016000828254611ed1919061537b565b92505081905550611f88565b600060056000600560003373ffffffffffffffffffffffffffffffffffffffff1673ffffffffffffffffffffffffffffffffffffffff16815260200190815260200160002060000160009054906101000a900473ffffffffffffffffffffffffffffffffffffffff1673ffffffffffffffffffffffffffffffffffffffff1673ffffffffffffffffffffffffffffffffffffffff168152602001908152602001600020600801819055505b8060056000600560003373ffffffffffffffffffffffffffffffffffffffff1673ffffffffffffffffffffffffffffffffffffffff16815260200190815260200160002060000160009054906101000a900473ffffffffffffffffffffffffffffffffffffffff1673ffffffffffffffffffffffffffffffffffffffff1673ffffffffffffffffffffffffffffffffffffffff168152602001908152602001600020600901600082825461203c91906151cd565b925050819055504260056000600560003373ffffffffffffffffffffffffffffffffffffffff1673ffffffffffffffffffffffffffffffffffffffff16815260200190815260200160002060000160009054906101000a900473ffffffffffffffffffffffffffffffffffffffff1673ffffffffffffffffffffffffffffffffffffffff1673ffffffffffffffffffffffffffffffffffffffff168152602001908152602001600020600a018190555060008211156121d357600260009054906101000a900473ffffffffffffffffffffffffffffffffffffffff1673ffffffffffffffffffffffffffffffffffffffff166379cc679033846040518363ffffffff1660e01b8152600401612152929190614ed6565b600060405180830381600087803b15801561216c57600080fd5b505af1158015612180573d6000803e3d6000fd5b505050503373ffffffffffffffffffffffffffffffffffffffff167f67e0a76c8ca65f789ba0c0b9ac467471fd0905ab2e83ee2ab59b6064f29813fa836040516121ca9190614f58565b60405180910390a25b3373ffffffffffffffffffffffffffffffffffffffff167fa933b33bc35fbbc42120b3234fd8abdb6ab035bbc8c9199479693f0abede25d1856040516122199190614f58565b60405180910390a250505050565b6000801b612234816137fe565b61223c614191565b50565b600061224a33613b64565b905060008160ff161161225c57600080fd5b60006122683383613caf565b90506000811161227757600080fd5b61228133826141f3565b61228a57600080fd5b60006122968284613eb5565b905080600260009054906101000a900473ffffffffffffffffffffffffffffffffffffffff1673ffffffffffffffffffffffffffffffffffffffff166370a08231336040518263ffffffff1660e01b81526004016122f49190614e6a565b602060405180830381865afa158015612311573d6000803e3d6000fd5b505050506040513d601f19601f820116820180604052508101906123359190614e9a565b101561234057600080fd5b80600260009054906101000a900473ffffffffffffffffffffffffffffffffffffffff1673ffffffffffffffffffffffffffffffffffffffff1663dd62ed3e33306040518363ffffffff1660e01b815260040161239e9291906151a4565b602060405180830381865afa1580156123bb573d6000803e3d6000fd5b505050506040513d601f19601f820116820180604052508101906123df9190614e9a565b10156123ea57600080fd5b612435600560003373ffffffffffffffffffffffffffffffffffffffff1673ffffffffffffffffffffffffffffffffffffffff1681526020019081526020016000206007015461441d565b156124985781600560003373ffffffffffffffffffffffffffffffffffffffff1673ffffffffffffffffffffffffffffffffffffffff168152602001908152602001600020600501600082825461248c91906151cd565b925050819055506124e0565b81600560003373ffffffffffffffffffffffffffffffffffffffff1673ffffffffffffffffffffffffffffffffffffffff168152602001908152602001600020600501819055505b81600560003373ffffffffffffffffffffffffffffffffffffffff1673ffffffffffffffffffffffffffffffffffffffff168152602001908152602001600020600601600082825461253291906151cd565b9250508190555042600560003373ffffffffffffffffffffffffffffffffffffffff1673ffffffffffffffffffffffffffffffffffffffff1681526020019081526020016000206007018190555060018054906101000a900473ffffffffffffffffffffffffffffffffffffffff1673ffffffffffffffffffffffffffffffffffffffff1663a9059cbb33846040518363ffffffff1660e01b81526004016125db929190614ed6565b6020604051808303816000875af11580156125fa573d6000803e3d6000fd5b505050506040513d601f19601f8201168201806040525081019061261e9190614f2b565b503373ffffffffffffffffffffffffffffffffffffffff167ffe9e35ab94545fd82755f641bb9fb45e0d9dfafca472b2bce233d7dff2962f3c836040516126659190614f58565b60405180910390a2600260009054906101000a900473ffffffffffffffffffffffffffffffffffffffff1673ffffffffffffffffffffffffffffffffffffffff166379cc679033836040518363ffffffff1660e01b81526004016126ca929190614ed6565b600060405180830381600087803b1580156126e457600080fd5b505af11580156126f8573d6000803e3d6000fd5b505050503373ffffffffffffffffffffffffffffffffffffffff167f5154ba3ad6f942a7219ac1d545fe2eb12a47b1804c8240ab9da1fa1a126f742b826040516127429190614f58565b60405180910390a2505050565b600080600084815260200190815260200160002060000160008373ffffffffffffffffffffffffffffffffffffffff1673ffffffffffffffffffffffffffffffffffffffff16815260200190815260200160002060009054906101000a900460ff16905092915050565b6000801b81565b6127de8173ee9aa828ff4cbf294063168e78beb7bcf441fea161063c565b50565b6000801b6127ee816137fe565b8160018054906101000a900473ffffffffffffffffffffffffffffffffffffffff1673ffffffffffffffffffffffffffffffffffffffff166370a08231336040518263ffffffff1660e01b81526004016128489190614e6a565b602060405180830381865afa158015612865573d6000803e3d6000fd5b505050506040513d601f19601f820116820180604052508101906128899190614e9a565b101561289457600080fd5b8160018054906101000a900473ffffffffffffffffffffffffffffffffffffffff1673ffffffffffffffffffffffffffffffffffffffff1663dd62ed3e33306040518363ffffffff1660e01b81526004016128f09291906151a4565b602060405180830381865afa15801561290d573d6000803e3d6000fd5b505050506040513d601f19601f820116820180604052508101906129319190614e9a565b101561293c57600080fd5b60018054906101000a900473ffffffffffffffffffffffffffffffffffffffff1673ffffffffffffffffffffffffffffffffffffffff166323b872dd3330856040518463ffffffff1660e01b815260040161299993929190615201565b6020604051808303816000875af11580156129b8573d6000803e3d6000fd5b505050506040513d601f19601f820116820180604052508101906129dc9190614f2b565b507f90388e3e271a8f007dd351d51ccac1674db355c1ce23fe0005d0721fc8e9b2c682604051612a0c9190614f58565b60405180910390a15050565b612a2061482f565b60018260ff1610158015612a38575060058260ff1611155b612a4157600080fd5b600460008360ff1660ff1681526020019081526020016000206040518060c0016040529081600082015481526020016001820160009054906101000a900460ff161515151581526020016002820154815260200160038201548152602001600482015481526020016005820154815250509050919050565b6000612ac433613b64565b90506000612ad23383613caf565b90506000612adf3361385c565b600560003373ffffffffffffffffffffffffffffffffffffffff1673ffffffffffffffffffffffffffffffffffffffff16815260200190815260200160002060090154612b2c91906151cd565b905060008183612b3c91906151cd565b11612b4657600080fd5b612b5b338284612b5691906151cd565b6141f3565b612b6457600080fd5b6000612b708385613eb5565b90506000612b7d83613f10565b90508082612b8b91906151cd565b600260009054906101000a900473ffffffffffffffffffffffffffffffffffffffff1673ffffffffffffffffffffffffffffffffffffffff166370a08231336040518263ffffffff1660e01b8152600401612be69190614e6a565b602060405180830381865afa158015612c03573d6000803e3d6000fd5b505050506040513d601f19601f82011682018060405250810190612c279190614e9a565b1015612c3257600080fd5b8082612c3e91906151cd565b600260009054906101000a900473ffffffffffffffffffffffffffffffffffffffff1673ffffffffffffffffffffffffffffffffffffffff1663dd62ed3e33306040518363ffffffff1660e01b8152600401612c9b9291906151a4565b602060405180830381865afa158015612cb8573d6000803e3d6000fd5b505050506040513d601f19601f82011682018060405250810190612cdc9190614e9a565b1015612ce757600080fd5b612d32600560003373ffffffffffffffffffffffffffffffffffffffff1673ffffffffffffffffffffffffffffffffffffffff1681526020019081526020016000206007015461441d565b15612da0578284612d4391906151cd565b600560003373ffffffffffffffffffffffffffffffffffffffff1673ffffffffffffffffffffffffffffffffffffffff1681526020019081526020016000206005016000828254612d9491906151cd565b92505081905550612df3565b8284612dac91906151cd565b600560003373ffffffffffffffffffffffffffffffffffffffff1673ffffffffffffffffffffffffffffffffffffffff168152602001908152602001600020600501819055505b8284612dff91906151cd565b600560003373ffffffffffffffffffffffffffffffffffffffff1673ffffffffffffffffffffffffffffffffffffffff1681526020019081526020016000206006016000828254612e5091906151cd565b9250508190555042600560003373ffffffffffffffffffffffffffffffffffffffff1673ffffffffffffffffffffffffffffffffffffffff168152602001908152602001600020600701819055506000600560003373ffffffffffffffffffffffffffffffffffffffff1673ffffffffffffffffffffffffffffffffffffffff1681526020019081526020016000206009018190555042600560003373ffffffffffffffffffffffffffffffffffffffff1673ffffffffffffffffffffffffffffffffffffffff168152602001908152602001600020600a018190555060018054906101000a900473ffffffffffffffffffffffffffffffffffffffff1673ffffffffffffffffffffffffffffffffffffffff1663a9059cbb338587612f7691906151cd565b6040518363ffffffff1660e01b8152600401612f93929190614ed6565b6020604051808303816000875af1158015612fb2573d6000803e3d6000fd5b505050506040513d601f19601f82011682018060405250810190612fd69190614f2b565b50600260009054906101000a900473ffffffffffffffffffffffffffffffffffffffff1673ffffffffffffffffffffffffffffffffffffffff166379cc679033838561302291906151cd565b6040518363ffffffff1660e01b815260040161303f929190614ed6565b600060405180830381600087803b15801561305957600080fd5b505af115801561306d573d6000803e3d6000fd5b505050506000841115613117573373ffffffffffffffffffffffffffffffffffffffff167ffe9e35ab94545fd82755f641bb9fb45e0d9dfafca472b2bce233d7dff2962f3c856040516130c09190614f58565b60405180910390a23373ffffffffffffffffffffffffffffffffffffffff167f5154ba3ad6f942a7219ac1d545fe2eb12a47b1804c8240ab9da1fa1a126f742b8360405161310e9190614f58565b60405180910390a25b60008311156131bd573373ffffffffffffffffffffffffffffffffffffffff167f5be4d22009fea85381595ed91090bc5c0bc92a93fe07ed7472c5888eb1993f83846040516131669190614f58565b60405180910390a23373ffffffffffffffffffffffffffffffffffffffff167f0b8bf41669e0983dcaf8ea2cbb6f14db91d87b23dc199f9c873e41e2c6ae7794826040516131b49190614f58565b60405180910390a25b5050505050565b6000600360009054906101000a900473ffffffffffffffffffffffffffffffffffffffff16905090565b6131f782610e50565b613200816137fe565b61320a8383613a20565b505050565b600061321a3361385c565b600560003373ffffffffffffffffffffffffffffffffffffffff1673ffffffffffffffffffffffffffffffffffffffff1681526020019081526020016000206009015461326791906151cd565b90506000811161327657600080fd5b61328033826141f3565b61328957600080fd5b600061329482613f10565b905080600260009054906101000a900473ffffffffffffffffffffffffffffffffffffffff1673ffffffffffffffffffffffffffffffffffffffff166370a08231336040518263ffffffff1660e01b81526004016132f29190614e6a565b602060405180830381865afa15801561330f573d6000803e3d6000fd5b505050506040513d601f19601f820116820180604052508101906133339190614e9a565b101561333e57600080fd5b80600260009054906101000a900473ffffffffffffffffffffffffffffffffffffffff1673ffffffffffffffffffffffffffffffffffffffff1663dd62ed3e33306040518363ffffffff1660e01b815260040161339c9291906151a4565b602060405180830381865afa1580156133b9573d6000803e3d6000fd5b505050506040513d601f19601f820116820180604052508101906133dd9190614e9a565b10156133e857600080fd5b613433600560003373ffffffffffffffffffffffffffffffffffffffff1673ffffffffffffffffffffffffffffffffffffffff1681526020019081526020016000206007015461441d565b156134965781600560003373ffffffffffffffffffffffffffffffffffffffff1673ffffffffffffffffffffffffffffffffffffffff168152602001908152602001600020600501600082825461348a91906151cd565b925050819055506134de565b81600560003373ffffffffffffffffffffffffffffffffffffffff1673ffffffffffffffffffffffffffffffffffffffff168152602001908152602001600020600501819055505b81600560003373ffffffffffffffffffffffffffffffffffffffff1673ffffffffffffffffffffffffffffffffffffffff168152602001908152602001600020600601600082825461353091906151cd565b925050819055506000600560003373ffffffffffffffffffffffffffffffffffffffff1673ffffffffffffffffffffffffffffffffffffffff1681526020019081526020016000206009018190555042600560003373ffffffffffffffffffffffffffffffffffffffff1673ffffffffffffffffffffffffffffffffffffffff168152602001908152602001600020600a018190555060018054906101000a900473ffffffffffffffffffffffffffffffffffffffff1673ffffffffffffffffffffffffffffffffffffffff1663a9059cbb33846040518363ffffffff1660e01b8152600401613621929190614ed6565b6020604051808303816000875af1158015613640573d6000803e3d6000fd5b505050506040513d601f19601f820116820180604052508101906136649190614f2b565b503373ffffffffffffffffffffffffffffffffffffffff167f5be4d22009fea85381595ed91090bc5c0bc92a93fe07ed7472c5888eb1993f83836040516136ab9190614f58565b60405180910390a2600260009054906101000a900473ffffffffffffffffffffffffffffffffffffffff1673ffffffffffffffffffffffffffffffffffffffff166379cc679033836040518363ffffffff1660e01b8152600401613710929190614ed6565b600060405180830381600087803b15801561372a57600080fd5b505af115801561373e573d6000803e3d6000fd5b505050503373ffffffffffffffffffffffffffffffffffffffff167f0b8bf41669e0983dcaf8ea2cbb6f14db91d87b23dc199f9c873e41e2c6ae7794826040516137889190614f58565b60405180910390a25050565b60007f01ffc9a7000000000000000000000000000000000000000000000000000000007bffffffffffffffffffffffffffffffffffffffffffffffffffffffff1916827bffffffffffffffffffffffffffffffffffffffffffffffffffffffff1916149050919050565b61380f8161380a613a18565b614445565b50565b61381a61129c565b1561385a576040517f08c379a00000000000000000000000000000000000000000000000000000000081526004016138519061545b565b60405180910390fd5b565b600080600560008473ffffffffffffffffffffffffffffffffffffffff1673ffffffffffffffffffffffffffffffffffffffff168152602001908152602001600020600a0154426138ad919061537b565b905062015180601e6138bf9190615162565b612710826014600560008873ffffffffffffffffffffffffffffffffffffffff1673ffffffffffffffffffffffffffffffffffffffff168152602001908152602001600020600801546139129190615162565b61391c9190615162565b61392691906153de565b61393091906153de565b915050919050565b613942828261274f565b613a1457600160008084815260200190815260200160002060000160008373ffffffffffffffffffffffffffffffffffffffff1673ffffffffffffffffffffffffffffffffffffffff16815260200190815260200160002060006101000a81548160ff0219169083151502179055506139b9613a18565b73ffffffffffffffffffffffffffffffffffffffff168173ffffffffffffffffffffffffffffffffffffffff16837f2f8788117e7eff1d82e926ec794901d17c78024a50270940304540a733656f0d60405160405180910390a45b5050565b600033905090565b613a2a828261274f565b15613afd57600080600084815260200190815260200160002060000160008373ffffffffffffffffffffffffffffffffffffffff1673ffffffffffffffffffffffffffffffffffffffff16815260200190815260200160002060006101000a81548160ff021916908315150217905550613aa2613a18565b73ffffffffffffffffffffffffffffffffffffffff168173ffffffffffffffffffffffffffffffffffffffff16837ff6391f5c32d9c69d2a47ea670b442974b53935d1edc7fd64eb21e047a839171b60405160405180910390a45b5050565b613b096144ca565b6000600160006101000a81548160ff0219169083151502179055507f5db9ee0a495bf2e6ff9c91a7834c1ba4fdd244a5e8aa4e537bd38aeae4b073aa613b4d613a18565b604051613b5a9190614e6a565b60405180910390a1565b60008060018054906101000a900473ffffffffffffffffffffffffffffffffffffffff1673ffffffffffffffffffffffffffffffffffffffff1663313ce5676040518163ffffffff1660e01b8152600401602060405180830381865afa158015613bd2573d6000803e3d6000fd5b505050506040513d601f19601f82011682018060405250810190613bf69190614f88565b600a613c029190615117565b600560008573ffffffffffffffffffffffffffffffffffffffff1673ffffffffffffffffffffffffffffffffffffffff16815260200190815260200160002060010154613c4f91906153de565b90506000600590505b60018160ff1610613ca357600460008260ff1660ff168152602001908152602001600020600001548210613c90578092505050613caa565b8080613c9b9061547b565b915050613c58565b5060009150505b919050565b6000808260ff1603613cc45760009050613eaf565b6000600460008460ff1660ff1681526020019081526020016000206002015490506000600560008673ffffffffffffffffffffffffffffffffffffffff1673ffffffffffffffffffffffffffffffffffffffff1681526020019081526020016000206007015442613d35919061537b565b9050600062015180601e613d499190615162565b6127108385600560008b73ffffffffffffffffffffffffffffffffffffffff1673ffffffffffffffffffffffffffffffffffffffff16815260200190815260200160002060010154613d9b9190615162565b613da59190615162565b613daf91906153de565b613db991906153de565b9050600460008660ff1660ff16815260200190815260200160002060010160009054906101000a900460ff16613df457809350505050613eaf565b6000600262015180601e613e089190615162565b612710858786613e189190615162565b613e229190615162565b613e2c91906153de565b613e3691906153de565b613e4091906153de565b90506000600362015180601e613e569190615162565b612710868886613e669190615162565b613e709190615162565b613e7a91906153de565b613e8491906153de565b613e8e91906153de565b9050808284613e9d91906151cd565b613ea791906151cd565b955050505050505b92915050565b6000808260ff1603613eca5760009050613f0a565b613f07612710600460008560ff1660ff1681526020019081526020016000206003015485613ef89190615162565b613f0291906153de565b613fc4565b90505b92915050565b6000613f356127106103e884613f269190615162565b613f3091906153de565b613fc4565b9050919050565b6000808260ff1603613f515760009050613fbe565b600460008360ff1660ff16815260200190815260200160002060040154600560008573ffffffffffffffffffffffffffffffffffffffff1673ffffffffffffffffffffffffffffffffffffffff16815260200190815260200160002060020154613fbb91906151cd565b90505b92915050565b6000808203613fd6576000905061418c565b600060018054906101000a900473ffffffffffffffffffffffffffffffffffffffff1673ffffffffffffffffffffffffffffffffffffffff166370a08231600360009054906101000a900473ffffffffffffffffffffffffffffffffffffffff166040518263ffffffff1660e01b81526004016140539190614e6a565b602060405180830381865afa158015614070573d6000803e3d6000fd5b505050506040513d601f19601f820116820180604052508101906140949190614e9a565b90506000600260009054906101000a900473ffffffffffffffffffffffffffffffffffffffff1673ffffffffffffffffffffffffffffffffffffffff166370a08231600360009054906101000a900473ffffffffffffffffffffffffffffffffffffffff166040518263ffffffff1660e01b81526004016141159190614e6a565b602060405180830381865afa158015614132573d6000803e3d6000fd5b505050506040513d601f19601f820116820180604052508101906141569190614e9a565b9050600081836141669190615162565b1161417057600080fd5b81818561417d9190615162565b61418791906153de565b925050505b919050565b614199613812565b60018060006101000a81548160ff0219169083151502179055507f62e78cea01bee320cd4e420270b5ea74000d11b0c9f74754ebdbfc544b05a2586141dc613a18565b6040516141e99190614e6a565b60405180910390a1565b600080600560008573ffffffffffffffffffffffffffffffffffffffff1673ffffffffffffffffffffffffffffffffffffffff16815260200190815260200160002060000160149054906101000a900460ff1660ff16600281111561425b5761425a6152db565b5b905060016002811115614271576142706152db565b5b816002811115614284576142836152db565b5b03614293576001915050614417565b6002808111156142a6576142a56152db565b5b8160028111156142b9576142b86152db565b5b036142c8576000915050614417565b614313600560008673ffffffffffffffffffffffffffffffffffffffff1673ffffffffffffffffffffffffffffffffffffffff1681526020019081526020016000206007015461441d565b1561436957600560008573ffffffffffffffffffffffffffffffffffffffff1673ffffffffffffffffffffffffffffffffffffffff168152602001908152602001600020600501548361436691906151cd565b92505b6103e860018054906101000a900473ffffffffffffffffffffffffffffffffffffffff1673ffffffffffffffffffffffffffffffffffffffff1663313ce5676040518163ffffffff1660e01b8152600401602060405180830381865afa1580156143d7573d6000803e3d6000fd5b505050506040513d601f19601f820116820180604052508101906143fb9190614f88565b600a6144079190615117565b8461441291906153de565b109150505b92915050565b6000620151808261442e91906153de565b620151804261443d91906153de565b149050919050565b61444f828261274f565b6144c65761445c81614513565b61446a8360001c6020614540565b60405160200161447b9291906155ad565b6040516020818303038152906040526040517f08c379a00000000000000000000000000000000000000000000000000000000081526004016144bd9190615631565b60405180910390fd5b5050565b6144d261129c565b614511576040517f08c379a00000000000000000000000000000000000000000000000000000000081526004016145089061569f565b60405180910390fd5b565b60606145398273ffffffffffffffffffffffffffffffffffffffff16601460ff16614540565b9050919050565b6060600060028360026145539190615162565b61455d91906151cd565b67ffffffffffffffff811115614576576145756156bf565b5b6040519080825280601f01601f1916602001820160405280156145a85781602001600182028036833780820191505090505b5090507f3000000000000000000000000000000000000000000000000000000000000000816000815181106145e0576145df6156ee565b5b60200101907effffffffffffffffffffffffffffffffffffffffffffffffffffffffffffff1916908160001a9053507f780000000000000000000000000000000000000000000000000000000000000081600181518110614644576146436156ee565b5b60200101907effffffffffffffffffffffffffffffffffffffffffffffffffffffffffffff1916908160001a905350600060018460026146849190615162565b61468e91906151cd565b90505b600181111561472e577f3031323334353637383961626364656600000000000000000000000000000000600f8616601081106146d0576146cf6156ee565b5b1a60f81b8282815181106146e7576146e66156ee565b5b60200101907effffffffffffffffffffffffffffffffffffffffffffffffffffffffffffff1916908160001a905350600485901c9450806147279061571d565b9050614691565b5060008414614772576040517f08c379a000000000000000000000000000000000000000000000000000000000815260040161476990615792565b60405180910390fd5b8091505092915050565b604051806101800160405280600073ffffffffffffffffffffffffffffffffffffffff168152602001600060ff168152602001600081526020016000815260200160008152602001600081526020016000815260200160008152602001600081526020016000815260200160008152602001600081525090565b6040518060c00160405280600060ff16815260200160008152602001600081526020016000815260200160008152602001600081525090565b6040518060c0016040528060008152602001600015158152602001600081526020016000815260200160008152602001600081525090565b600080fd5b60007fffffffff0000000000000000000000000000000000000000000000000000000082169050919050565b6148a18161486c565b81146148ac57600080fd5b50565b6000813590506148be81614898565b92915050565b6000602082840312156148da576148d9614867565b5b60006148e8848285016148af565b91505092915050565b60008115159050919050565b614906816148f1565b82525050565b600060208201905061492160008301846148fd565b92915050565b6000819050919050565b61493a81614927565b811461494557600080fd5b50565b60008135905061495781614931565b92915050565b60006020828403121561497357614972614867565b5b600061498184828501614948565b91505092915050565b600073ffffffffffffffffffffffffffffffffffffffff82169050919050565b60006149b58261498a565b9050919050565b6149c5816149aa565b81146149d057600080fd5b50565b6000813590506149e2816149bc565b92915050565b600080604083850312156149ff576149fe614867565b5b6000614a0d85828601614948565b9250506020614a1e858286016149d3565b9150509250929050565b6000819050919050565b614a3b81614a28565b8114614a4657600080fd5b50565b600081359050614a5881614a32565b92915050565b600060208284031215614a7457614a73614867565b5b6000614a8284828501614a49565b91505092915050565b614a9481614a28565b82525050565b6000602082019050614aaf6000830184614a8b565b92915050565b60008060408385031215614acc57614acb614867565b5b6000614ada85828601614a49565b9250506020614aeb858286016149d3565b9150509250929050565b60038110614b0257600080fd5b50565b600081359050614b1481614af5565b92915050565b60008060408385031215614b3157614b30614867565b5b6000614b3f858286016149d3565b9250506020614b5085828601614b05565b9150509250929050565b600060208284031215614b7057614b6f614867565b5b6000614b7e848285016149d3565b91505092915050565b614b90816149aa565b82525050565b600060ff82169050919050565b614bac81614b96565b82525050565b614bbb81614927565b82525050565b61018082016000820151614bd86000850182614b87565b506020820151614beb6020850182614ba3565b506040820151614bfe6040850182614bb2565b506060820151614c116060850182614bb2565b506080820151614c246080850182614bb2565b5060a0820151614c3760a0850182614bb2565b5060c0820151614c4a60c0850182614bb2565b5060e0820151614c5d60e0850182614bb2565b50610100820151614c72610100850182614bb2565b50610120820151614c87610120850182614bb2565b50610140820151614c9c610140850182614bb2565b50610160820151614cb1610160850182614bb2565b50505050565b60c082016000820151614ccd6000850182614ba3565b506020820151614ce06020850182614bb2565b506040820151614cf36040850182614bb2565b506060820151614d066060850182614bb2565b506080820151614d196080850182614bb2565b5060a0820151614d2c60a0850182614bb2565b50505050565b600061024082019050614d486000830185614bc1565b614d56610180830184614cb7565b9392505050565b614d6681614b96565b8114614d7157600080fd5b50565b600081359050614d8381614d5d565b92915050565b600060208284031215614d9f57614d9e614867565b5b6000614dad84828501614d74565b91505092915050565b614dbf816148f1565b82525050565b60c082016000820151614ddb6000850182614bb2565b506020820151614dee6020850182614db6565b506040820151614e016040850182614bb2565b506060820151614e146060850182614bb2565b506080820151614e276080850182614bb2565b5060a0820151614e3a60a0850182614bb2565b50505050565b600060c082019050614e556000830184614dc5565b92915050565b614e64816149aa565b82525050565b6000602082019050614e7f6000830184614e5b565b92915050565b600081519050614e9481614931565b92915050565b600060208284031215614eb057614eaf614867565b5b6000614ebe84828501614e85565b91505092915050565b614ed081614927565b82525050565b6000604082019050614eeb6000830185614e5b565b614ef86020830184614ec7565b9392505050565b614f08816148f1565b8114614f1357600080fd5b50565b600081519050614f2581614eff565b92915050565b600060208284031215614f4157614f40614867565b5b6000614f4f84828501614f16565b91505092915050565b6000602082019050614f6d6000830184614ec7565b92915050565b600081519050614f8281614d5d565b92915050565b600060208284031215614f9e57614f9d614867565b5b6000614fac84828501614f73565b91505092915050565b7f4e487b7100000000000000000000000000000000000000000000000000000000600052601160045260246000fd5b60008160011c9050919050565b6000808291508390505b600185111561503b5780860481111561501757615016614fb5565b5b60018516156150265780820291505b808102905061503485614fe4565b9450614ffb565b94509492505050565b6000826150545760019050615110565b816150625760009050615110565b81600181146150785760028114615082576150b1565b6001915050615110565b60ff84111561509457615093614fb5565b5b8360020a9150848211156150ab576150aa614fb5565b5b50615110565b5060208310610133831016604e8410600b84101617156150e65782820a9050838111156150e1576150e0614fb5565b5b615110565b6150f38484846001614ff1565b9250905081840481111561510a57615109614fb5565b5b81810290505b9392505050565b600061512282614927565b915061512d83614b96565b925061515a7fffffffffffffffffffffffffffffffffffffffffffffffffffffffffffffffff8484615044565b905092915050565b600061516d82614927565b915061517883614927565b925082820261518681614927565b9150828204841483151761519d5761519c614fb5565b5b5092915050565b60006040820190506151b96000830185614e5b565b6151c66020830184614e5b565b9392505050565b60006151d882614927565b91506151e383614927565b92508282019050808211156151fb576151fa614fb5565b5b92915050565b60006060820190506152166000830186614e5b565b6152236020830185614e5b565b6152306040830184614ec7565b949350505050565b600082825260208201905092915050565b7f416363657373436f6e74726f6c3a2063616e206f6e6c792072656e6f756e636560008201527f20726f6c657320666f722073656c660000000000000000000000000000000000602082015250565b60006152a5602f83615238565b91506152b082615249565b604082019050919050565b600060208201905081810360008301526152d481615298565b9050919050565b7f4e487b7100000000000000000000000000000000000000000000000000000000600052602160045260246000fd5b6003811061531b5761531a6152db565b5b50565b600081905061532c8261530a565b919050565b600061533c8261531e565b9050919050565b61534c81615331565b82525050565b60006040820190506153676000830185615343565b6153746020830184615343565b9392505050565b600061538682614927565b915061539183614927565b92508282039050818111156153a9576153a8614fb5565b5b92915050565b7f4e487b7100000000000000000000000000000000000000000000000000000000600052601260045260246000fd5b60006153e982614927565b91506153f483614927565b925082615404576154036153af565b5b828204905092915050565b7f5061757361626c653a2070617573656400000000000000000000000000000000600082015250565b6000615445601083615238565b91506154508261540f565b602082019050919050565b6000602082019050818103600083015261547481615438565b9050919050565b600061548682614b96565b91506000820361549957615498614fb5565b5b600182039050919050565b600081905092915050565b7f416363657373436f6e74726f6c3a206163636f756e7420000000000000000000600082015250565b60006154e56017836154a4565b91506154f0826154af565b601782019050919050565b600081519050919050565b60005b83811015615524578082015181840152602081019050615509565b60008484015250505050565b600061553b826154fb565b61554581856154a4565b9350615555818560208601615506565b80840191505092915050565b7f206973206d697373696e6720726f6c6520000000000000000000000000000000600082015250565b60006155976011836154a4565b91506155a282615561565b601182019050919050565b60006155b8826154d8565b91506155c48285615530565b91506155cf8261558a565b91506155db8284615530565b91508190509392505050565b6000601f19601f8301169050919050565b6000615603826154fb565b61560d8185615238565b935061561d818560208601615506565b615626816155e7565b840191505092915050565b6000602082019050818103600083015261564b81846155f8565b905092915050565b7f5061757361626c653a206e6f7420706175736564000000000000000000000000600082015250565b6000615689601483615238565b915061569482615653565b602082019050919050565b600060208201905081810360008301526156b88161567c565b9050919050565b7f4e487b7100000000000000000000000000000000000000000000000000000000600052604160045260246000fd5b7f4e487b7100000000000000000000000000000000000000000000000000000000600052603260045260246000fd5b600061572882614927565b91506000820361573b5761573a614fb5565b5b600182039050919050565b7f537472696e67733a20686578206c656e67746820696e73756666696369656e74600082015250565b600061577c602083615238565b915061578782615746565b602082019050919050565b600060208201905081810360008301526157ab8161576f565b905091905056fea264697066735822122093862e556954ba0691282e068744768aced2e7e53b6354a503313895a4e2d3ed64736f6c63430008130033",
  "immutableReferences": {},
  "source": "// SPDX-License-Identifier: MIT\npragma solidity ^0.8.9;\n\nimport \"@openzeppelin/contracts/token/ERC20/IERC20.sol\";\nimport \"@openzeppelin/contracts/access/AccessControl.sol\";\nimport \"@openzeppelin/contracts/security/Pausable.sol\"; \n\ninterface IERC20Extended is IERC20 {\n  function decimals() external view returns (uint8);\n}\n\ninterface IERC20Burnable is IERC20Extended {\n  function burnFrom(address account, uint amount) external;\n}\n\ncontract PandAIEarn is AccessControl, Pausable {\n\n  IERC20Extended private usdtToken;\n  IERC20Burnable private pandaiToken;\n  \n  address private lpAddress;\n\n  bytes32 public constant UPDATER_ROLE = keccak256(\"UPDATER_ROLE\");\n  address private constant DEFAULT_REFERRAL = 0xEe9Aa828fF4cBF294063168E78BEB7BcF441fEa1;\n\n  uint private constant BASE_PERIOD = 1 days;                        // base period for time (mainnet: 1 day, devnet: minutes)\n  uint private constant WITHDRAW_PROCESSING_TIME = 14 * BASE_PERIOD; // user requests withdrawal -> 14 days waiting -> withdrawal can be executed\n  uint private constant INTEREST_PERIOD = 30 * BASE_PERIOD;          // period for Tier.monthlyGainBps\n  uint private constant DAILY_CLAIM_LIMIT = 1000;                    // daily claim limit of USDT for NotApproved users\n  uint private constant MIRIAD = 10000;                              // helper for divisor\n  uint private constant REFERRAL_MONTHLY_GAIN_BPS = 20;              // 0.2% reward for referrals\n  uint private constant REFERRAL_CLAIM_FEE_BPS = 1000;               // 10% referral claim fee\n  \n  /**\n    0: NotApproved (daily claim limit of $1000)\n    1: Approved (no daily limit)\n    2: Forbidden (claim forbidden)\n  */\n  enum ApprovalLevel{ NotApproved, Approved, Forbidden }\n\n  mapping(uint8 => Tier) private tierMap;\n  struct Tier {\n    uint minDeposit;\n    bool compoundInterest;     \n    \n    uint monthlyGainBps;\n    uint claimFeeBps;\n\n    uint lockupSeconds;\n    uint lockupBreachFeeBps;\n  }\n\n  mapping(address => User) private userMap;\n  struct User {\n    address referral;                  // referral address for this account\n    uint8 approvalLevel;               // approval level of this user (from ApprovalLevel enum)\n    \n    uint deposit;                      // usdt deposit of given user\n    uint lastDepositTimestamp;         // last time of usdt deposit\n    \n    uint withdrawRequestAmount;        // usdt user request to withdraw\n    uint withdrawPossibleTimestamp;    // time when the withdraw of requested amount can be done\n    \n    uint dailyClaim;                   // usdt user claimed today\n    uint totalClaim;                   // usdt user claimed in total\n    uint lastClaimTimestamp;           // last time when user called claim\n\n    uint referralDeposit;              // sum of usdt deposits of users bellow this user (in referral program)\n    uint referralPendingReward;        // pending referral reward (calculated in referralLastUpdateTimestamp)\n    uint referralLastUpdateTimestamp;  // time when referalPendingReward was updated\n  }\n\n  struct UserCalculated {\n    uint8 tier;\n\n    uint userPendingReward;\n    uint userPendingPandaiBurn;\n\n    uint referralPendingReward;\n    uint referralPendingPandaiBurn;\n\n    uint depositUnlockTimestamp;\n  }\n\n  event TreasuryWithdraw(uint usdtAmount);\n  event TreasuryDeposit(uint usdtAmount);\n  event LpAddressChanged(address indexed previousLp, address indexed newLp);\n  event ApprovalLevelChanged(address indexed userAddress, ApprovalLevel previousApprovalLevel, ApprovalLevel newApprovalLevel);\n\n  event UserDeposited(address indexed userAddress, uint usdtAmount);\n  event UserRequestedWithdraw(address indexed userAddress, uint usdtAmount);\n  event UserWithdrew(address indexed userAddress, uint usdtAmount);\n\n  event PandaiBurnedForUserRewardClaim(address indexed userAddress, uint pandaiAmount);\n  event PandaiBurnedForReferralRewardClaim(address indexed userAddress, uint pandaiAmount);\n  event PandaiBurnedForWithdrawFee(address indexed userAddress, uint pandaiAmount);\n  \n  event UserRewardClaimed(address indexed userAddress, uint usdtAmount);\n  event ReferralRewardClaimed(address indexed userAddress, uint usdtAmount);\n\n  constructor(address usdtTokenAddress, address pandaiTokenAddress) {\n    usdtToken = IERC20Extended(usdtTokenAddress);\n    pandaiToken = IERC20Burnable(pandaiTokenAddress);\n\n    tierMap[1] = Tier(  100, false, 100, 1000,   7 * BASE_PERIOD, 4000);\n    tierMap[2] = Tier(  500, false, 125,  900,  30 * BASE_PERIOD, 3500);\n    tierMap[3] = Tier( 1000, false, 150,  800,  60 * BASE_PERIOD, 3000);\n    tierMap[4] = Tier( 5000,  true, 180,  650,  90 * BASE_PERIOD, 2500);\n    tierMap[5] = Tier(10000,  true, 220,  500, 180 * BASE_PERIOD, 2000);\n\n    _grantRole(DEFAULT_ADMIN_ROLE, msg.sender);\n  }\n \n  /**\n    returns info about given user. Returns stored values (stored in mapping) and calculated values (contract calculates them from stored values)\n  */\n  function getUser(address userAddress) external view returns (User memory stored, UserCalculated memory calculated) {    \n    require(userAddress != address(0));    \n    uint8 tier = getUserTier(userAddress);\n    uint userReward = getUserReward(userAddress, tier);\n    uint referralReward = userMap[userAddress].referralPendingReward + getNewReferralReward(userAddress);\n    return (\n      userMap[userAddress],\n      UserCalculated(\n        tier,\n        userReward,\n        getUserRewardClaimFeePandai(userReward, tier),\n        referralReward,\n        getReferralRewardClaimFeePandai(referralReward),\n        getDepositUnlokTimestamp(userAddress, tier)\n      )\n    );\n  }\n\n  /**\n    returns info about given tier.\n  */\n  function getTier(uint8 tier) external view returns (Tier memory) {\n    require(tier >= 1 && tier <= 5);\n    return tierMap[tier];\n  }\n\n  /**\n    returns address of liquidty pool that swaps USDT and PANDAI. Used to define PANDAI price in USDT.\n  */\n  function getLpAddress() external view returns (address) {\n    return lpAddress;\n  }\n\n  /**\n    paused contract prohibits deposits\n  */\n  function pause() external onlyRole(DEFAULT_ADMIN_ROLE) {\n    _pause();\n  }\n\n  /**\n    unpauses paused contract\n  */\n  function unpause() external onlyRole(DEFAULT_ADMIN_ROLE) {\n    _unpause();\n  }\n\n  /**\n    sets address for liquidity pool\n  */\n  function setLpAddress(address newLpAddress) external onlyRole(DEFAULT_ADMIN_ROLE) {\n    require(newLpAddress != address(0));\n    require(usdtToken.balanceOf(newLpAddress) > 0);\n    require(pandaiToken.balanceOf(newLpAddress) > 0);\n    \n    address oldLpAddress = newLpAddress;\n    lpAddress = newLpAddress;\n    emit LpAddressChanged(oldLpAddress, newLpAddress);\n  }\n\n  /**\n    withdraws USDT from contract\n  */\n  function withdrawTreasury(uint usdtAmount) external onlyRole(DEFAULT_ADMIN_ROLE) {\n    require(usdtToken.balanceOf(address(this)) >= usdtAmount);\n    usdtToken.transfer(msg.sender, usdtAmount);\n    emit TreasuryWithdraw(usdtAmount);\n  }\n\n  /**\n    deposits USDT from contract. USDT can be sent in ordinary transaction, this event is helpful to use as it produces event.\n  */\n  function depositTreasury(uint usdtAmount) external onlyRole(DEFAULT_ADMIN_ROLE) {\n    require(usdtToken.balanceOf(msg.sender) >= usdtAmount);\n    require(usdtToken.allowance(msg.sender, address(this)) >= usdtAmount);\n    usdtToken.transferFrom(msg.sender, address(this), usdtAmount);\n    emit TreasuryDeposit(usdtAmount);\n  }\n\n  /**\n    sets ApprovalLevel of given address. \n  */\n  function setUserApprovalLevel(address userAddress, ApprovalLevel newApprovalLevel) external onlyRole(UPDATER_ROLE) {\n    ApprovalLevel oldApprovalLevel = ApprovalLevel(userMap[userAddress].approvalLevel);\n    userMap[userAddress].approvalLevel = uint8(newApprovalLevel);\n    emit ApprovalLevelChanged(userAddress, oldApprovalLevel, newApprovalLevel);\n  }\n\n  /**\n    deposits USDT, default referral is used\n  */\n  function deposit(uint usdtDepositAmount) external {\n    depositWithReferral(usdtDepositAmount, DEFAULT_REFERRAL);\n  }\n\n  /**\n    deposits USDT, referralAddress is used only if no referral is set for address making deposit (the first deposit of the address).\n    If there's a pending user reward, the reward is lost because this method restarts User.lastClaimTimestamp and makes no claim.\n    It's recommended to call claim() before this method.\n  */\n  function depositWithReferral(uint usdtDepositAmount, address referralAddress) public whenNotPaused {\n    require(usdtDepositAmount >= tierMap[1].minDeposit * (10 ** usdtToken.decimals()));\n    require(referralAddress != address(0));\n    require(referralAddress != msg.sender);\n    \n    require(usdtToken.balanceOf(msg.sender) >= usdtDepositAmount);\n    require(usdtToken.allowance(msg.sender, address(this)) >= usdtDepositAmount);\n\n    // assign referral\n    if (userMap[msg.sender].referral == address(0)) {\n      userMap[msg.sender].referral = referralAddress;\n    }\n\n    // update user\n    userMap[msg.sender].deposit += usdtDepositAmount;\n    userMap[msg.sender].lastDepositTimestamp = block.timestamp;\n    userMap[msg.sender].lastClaimTimestamp = block.timestamp;\n    \n    // update referral\n    uint newReferralReward = getNewReferralReward(userMap[msg.sender].referral);\n    userMap[userMap[msg.sender].referral].referralDeposit += usdtDepositAmount;\n    userMap[userMap[msg.sender].referral].referralPendingReward += newReferralReward;\n    userMap[userMap[msg.sender].referral].referralLastUpdateTimestamp = block.timestamp;\n    \n    // transfer USDT\n    usdtToken.transferFrom(msg.sender, address(this), usdtDepositAmount);\n    emit UserDeposited(msg.sender, usdtDepositAmount);\n  }\n\n  /**\n    requests USDT withdraw. USDTs will be available for withdraw (other method) after WITHDRAW_PROCESSING_TIME.\n    If there's a pending user reward, the reward will be partialy lost because this method decresese deposit and performs no claim.\n    It's recommended to call claim() before this method.\n    In case there's already a withdraw pending, it's increased by usdtWithdrawAmount and WITHDRAW_PROCESSING_TIME is reset.\n  */\n  function requestWithdraw(uint usdtWithdrawAmount) external {\n    require(usdtWithdrawAmount <= userMap[msg.sender].deposit);\n    if (usdtWithdrawAmount < userMap[msg.sender].deposit) {\n      require(userMap[msg.sender].deposit - usdtWithdrawAmount >= tierMap[1].minDeposit * (10 ** usdtToken.decimals()));\n    }\n\n    uint8 tier = getUserTier(msg.sender);\n    require(tier > 0);\n\n    // if withdraw is called before lockup, there's a fee paid in PANDAI\n    uint withdrawFeePandai;\n    if (getDepositUnlokTimestamp(msg.sender, tier) > block.timestamp) {\n      withdrawFeePandai = getPandaiWorthOf(usdtWithdrawAmount * tierMap[tier].lockupBreachFeeBps / MIRIAD);\n\n      require(pandaiToken.balanceOf(msg.sender) >= withdrawFeePandai);\n      require(pandaiToken.allowance(msg.sender, address(this)) >= withdrawFeePandai);\n    }\n\n    // update user\n    userMap[msg.sender].deposit -= usdtWithdrawAmount;\n    userMap[msg.sender].withdrawRequestAmount += usdtWithdrawAmount;\n    userMap[msg.sender].withdrawPossibleTimestamp = block.timestamp + WITHDRAW_PROCESSING_TIME;\n    \n    // update referral\n    uint newReferralReward = getNewReferralReward(userMap[msg.sender].referral);\n    if (userMap[userMap[msg.sender].referral].referralDeposit >= usdtWithdrawAmount) {\n      userMap[userMap[msg.sender].referral].referralDeposit -= usdtWithdrawAmount;\n    } else {\n      userMap[userMap[msg.sender].referral].referralDeposit = 0;\n    }\n    userMap[userMap[msg.sender].referral].referralPendingReward += newReferralReward;\n    userMap[userMap[msg.sender].referral].referralLastUpdateTimestamp = block.timestamp;\n\n    // if needed, burn PANDAI\n    if (withdrawFeePandai > 0) {\n      pandaiToken.burnFrom(msg.sender, withdrawFeePandai);\n      emit PandaiBurnedForWithdrawFee(msg.sender, withdrawFeePandai);\n    }\n    emit UserRequestedWithdraw(msg.sender, usdtWithdrawAmount);\n  }\n\n  /**\n    withdraws requested amount of USDT\n  */\n  function withdraw() external {\n    require(userMap[msg.sender].withdrawRequestAmount > 0);\n    require(userMap[msg.sender].withdrawRequestAmount <= usdtToken.balanceOf(address(this)));\n    require(userMap[msg.sender].withdrawPossibleTimestamp <= block.timestamp);\n\n    // update user\n    uint usdtWithdrawAmount = userMap[msg.sender].withdrawRequestAmount;\n    userMap[msg.sender].withdrawRequestAmount = 0;\n    userMap[msg.sender].withdrawPossibleTimestamp = 0;\n\n    // transfer USDT\n    usdtToken.transfer(msg.sender, usdtWithdrawAmount);\n    emit UserWithdrew(msg.sender, usdtWithdrawAmount);\n  }\n\n  /**\n    claims user reward (derived from it's own deposit)\n  */\n  function claimUser() external {\n    uint8 tier = getUserTier(msg.sender);\n    require(tier > 0);\n\n    uint userClaimUsdt = getUserReward(msg.sender, tier);\n    require(userClaimUsdt > 0);\n    require(canClaim(msg.sender, userClaimUsdt));\n    \n    uint userClaimFeePandai = getUserRewardClaimFeePandai(userClaimUsdt, tier);\n    require(pandaiToken.balanceOf(msg.sender) >= userClaimFeePandai);\n    require(pandaiToken.allowance(msg.sender, address(this)) >= userClaimFeePandai);\n\n    // update user\n    if (isToday(userMap[msg.sender].lastClaimTimestamp)) {\n      userMap[msg.sender].dailyClaim += userClaimUsdt;\n    } else {\n      userMap[msg.sender].dailyClaim = userClaimUsdt;\n    }\n    userMap[msg.sender].totalClaim += userClaimUsdt;\n    userMap[msg.sender].lastClaimTimestamp = block.timestamp;\n\n    // transfer USDT\n    usdtToken.transfer(msg.sender, userClaimUsdt);\n    emit UserRewardClaimed(msg.sender, userClaimUsdt);\n    \n    // burn PANDAI\n    pandaiToken.burnFrom(msg.sender, userClaimFeePandai);\n    emit PandaiBurnedForUserRewardClaim(msg.sender, userClaimFeePandai);\n  }\n \n  /**\n    claims referral reward (derived from deposits of users with referral being the caller)\n  */\n  function claimReferral() external {\n    uint referralClaimUsdt = userMap[msg.sender].referralPendingReward + getNewReferralReward(msg.sender);\n    require(referralClaimUsdt > 0);\n    require(canClaim(msg.sender, referralClaimUsdt));\n    \n    uint referralClaimFeePandai = getReferralRewardClaimFeePandai(referralClaimUsdt);\n    require(pandaiToken.balanceOf(msg.sender) >= referralClaimFeePandai);\n    require(pandaiToken.allowance(msg.sender, address(this)) >= referralClaimFeePandai);\n\n    // update user\n    if (isToday(userMap[msg.sender].lastClaimTimestamp)) {\n      userMap[msg.sender].dailyClaim += referralClaimUsdt;\n    } else {\n      userMap[msg.sender].dailyClaim = referralClaimUsdt;\n    }\n    userMap[msg.sender].totalClaim += referralClaimUsdt;\n\n    // update referral\n    userMap[msg.sender].referralPendingReward = 0;\n    userMap[msg.sender].referralLastUpdateTimestamp = block.timestamp;\n\n    // transfer USDT\n    usdtToken.transfer(msg.sender, referralClaimUsdt);\n    emit ReferralRewardClaimed(msg.sender, referralClaimUsdt);\n    \n    // transfer PANDAI\n    pandaiToken.burnFrom(msg.sender, referralClaimFeePandai);\n    emit PandaiBurnedForReferralRewardClaim(msg.sender, referralClaimFeePandai);\n  }\n\n  /**\n    combines claimUser() and claimReferral() into a single contract call.\n  */\n  function claimAll() external {\n    uint8 tier = getUserTier(msg.sender);\n    uint userClaimUsdt = getUserReward(msg.sender, tier);\n    uint referralClaimUsdt = userMap[msg.sender].referralPendingReward + getNewReferralReward(msg.sender);\n    require(userClaimUsdt + referralClaimUsdt > 0);\n    require(canClaim(msg.sender, userClaimUsdt + referralClaimUsdt));\n    \n    uint userClaimFeePandai = getUserRewardClaimFeePandai(userClaimUsdt, tier);\n    uint referralClaimFeePandai = getReferralRewardClaimFeePandai(referralClaimUsdt);\n    require(pandaiToken.balanceOf(msg.sender) >= userClaimFeePandai + referralClaimFeePandai);\n    require(pandaiToken.allowance(msg.sender, address(this)) >= userClaimFeePandai + referralClaimFeePandai);\n\n    // update user\n    if (isToday(userMap[msg.sender].lastClaimTimestamp)) {\n      userMap[msg.sender].dailyClaim += userClaimUsdt + referralClaimUsdt;\n    } else {\n      userMap[msg.sender].dailyClaim = userClaimUsdt + referralClaimUsdt;\n    }\n    userMap[msg.sender].totalClaim += userClaimUsdt + referralClaimUsdt;\n    userMap[msg.sender].lastClaimTimestamp = block.timestamp;\n\n    // update referral\n    userMap[msg.sender].referralPendingReward = 0;\n    userMap[msg.sender].referralLastUpdateTimestamp = block.timestamp;\n\n    // transfer USDT, burn PANDAI\n    usdtToken.transfer(msg.sender, userClaimUsdt + referralClaimUsdt);\n    pandaiToken.burnFrom(msg.sender, userClaimFeePandai + referralClaimFeePandai);\n    if (userClaimUsdt > 0) {\n      emit UserRewardClaimed(msg.sender, userClaimUsdt);\n      emit PandaiBurnedForUserRewardClaim(msg.sender, userClaimFeePandai);\n    }\n    if (referralClaimUsdt > 0) {\n      emit ReferralRewardClaimed(msg.sender, referralClaimUsdt);\n      emit PandaiBurnedForReferralRewardClaim(msg.sender, referralClaimFeePandai);\n    }\n  }\n\n  /**\n    checks whether given user is able claiming given amount of usdt. Depends on user approvalLevel and his dailyClaim\n  */\n  function canClaim(address userAddress, uint claimUsdt) private view returns (bool) {\n    ApprovalLevel approvalLevel = ApprovalLevel(userMap[userAddress].approvalLevel);\n    if (approvalLevel == ApprovalLevel.Approved) {\n      return true;\n    } else if (approvalLevel == ApprovalLevel.Forbidden) {\n      return false;\n    }\n    if (isToday(userMap[userAddress].lastClaimTimestamp)) {\n      claimUsdt += userMap[userAddress].dailyClaim;\n    }\n    return claimUsdt / (10 ** usdtToken.decimals()) < DAILY_CLAIM_LIMIT;\n  }\n\n  /**\n    simple check whether given timestamp falls into same day\n  */\n  function isToday(uint timestamp) private view returns (bool) {\n    return block.timestamp / BASE_PERIOD == timestamp / BASE_PERIOD;\n  }\n\n  /**\n    converts USDT into pandai according to current price in the liquity pool\n  */\n  function getPandaiWorthOf(uint usdtAmount) private view returns (uint) {\n    if (usdtAmount == 0) {\n      return 0;\n    }\n    uint usdtInLp = usdtToken.balanceOf(lpAddress);\n    uint pandaiInLp = pandaiToken.balanceOf(lpAddress);\n    require (usdtInLp * pandaiInLp > 0);\n\n    return usdtAmount * pandaiInLp / usdtInLp;\n  }\n\n  /**\n    gets user tier from his deposit\n  */\n  function getUserTier(address userAddress) private view returns (uint8) {\n    uint userDeposit = userMap[userAddress].deposit / (10 ** usdtToken.decimals());\n    for (uint8 i = 5; i >= 1; i--) {\n      if (userDeposit >= tierMap[i].minDeposit) {\n        return i;\n      }\n    }\n    return 0;\n  }\n\n  /**\n    claculates user reward that follows eiterh simple or compounc interest. \n    In case of compound iterest, the calculatio follows taylor series for exponential\n  */\n  function getUserReward(address userAddress, uint8 userTier) private view returns (uint) {\n    if (userTier == 0) {\n      return 0;\n    }\n    uint g = tierMap[userTier].monthlyGainBps;\n    uint t = block.timestamp - userMap[userAddress].lastClaimTimestamp;\n    uint f1 = userMap[userAddress].deposit * g * t / MIRIAD / INTEREST_PERIOD;\n    if (!tierMap[userTier].compoundInterest) {\n      return f1;\n    }\n    uint f2 = f1 * g * t / MIRIAD / INTEREST_PERIOD / 2;\n    uint f3 = f2 * g * t / MIRIAD / INTEREST_PERIOD / 3;\n    return f1 + f2 + f3;\n  }\n\n  /**\n    how much PANDAI user in given tier should burn when claiming given user reward\n  */\n  function getUserRewardClaimFeePandai(uint userRewardUsdt, uint8 userTier) private view returns (uint) {\n    if (userTier == 0) {\n      return 0;\n    }\n    return getPandaiWorthOf(userRewardUsdt * tierMap[userTier].claimFeeBps / MIRIAD);\n  }\n\n  /**\n    calculates referral reward from time when the reward has been updated the last\n  */\n  function getNewReferralReward(address userAddress) private view returns (uint) {\n    uint t = block.timestamp - userMap[userAddress].referralLastUpdateTimestamp;\n    return userMap[userAddress].referralDeposit * REFERRAL_MONTHLY_GAIN_BPS * t / MIRIAD / INTEREST_PERIOD;\n  }\n\n  /**\n    how much PANDAI user should burn when claiming given referral reward \n  */\n  function getReferralRewardClaimFeePandai(uint referralRewardUsdt) private view returns (uint) {\n    return getPandaiWorthOf(referralRewardUsdt * REFERRAL_CLAIM_FEE_BPS / MIRIAD);\n  }\n\n  /**\n    timestamp when it's no longer required to burn PANDAI when requesting withdraw\n  */\n  function getDepositUnlokTimestamp(address userAddress, uint8 userTier) private view returns (uint) {\n    if (userTier == 0) {\n      return 0;\n    }\n    return userMap[userAddress].lastDepositTimestamp + tierMap[userTier].lockupSeconds;\n  }\n\n}\n",
  "sourcePath": "/Users/jlochman/Documents/PandAI/Earn SC/contracts/PandAIEarn.sol",
  "compiler": {
    "name": "solc",
    "version": "0.8.19+commit.7dd6d404.Emscripten.clang"
  },
  "schemaVersion": "3.4.13",
  "updatedAt": "2023-04-11T19:08:14.607Z",
  "devdoc": {
    "events": {
      "Paused(address)": {
        "details": "Emitted when the pause is triggered by `account`."
      },
      "RoleAdminChanged(bytes32,bytes32,bytes32)": {
        "details": "Emitted when `newAdminRole` is set as ``role``'s admin role, replacing `previousAdminRole` `DEFAULT_ADMIN_ROLE` is the starting admin for all roles, despite {RoleAdminChanged} not being emitted signaling this. _Available since v3.1._"
      },
      "RoleGranted(bytes32,address,address)": {
        "details": "Emitted when `account` is granted `role`. `sender` is the account that originated the contract call, an admin role bearer except when using {AccessControl-_setupRole}."
      },
      "RoleRevoked(bytes32,address,address)": {
        "details": "Emitted when `account` is revoked `role`. `sender` is the account that originated the contract call:   - if using `revokeRole`, it is the admin role bearer   - if using `renounceRole`, it is the role bearer (i.e. `account`)"
      },
      "Unpaused(address)": {
        "details": "Emitted when the pause is lifted by `account`."
      }
    },
    "kind": "dev",
    "methods": {
      "getRoleAdmin(bytes32)": {
        "details": "Returns the admin role that controls `role`. See {grantRole} and {revokeRole}. To change a role's admin, use {_setRoleAdmin}."
      },
      "grantRole(bytes32,address)": {
        "details": "Grants `role` to `account`. If `account` had not been already granted `role`, emits a {RoleGranted} event. Requirements: - the caller must have ``role``'s admin role. May emit a {RoleGranted} event."
      },
      "hasRole(bytes32,address)": {
        "details": "Returns `true` if `account` has been granted `role`."
      },
      "paused()": {
        "details": "Returns true if the contract is paused, and false otherwise."
      },
      "renounceRole(bytes32,address)": {
        "details": "Revokes `role` from the calling account. Roles are often managed via {grantRole} and {revokeRole}: this function's purpose is to provide a mechanism for accounts to lose their privileges if they are compromised (such as when a trusted device is misplaced). If the calling account had been revoked `role`, emits a {RoleRevoked} event. Requirements: - the caller must be `account`. May emit a {RoleRevoked} event."
      },
      "revokeRole(bytes32,address)": {
        "details": "Revokes `role` from `account`. If `account` had been granted `role`, emits a {RoleRevoked} event. Requirements: - the caller must have ``role``'s admin role. May emit a {RoleRevoked} event."
      },
      "supportsInterface(bytes4)": {
        "details": "See {IERC165-supportsInterface}."
      }
    },
    "version": 1
  },
  "userdoc": {
    "kind": "user",
    "methods": {
      "claimAll()": {
        "notice": "combines claimUser() and claimReferral() into a single contract call."
      },
      "claimReferral()": {
        "notice": "claims referral reward (derived from deposits of users with referral being the caller)"
      },
      "claimUser()": {
        "notice": "claims user reward (derived from it's own deposit)"
      },
      "deposit(uint256)": {
        "notice": "deposits USDT, default referral is used"
      },
      "depositTreasury(uint256)": {
        "notice": "deposits USDT from contract. USDT can be sent in ordinary transaction, this event is helpful to use as it produces event."
      },
      "depositWithReferral(uint256,address)": {
        "notice": "deposits USDT, referralAddress is used only if no referral is set for address making deposit (the first deposit of the address). If there's a pending user reward, the reward is lost because this method restarts User.lastClaimTimestamp and makes no claim. It's recommended to call claim() before this method."
      },
      "getLpAddress()": {
        "notice": "returns address of liquidty pool that swaps USDT and PANDAI. Used to define PANDAI price in USDT."
      },
      "getTier(uint8)": {
        "notice": "returns info about given tier."
      },
      "getUser(address)": {
        "notice": "returns info about given user. Returns stored values (stored in mapping) and calculated values (contract calculates them from stored values)"
      },
      "pause()": {
        "notice": "paused contract prohibits deposits"
      },
      "requestWithdraw(uint256)": {
        "notice": "requests USDT withdraw. USDTs will be available for withdraw (other method) after WITHDRAW_PROCESSING_TIME. If there's a pending user reward, the reward will be partialy lost because this method decresese deposit and performs no claim. It's recommended to call claim() before this method. In case there's already a withdraw pending, it's increased by usdtWithdrawAmount and WITHDRAW_PROCESSING_TIME is reset."
      },
      "setLpAddress(address)": {
        "notice": "sets address for liquidity pool"
      },
      "setUserApprovalLevel(address,uint8)": {
        "notice": "sets ApprovalLevel of given address. "
      },
      "unpause()": {
        "notice": "unpauses paused contract"
      },
      "withdraw()": {
        "notice": "withdraws requested amount of USDT"
      },
      "withdrawTreasury(uint256)": {
        "notice": "withdraws USDT from contract"
      }
    },
    "version": 1
  }
}